:020000040800F2
:1000000000000120C9680008E5590008E959000806
:10001000ED590008F1590008F559000800000000EA
:10002000000000000000000000000000F959000876
:10003000FD59000800000000015A0008055A000898
:100040001969000819690008196900081969000888
:100050001969000819690008196900081969000878
:100060001969000819690008196900081969000868
:100070001969000819690008196900081969000858
:1000800019690008196900081969000800000000D2
:1000900000000000000000000000000019690008D6
:1000A0001969000819690008196900081969000828
:1000B0001969000819690008255A0008196900081B
:1000C0001969000819690008196900081969000808
:1000D0001969000819690008196900080000000082
:1000E0001969000819690008196900080000000072
:1000F0000000000000000000000000001969000876
:100100000000000019690008196900081969000851
:1001100000000000000000000000000000000000DF
:1001200019690008196900081969000819690008A7
:100130001969000800000000000000000000000035
:10014000000000000000000000000000815A0008CC
:100150001969000819690008196900081969000877
:10016000196900081969000800000000000000007B
:10017000000000000000000000000000000000007F
:1001800000000000196900080000000000000000E5
:0401900019690008E1
:1001A00010B5054C237833B9044B13B10448AFF3B1
:1001B00000800123237010BD5801002000000000C2
:1001C00034D3000808B5034B1BB103490348AFF310
:1001D000008008BD000000005C01002034D300084E
:1001E000034613F8012B002AFBD1181A0138704777
:1001F00001F0FF01102A2BDB10F0070F08D010F8D8
:10020000013B013A8B422DD010F0070F42B3F6D1DB
:10021000F0B441EA012141EA014122F007047FF0F4
:1002200000070023F0E80256083C85EA010586EA4B
:10023000010685FA47F5A3FA87F586FA47F6A5FA87
:1002400087F68EB9EED1F0BC01F0FF0102F0070293
:1002500032B110F8013B013A83EA010313B1F8D13E
:100260000020704701387047002D06BF354603381F
:10027000073815F0010F07D1013015F4807F02BF58
:10028000013015F4C03F0130F0BC0138704700BFA9
:1002900053B94AB9002908BF00281CBF4FF0FF31ED
:1002A0004FF0FF3000F088B9ADF1080C6DE904CED5
:1002B00000F006F8DDF804E0DDE9022304B0704741
:1002C0002DE9F047089D0F4604468C46002B48D187
:1002D0008A42164661D9B2FA82F34BB1C3F12002C9
:1002E00001FA03FC20FA02F29E4042EA0C0C9C4008
:1002F0004FEA164EB7B2BCFBFEF1220C0EFB11CC3E
:1003000042EA0C4201FB07F0904209D9B21801F110
:10031000FF3C80F0EE80904240F2EB8002393244A4
:10032000121AA4B2B2FBFEF00EFB102244EA024401
:1003300000FB07F7A74209D9341900F1FF3280F01A
:10034000DA80A74240F2D7803444023840EA0140C4
:10035000E41B00211DB1DC400023C5E90043BDE8DA
:10036000F0878B4206D90DB1C5E90001002108468E
:10037000BDE8F087B3FA83F1002948D1BB4202D32C
:10038000824200F20781841A67EB0302012094463F
:10039000002DE4D0C5E9004CE1E7002A00F092808E
:1003A000B2FA82F3002B40F0A8808A1A4FEA164E68
:1003B0001FFA86FC0121200CB2FBFEF70EFB172270
:1003C00040EA02420CFB07F0904207D9B21807F14D
:1003D000FF3802D2904200F2E2804746121AA4B2DD
:1003E000B2FBFEF00EFB102244EA02440CFB00FCC0
:1003F000A44507D9341900F1FF3202D2A44500F216
:10040000CB801046A4EB0C0440EA0740A2E7C1F100
:1004100020068B4022FA06FC4CEA030C07FA01F492
:1004200020FA06F3F7404FEA1C49234300FA01F88B
:100430001FFA8CFEB7FBF9F01C0C09FB107744EA9D
:10044000074400FB0EF7A74202FA01F20AD91CEB9F
:10045000040400F1FF3A80F09B80A74240F29880AC
:1004600002386444E41B9FB2B4FBF9F309FB134464
:1004700047EA044403FB0EFEA64509D91CEB04041D
:1004800003F1FF3780F08280A6457FD9023B6444A8
:1004900043EA0040A4EB0E04A0FB02E7BC42734613
:1004A000B94663D360D05DB1B8EB030264EB0904D5
:1004B00004FA06F622FA01F31E43CC40C5E90064B3
:1004C00000214CE76208480842EAC1710B0C43EA7C
:1004D00000438AB242EA0342B3FBF6F1E407B446B2
:1004E0003746B6461F23B0FBF6F0D21B41EA004167
:1004F00061E7614614E7104628E7C3F1200120FABE
:1005000001F29E4027FA01F19F403A434FEA164E0E
:100510001FFA86FCB1FBFEF70EFB1710110C41EA27
:10052000004107FB0CF8884504FA03F43AD9711826
:1005300007F1FF3001D288451FD8A1EB0801B1FBBC
:10054000FEF808FB0CF70EFB181192B242EA0142CA
:10055000BA422FD2B21808F1FF31C6D2BA42C4D281
:10056000A8F102013244C0E7F0459CD2BEEB020381
:1005700067EB0C070138B94695E7A6EB080841443C
:10058000B81EB1FBFEF808FB0CF7DCE73B467FE743
:10059000504667E70846FBE63444023832E7023F3C
:1005A00032441BE7A1EB08013846B1FBFEF808FB1B
:1005B0000CF7C8E7414698E7704700BF40B139B132
:1005C000A0224FF47A7301600271836000207047AB
:1005D00002207047F0B50D461944B1F5803F87B051
:1005E00037DAB3B3AAB3044698B38168029105F031
:1005F0007F01C1F180018B42A8BF0B469BB20179FC
:10060000CDE900232A460068102307F0AFFC054619
:10061000F8B906F069FC0DF117078DF8175006467A
:10062000012501E006F066FC217920680097CDE9FC
:1006300001551023002207F0B3FD58B106F054FC19
:10064000A26803469B1B93424FF00100EAD90320A6
:1006500000E0022007B0F0BD8C461944B1F5803FA0
:1006600014DA9BB192B188B100B585B0816802916E
:1006700001790068CDE900231023624607F090FD60
:10068000003818BF0120400005B000BD02207047AF
:10069000002857D02DE9F04F91468A18B2F5803FD7
:1006A000A7B08A464ADCB9F1000F47D00446194684
:1006B000802206A80CF0B8F90DF1170801250AF000
:1006C0007F06C6F180064E45A36821792068A8BF41
:1006D0004E46B6B2CDE9016306AB009352461023F5
:1006E00007F044FC834648BB06F0FEFB8DF817B0CC
:1006F00007460AE006F0F8FBA2680346DB1B9342BC
:100700004FF001001AD806F0F5FB21792068CDF8EA
:100710000080CDE901551023002207F041FD00289B
:10072000E8D1A9EB06091FFA89F956441FFA86FA9F
:10073000B9F1000FC3D127B0BDE8F08F022027B078
:10074000BDE8F08F02207047F8B500250E46BDF8D1
:100750001870C3819DF81C3082810446114680F8D0
:100760002830C0E90066C0E9115586600782C5627D
:10077000304607F041F8A37C024662F30003394695
:10078000A374304607F038F8A37C2563400023F0BB
:10079000060300F002001843E562C4E907556563EB
:1007A000C4E91455C4E91655A582A561A074656213
:1007B00084F84C5084F86050A56306F095FB03461E
:1007C000C4E90F33A189606807F016F80346636433
:1007D000E189206807F010F8636CA06443EA4003E5
:1007E000E362F8BD406B704790F82830022B0AD9BD
:1007F000032B12D1036B03F0010343EA41030363AC
:100800004163816370474BB1036B03F0030343EA19
:10081000810303634163816370477047704700BF82
:1008200038B5044606F060FBD4E91131E26A43EAC8
:1008300041035BB29A4211D0E26A554D216B43EA03
:100840008202AA560A4494F8281022630229E3621D
:100850007FD0032900F09080012971D0218AA068FF
:1008600006F0CAFF18B994F84C50002D74D0218AB4
:10087000A06806F0C1FF012839D0218AA06806F0DF
:10088000BBFF012846D0218AA06806F0B5FF0028EA
:100890004BD0A36DA3F10B02B2F5777F10D8E36DB7
:1008A000782B06D994F86030032B02D0012384F80A
:1008B0006030218AA06806F09FFF01280CD038BD67
:1008C000B3F57A7F84BF022384F86030218AA06860
:1008D00006F092FF0128F2D106F006FB636D03F5E6
:1008E000FA73984284BF002384F8603038BD94F8CE
:1008F0004C30002BC1D0002384F84C3006F0F4FAC1
:10090000236D6065C01AA065218AA06806F074FF97
:100910000128B8D106F0E8FA636D218AC01AE065B3
:10092000A06806F069FF0028B3D106F0DDFA236D58
:1009300003F57A73984284BF022384F86030A8E7F5
:10094000032B8BD1236BE26B9B10C4E90F02636313
:1009500084E7002B82D1F5E7012384F84C3006F0C0
:10096000C3FAE36D2065772B8CBF2B460323C4E9C4
:10097000165584F860307AE713B1032B7FF46EAF1D
:10098000236BE26B5B10C4E90F02636366E700BF91
:100990004CD3000810B581890446406806F02CFF4E
:1009A0000346E1892068636406F026FFA0642046C0
:1009B000BDE81040FFF734BF90F86000704700BFFB
:1009C00038B5102260215E4C0546B0F9040004F0F1
:1009D00053FD5C4804F092FB2368972B05D85A48D6
:1009E00004F08CFB2368972BF9D9B5F90600202277
:1009F000602104F041FD534804F080FB2368972BED
:100A000005D8514804F07AFB2368972BF9D94F4851
:100A100004F074FBB5F908003022202104F02CFD0D
:100A2000484804F06BFB23684F2B05D8464804F078
:100A300065FB23684F2BF9D9B5F90C0030227021E2
:100A400004F01AFD3F4804F059FB2368672B05D8D2
:100A50003D4804F053FB2368672BF9D9B5F90A0028
:100A60004022382104F008FD364804F047FB236893
:100A7000972B05D8344804F041FB2368972BF9D90C
:100A8000B5F900005E22282104F0F6FC2368472B0C
:100A900005D82D4804F032FB2368472BF9D9B5F966
:100AA00002005E22702104F0E7FC2368972B05D832
:100AB000254804F023FB2368972BF9D92B691A7B6F
:100AC000032A09D8DFE802F0352E021B20486E22E7
:100AD000282104F021FB2B695B7BCBB1012B04D0D7
:100AE00006F002FA1B4B186038BD1B486E227021BD
:100AF00004F012FB06F0F8F9164B186038BD1748E1
:100B00006E22282104F008FB2B695B7B002BE5D1CA
:100B100013486E22702104F0FFFA06F0E5F90D4B40
:100B2000186038BD0F486E22282104F0F5FA2B69B1
:100B3000D2E70D486E22282104F0EEFA2B69CBE7AC
:100B4000440400205CD3000860D3000864D300088C
:100B500070D30008740100207CD3000874D300080F
:100B600078D300086CD3000868D3000810B50023C0
:100B700094B0CDE90A33CDE90C33CDE90333CDE9A7
:100B80000533224901930793086C214A40F08050B5
:100B90000864096C01F08051019101990293136876
:100BA00023F4404343F400431360136801204FF4DF
:100BB000803103F44043CDE9080102934FF48001F2
:100BC0000224CDE90E41029807210420CDE912014B
:100BD00019224FF4A87308A81092119308F058FE38
:100BE00008B172B6FEE70F210346CDE903144FF4B6
:100BF000805203A82146CDE90532079309F062F837
:100C000008B172B6FEE714B010BD00BF0038024054
:100C10000070004008B54FF6E07002F093FC03F05E
:100C200011F800222021084804F076FA074804F061
:100C300065FA07485E22002104F06EFABDE808401C
:100C40004FF4FC6002F07EBC84D30008B0D30008EF
:100C5000D0D30008F0B59748974CA7B0FFF7C2FD76
:100C600005469648FFF7BEFD01224FF48041064637
:100C7000934806F0C7FD02F0E5FF914800224FF4CB
:100C8000804106F0BFFD05F057FA237813B9012023
:100C900027B0F0BD0021084602F0E2FD4FF4FC60F1
:100CA00002F050FC2378013B092B0ED8DFE813F04B
:100CB000E200E600EA00EE00F200F600FA00FE00B4
:100CC0000A00DE007F4804F019FA227AE3797E49AF
:100CD000CDE90432A37903936379029323790193D5
:100CE000E3780093A378627806A80BF07BFE4FF6BA
:100CF000FF7002F027FC06A804F000FA4FF6E0703F
:100D000002F020FC714804F0F9F94FF6FF7002F090
:100D100019FC206A04F056FB4FF6E07002F012FC5A
:100D20006B4804F0EBF94FF6FF7002F00BFC6089A2
:100D300004F048FB4FF6E07002F004FC654804F054
:100D4000DDF94FF6FF7002F0FDFBE06804F03AFBBE
:100D50004FF6E07002F0F6FB5F4804F0CFF94FF673
:100D6000FF7002F0EFFB206904F02CFB4FF6E070FF
:100D700002F0E8FB594804F0C1F94FF6FF7002F0A9
:100D8000E1FB60692DB236B204F01CFB0EE04B486B
:100D9000FFF712FE78B94748FFF724FD0346AB4240
:100DA000464808D1FFF71EFDB04204D14148FFF785
:100DB00003FE0028EBD03F48FFF7FEFD0028FAD1E4
:100DC0003E48FFF7F9FD0028FAD13A48FFF70AFD3F
:100DD00006463A48FFF706FD00277F2320220097AA
:100DE00005B29F21384602F033FF2021384602F039
:100DF00037FD4FF6E07002F0A5FB394804F07EF9AC
:100E00004FF6FF7002F09EFBA06904F0DBFA4FF68C
:100E1000E07002F097FB334804F070F94FF6FF7072
:100E200002F090FBE06936B204F0CCFA0EE0234801
:100E3000FFF7C2FD78B91F48FFF7D4FC0346B34261
:100E40001E4808D1FFF7CEFC854204D11948FFF7B0
:100E5000B3FD0028EBD017480021FFF7C5FC174869
:100E60000021FFF7C1FC002027B0F0BD1E4804F0B0
:100E700045F92AE71D4804F041F926E71C4804F02B
:100E80003DF922E71B4804F039F91EE71A4804F03F
:100E900035F91AE7194804F031F916E7184804F053
:100EA0002DF912E7174804F029F90EE7164804F067
:100EB00025F90AE7E4010020080500208001002050
:100EC0000008024078D40008A0D40008C4D4000868
:100ED000D4D40008E8D40008F8D4000808D50008E5
:100EE00018D5000828D500088CD40008F4D30008D1
:100EF00004D4000814D4000824D4000834D4000812
:100F000044D4000854D4000864D4000838B5002242
:100F10000C46054612231146204605F035FC228872
:100F20002B6952BA2A80628852BA6A80A28852BA61
:100F30001A80E28852BA5A80228952BA9A8062890B
:100F400052BADA80A28952BA1A81E28952BA5A8117
:100F5000227C1A73627C5A7338BD00BF70B50E468E
:100F600014460546FF23122200213046FFF790FB6E
:100F70000F2005F0BFFF95F9012022702A886270CA
:100F800095F90320A2706A88E2702A6992F901201B
:100F900022712A69128862712A6992F90320A2716A
:100FA0002A695288E2712A6992F9052022722A6917
:100FB000928862722A6992F90720A2722A69D288FD
:100FC000E2722A6992F9092022732A6912896273EE
:100FD0002A6992F90B20A2732A695289E2732A695D
:100FE000127B22742969497B6174304622461223A0
:100FF000BDE870400021FFF7EDBA00BF2DE9F843CE
:101000002D4E2E4F05464FF00A082D48A6F80080B9
:101010000021FFF7E9FB2B4B294800244FF08049C2
:101020006C8021469C63A6F80080FFF7DDFBEC8016
:1010300034802146C9F838402348A7F80080FFF7DC
:10104000D3FB204B2C813C802146DC631C48A6F856
:101050000080FFF7C9FB1D4A2C80652111801848CC
:10106000A6F800802146FFF7BFFB3480AC80214604
:10107000C9F834401448A7F80080FFF7B5FB114BBE
:101080006C813C8012481C6401224FF4005106F030
:10109000B9FB104801224FF4805106F0B3FB0D4814
:1010A0000122042106F0AEFBBDE8F8430948012205
:1010B000802106F0A7BB00BF7C0100207A01002040
:1010C000E40100200004004080010020780100209D
:1010D0000008024000040240F8B5B0F902608F4DEC
:1010E0006E239E4204462B800CD0642E8C4840F325
:1010F000B3806421FFF778FB64264FF47A73894A42
:1011000066809363B4F906606E239E422B800ED0F6
:10111000642E834840F394806421FFF765FB6426C6
:101120004FF47A734FF08042E6802E809363B4F9D7
:1011300008607D4F6E239E423B800CD0642E73DD91
:101140007A486421FFF750FB64264FF47A73754A9E
:1011500026813E80D363B4F900606E239E422B80CB
:101160000AD0642E54DD6E486421FFF73DFB6426EF
:1011700000236F4A26801380B4F904606E239E42D8
:101180002B800DD0642E71DD65486421FFF72CFBA8
:1011900064264FF47A734FF08042A6802E8053630A
:1011A000B4F90A506E239D423B800CD0642D5F48F9
:1011B00022DD6421FFF718FB642540F2E733594A2A
:1011C00065813D801364237B032B08D8DFE803F09F
:1011D000706A025BB4F904105148FFF705FB637BAA
:1011E000002B58D0012B00D0F8BDB4F90A104F489D
:1011F000BDE8F840FFF7F8BA092D00F3858000211B
:10120000FFF7F2FA474A002363813B801364DAE771
:10121000092E71DC42480021FFF7E6FA0022444B18
:10122000228065221A80A7E7092E5DDC3F48002155
:10123000FFF7DAFA3B4A002323813B80D3638AE736
:10124000092E4ADC0021FFF7CFFA4FF0804200233D
:10125000E3802B8093636AE7092E37DC0021FFF7D8
:10126000C3FA304A0023638093634BE7092E25DCE1
:101270002B480021FFF7B8FA4FF080420023A380EB
:101280002B8053638CE7B4F906102548FFF7ACFABE
:10129000637B002BA6D1B4F908102448BDE8F840C0
:1012A000FFF7A2BAB4F902101D48FFF79DFA96E7BE
:1012B000B4F900101A48FFF797FA90E7184831463A
:1012C000FFF792FA06EB86035B0064E73146FFF70F
:1012D0008BFA06EB86035B0011E73146FFF784FAD1
:1012E00006EB86035B001DE710483146FFF77CFAEA
:1012F00006EB86035B002AE709483146FFF774FADC
:10130000C6F164039BB234E72946FFF76DFA0A235E
:101310004FF0FF3215FB032351E700BF7C01002093
:10132000E4010020000400407A0100208001002038
:1013300078010020000000002DE9F04F2DED028B18
:10134000DBB005F0D1FD0BAC00260FADC4E90066A3
:10135000C5E90066C5E902660746A660A68105F0F4
:101360009DFDFFF703FCCDE94A66CDE94C66B04B25
:1013700004964E96186B40F004001863186B00F04A
:101380000400049004990596196BAA4841F0800165
:101390001963196B01F080010591059A0696196B86
:1013A00041F001011963196B01F001010691069AE0
:1013B0000796196B41F0020119631B6B03F00203DE
:1013C000079332464FF4C041079B06F01BFA3246A2
:1013D000994841F2D40106F015FA4FF001084FF494
:1013E000C04394484AA9CDE94A38CDE94C6606F095
:1013F00047F84FF4004203238E484C964AA9CDE9A2
:101400004A2306F03DF8012203238C484C964AA952
:10141000CDE94A2306F034F84FF4FC6200238748F4
:101420004C964AA9CDE94A2306F02AF841F2D403A2
:1014300081484A934AA9CDE94B864D9606F020F89B
:101440004FF4806200237C484C964AA9CDE94A2398
:1014500006F016F87A4B7B487B4A9E6019461E615F
:101460001E7683F82060DE6083F83060C3F81C804D
:10147000C3F814804FF48033C1E900030023084609
:10148000CDE94A66CDE94C66C1E90A2305F044FD81
:1014900008B172B6FEE701234C90012268484AA9C0
:1014A000CDE94A2305F0D0FE034690B96748684A63
:1014B000C0E90233C0E90533C0E90733654BC0E931
:1014C00000234FF48043036106F086FC18B172B626
:1014D000FEE772B6FEE7DFF888A1DFF888914FF4E7
:1014E0008273CAE900934FF40073CAE90200CAE9A3
:1014F0000400CAE90700CAE90900CAF818305046D2
:101500000A23CAF82C3008F041FDF0B9524E3C9045
:1015100003234FF08048CDE94A00CDE94C00CDE9E6
:101520004E00CDE93D00C6E900832E9050903F90DB
:101530002F90B0603061B06140F2E7333046F36025
:1015400009F00CF918B172B6FEE772B6FEE74FF477
:1015500080533CA930463C9309F076FB08B172B643
:10156000FEE7304609F0A8F908B172B6FEE700229E
:1015700000232EA93046CDE92E2309F0B5FC024602
:1015800008B172B6FEE79FED287B02234FF00408F6
:101590004AA930468DED4A7B4C93CDF8388109F04D
:1015A00061FA08B172B6FEE73068836923F0080378
:1015B000836142464AA9304609F054FA08B172B62E
:1015C000FEE7326824489369244E23F40063936154
:1015D00004F0AAF90023DFF890E05093CDE93C3302
:1015E000CDE93E33CDE92E33CDE94A33CDE94C3355
:1015F000CDE94E33B3603361B3610323C6E900E341
:10160000304640F2E733F36009F0A8F808B172B64B
:10161000FEE74FF480583CA93046CDF8F08009F041
:1016200013FB18B372B6FEE760000000F301000080
:10163000003802400008024000040240000002405E
:10164000D0030020002001400100000F780300209B
:1016500000540040A0860100D80200209002002023
:10166000200300200038004000040040304609F00C
:1016700023F908B172B6FEE79FED338B2EA93046F1
:101680008DED2E8B09F030FC08B172B6FEE79FEDB0
:10169000307B4E90022304224AA930468DED4A7BCE
:1016A0004C9309F0DFF908B172B6FEE740F2F3138C
:1016B0004B93082204234AA930464E9309F0D2F9ED
:1016C00008B172B6FEE73168CB6923F00803CB613D
:1016D0000C224AA9304609F0C5F908B172B6FEE7F6
:1016E00031680290CA6922F400623046CA611A4E1B
:1016F00004F01AF905F012F9029B3361CDE94A337F
:10170000CDE94C33CDE93C33C6E90133B361134B2A
:10171000336030464FF6FF73F36009F01FF808B1ED
:1017200072B6FEE74AA93046CDF8288109F08CFA56
:1017300008B172B6FEE730463CA98DED3C8B09F04E
:10174000D3FB68B172B6FEE70000000000000000A5
:101750006000000000000000480200200008004077
:101760000021A648DFF8E0B209F020F90421A348DF
:1017700009F01CF90021A24809F018F90421A04839
:1017800009F014F908219E4809F010F90C219C4831
:1017900009F00CF99B4809F05BF82046FFF72EFC96
:1017A00099494FF4805214A804F0F8F9042296499C
:1017B00021A804F0F3F995499548002604F088F92A
:1017C00041F25C289FED930A012004F091FBCDE9E2
:1017D0000086914A662302213CA804F0E3F940F216
:1017E0004E49CDE900868C4ADFF8608266230221EB
:1017F0002EA804F0D7F99FED890ACDF800800323C5
:10180000324631463CA8CDF8049004F0B5F99FED7E
:10181000840ACDE900890423324631462EA804F01B
:10182000ABF94FF002084FF48073CDE900387D49E1
:101830007D484FF400734FF48062FEF785FFCDF8CA
:1018400004804FF020084023802276497748CDF865
:101850000080FEF779FF74483146FEF7C5FF7348F4
:10186000ABF800603146FEF7BFFF714B6649714827
:10187000009680221E80402300F0CAFB314630468D
:1018800001F02EFD3146304600F0E0FB6A4A334657
:1018900031464FF6E07001F05BFE304601F038FD56
:1018A000FFF7D8F980B102F0CDF94146304601F09A
:1018B000D7FF4FF4784001F045FE604803F01EFC6E
:1018C00041F2883005F016FB00214AA804F0C4FE5E
:1018D0009DF82831FF2B00F083834AA928462C610C
:1018E000FFF714FBB5F90060B5F902804E48D5F852
:1018F00010903146FEF778FF4C48ABF80060414647
:10190000FEF772FF4A4BA3F800804D4908A8FEF786
:1019100055FE0146002800F02E8302F093F94FF4A3
:10192000784001F00FFE47482022142103F0F4FB19
:1019300041F2883005F0DEFA2046FFF7CDFB07F5CF
:10194000FA77FFF767F9002302933B464F46C146FB
:10195000984605F0C9FA804540F2DF823248FFF729
:101960002BF8012840F02E81237B0133DBB2042BBE
:1019700008BF00234FF4C870237305F0BBFA2B484F
:10198000FFF71AF8012863D1637BB3FA83F35B098D
:101990004FF4C870637305F0ADFA227B637B029845
:1019A00043EA8201884213D05AA901EB430301EBB9
:1019B0004202A3F59A73A2F59E72B3F90060B2F9E0
:1019C00000101948FEF710FF18483146FEF70CFFCB
:1019D000237B94F80D90144849EA83095FFA89F350
:1019E0000293FEF7FFFE237B06B2032B00F2338146
:1019F000DFE813F0440260021B021701D802002046
:101A00009002002048020020000402400020014013
:101A1000D0030020CDCC1C40B0E500082F5D08436A
:101A20002F5D094300000240E401002080010020F6
:101A30007A010020200300205CDB000838D5000874
:101A4000780300207CD500087C01002018E60008FF
:101A5000BD48FEF7B1FF02285DD0BB48FEF7ACFFE2
:101A600003289AD14AAA0021122308A8FEF7F4FD00
:101A7000BDF82C31BDF82891BDF82A615BBA3B80D6
:101A8000BDF82E315BBA7B80BDF830315BBABB80CC
:101A9000BDF832315BBAFB80BDF834315BBA3B81B3
:101AA000BDF836315BBA7B819DF838313B739DF8C8
:101AB00039317B732046FFF70FFBA44A00231360E4
:101AC00005F012FA0A2899FA99F976BA06D9284641
:101AD000A5F800906E802F61FEF772FF5021002064
:101AE00001F0BEFE4FF6FF7001F02CFD984803F0A8
:101AF00005FB40F2DC5005F0FDF95021002001F01B
:101B0000AFFE4FF4FC6001F01DFD924803F0F6FAC1
:101B1000FF23029341E70022114612234AA804F052
:101B200033FEBDF82C31BDF82891BDF82A615BBAAF
:101B30003B80BDF82E315BBA7B80BDF830315BBA9B
:101B4000BB80BDF832315BBAFB80BDF834315BBA83
:101B50003B81BDF836315BBA7B819DF838313B73F0
:101B60009DF839317B732046FFF7B6FA774A002398
:101B7000136005F0B9F90A2899FA99F976BA06D9E5
:101B80002846A5F800906E802F61FEF719FF5021BE
:101B9000002001F065FE4FF6FF7001F0D3FC6E48A7
:101BA00003F0ACFA40F2DC5005F0A4F9502100201B
:101BB00001F056FE4FF4FC6001F0C4FC674803F0EE
:101BC0009DFAA5E76648FEF7F7FE022862D0644852
:101BD000FEF7F2FE03287FF4D2AE4AAA08A92846EF
:101BE0002E80A5F802902F61FFF7B8F95021002050
:101BF00001F036FE4FF6FF7001F0A4FC594803F0E7
:101C00007DFA40F2DC5005F075F95021002001F01A
:101C100027FE4FF4FC6001F095FC504803F06EFA8B
:101C2000ADE6BBF900309E4214D0642E30DC092EA4
:101C300002DC9E427BDB0A2631464948FEF7D4FD92
:101C400006EB86024FF080415200E680ABF8006060
:101C500033468A635EB23C48FEF7C4FD617B0FFAEF
:101C600080F9002900F0A88001297FD0374B1A683D
:101C70000A32039205F038F9039A8242BFF469AE42
:101C800028462E80A5F802902F61FEF799FE60E6A7
:101C90006426D1E7002004F071FB0F2005F02AF93B
:101CA00076BA99FA99F3ADF82861ADF82A3197F927
:101CB00001308DF82C313B888DF82D3197F90330A8
:101CC0008DF82E317B888DF82F3197F905308DF8FE
:101CD0003031BB888DF8313197F907308DF83231CA
:101CE000FB888DF8333197F909308DF834313B8911
:101CF0008DF8353197F90B308DF836317B898DF8B9
:101D000037313B7B8DF8383100227B7B8DF83931C0
:101D1000114612234AA804F06DFC5021002001F066
:101D20009FFD4FF6FF7001F00DFC0F4867E70C4870
:101D30000021FEF759FD4FF080420023E380ABF80D
:101D40000030936386E700BF80010020740100200B
:101D50000CD600082CD60008ECD50008B8D5000831
:101D6000E4010020CCD5000898D500089F4BB3F9BA
:101D7000002091451AD0B9F1640F1ADCB9F1090FAE
:101D800003DC91453ADB4FF00A0999484946FEF7D2
:101D90002BFD964B9749A4F80A900A224FF0FF308A
:101DA00019FB0202A3F800900A644A464FFA82F92E
:101DB0005CE74FF06409E8E78C4BB3F900209145EC
:101DC000F4D0B9F1640F16DCB9F1090F03DC9145C9
:101DD0001FDB4FF00A0949468548FEF705FD834B96
:101DE0008449A4F8089009EB89025200A3F80090F6
:101DF000CA634A46DAE74FF06409ECE700217C4801
:101E0000FEF7F2FC7B4B7949002262810A801A645A
:101E1000CCE777480391FEF7E7FC744B03991980F0
:101E2000744B21810A46D963C0E7BBF900309E425A
:101E30003FF410AF642E13DC092E02DC9E4211DB4E
:101E40000A2631466C48FEF7CFFC06EB86024FF0BF
:101E500080415200A680ABF8006033464A63F9E641
:101E60006426EEE764480021FEF7BEFC4FF0804296
:101E70000023A380ABF800305363EBE6BBF90030DE
:101E80009E423FF4E7AE642E12DC092E02DC9E4235
:101E90002CDB0A2658483146FEF7A6FC574A268016
:101EA000C6F164039BB21380ABF800603346D1E601
:101EB0006426EFE7BBF900309E423FF4CBAE642EC0
:101EC00012DC092E02DC9E421CDB0A264A483146FF
:101ED000FEF78AFC474A668006EB86035B00ABF898
:101EE000006093633346B5E66426EFE7002142487D
:101EF000FEF77AFC4149002365222380ABF80030CD
:101F00000A80A7E63C480021FEF76EFC394A002310
:101F10006380ABF8003093639CE604F0E5FF38493A
:101F20008046384803F002FE022114A803F0B6FEF2
:101F30000221A88021A803F0B1FE0022CAE90222F2
:101F4000CAE90422CAE90722CAE909224FF48272C7
:101F5000CAF804204FF40072294BE880CAF8182010
:101F60002848CAF800300A22CAF82C2008F00EF8D7
:101F7000C8B172B6FEE712234AAA08A8FEF76CFBA6
:101F800000287FF4CAAC01F05DFE4FF4FC6001F064
:101F9000D9FA1D482022282103F0BEF84FF4FA7028
:101FA00004F0A8FFC8E4052003F082FF40F6FB011F
:101FB00002B28A42EA810BDC012004F09BFF01217E
:101FC0002EA803F06BFE28812EA803F0F9FDA8814E
:101FD00001213CA803F062FE08F5FA786881BDE4AF
:101FE0004FF00008A14646468FE400BF7A0100206A
:101FF0008001002000040040E4010020780100205E
:1020000000380040200300208CD5000872B6FEE79F
:1020100010B40A4CBDF804C02281C4E900016381F8
:102020000749084A084BA4F80CC0C1E901234FF640
:10203000FF705DF8044B0860704700BF1804002073
:10204000280400205CDB0008081020A02DE9F04FD8
:10205000C44C85B00B4600222189019380466068FC
:1020600005F0D0FBA189002941F01A8161896068DF
:10207000BC4E0022012505F0C5FB218960680022C5
:1020800005F0C0FB0A2320688DF80F502A460DF199
:102090000F0107F0DDFF218960682A4605F0B2FBD9
:1020A000822004F027FF61896068002205F0AAFB06
:1020B00021896068002205F0A5FB112320688DF8B6
:1020C0000F302A460A230DF10F0107F0C1FF2189C5
:1020D00060682A4605F096FB822004F00BFF6189B8
:1020E0006068002205F08EFB21896068002205F0FF
:1020F00089FBB12320688DF80F302A460A230DF1A1
:102100000F0107F0A5FF218960682A4605F07AFBD8
:10211000618960682A4605F075FB218960680022A4
:1021200005F070FB0A2320688DF80F502A460DF148
:102130000F0107F08DFF218960682A4605F062FBD8
:10214000618960682A4605F05DFB2189606800228C
:1021500005F058FB4FF02C090A2320688DF80F90EA
:102160002A460DF10F0107F073FF218960682A46A6
:1021700005F048FB618960682A4605F043FB218928
:102180006068002205F03EFB2D270A2320688DF8A9
:102190000F702A460DF10F0107F05AFF2189606880
:1021A0002A4605F02FFB61896068002205F02AFBB2
:1021B00021896068002205F025FBB22320688DF894
:1021C0000F302A460A230DF10F0107F041FF218944
:1021D00060682A4605F016FB618960682A4605F0AA
:1021E00011FB21896068002205F00CFB0A2320689E
:1021F0008DF80F502A460DF10F0107F029FF2189B4
:1022000060682A4605F0FEFA618960682A4605F092
:10221000F9FA21896068002205F0F4FA0A2320689F
:102220008DF80F902A460DF10F0107F011FF21895B
:1022300060682A4605F0E6FA618960682A4605F07A
:10224000E1FA21896068002205F0DCFA0A2320689F
:102250008DF80F702A460DF10F0107F0F9FE218964
:1022600060682A4605F0CEFA61896068002205F0B0
:10227000C9FA21896068002205F0C4FAB3232068F6
:102280008DF80F302A460A230DF10F0107F0E0FE0A
:10229000218960682A4605F0B5FA618960682A4696
:1022A00005F0B0FA21896068002205F0ABFA0A2334
:1022B00020688DF80F502A460DF10F0107F0C8FE77
:1022C000218960682A4605F09DFA618960682A467E
:1022D00005F098FA21896068002205F093FA0A2334
:1022E00020688DF80F902A460DF10F0107F0B0FE1F
:1022F000218960682A4605F085FA618960682A4666
:1023000005F080FA21896068002205F07BFA0A2333
:1023100020688DF80F702A460DF10F0107F098FE26
:10232000218960682A4605F06DFA618960682A464D
:1023300005F068FA21896068002205F063FA0A2333
:1023400020688DF80F502A460DF10F0107F080FE2E
:10235000218960682A4605F055FA618960682A4635
:1023600002E000BF1804002005F04CFA21896068E3
:10237000002205F047FA0A2320688DF80F902A46BC
:102380000DF10F0107F064FE218960682A4605F00F
:1023900039FA618960682A4605F034FA2189606853
:1023A000002205F02FFA0A2320688DF80F702A46C4
:1023B0000DF10F0107F04CFE218960682A4605F0F7
:1023C00021FA61896068002205F01CFA21896068A1
:1023D000002205F017FAB42320688DF80F302A4642
:1023E0000A230DF10F0107F033FE218960682A46A8
:1023F00005F008FA618960682A4605F003FA218928
:102400006068002205F0FEF9072320688DF80F3080
:102410002A460A230DF10F0107F01AFE2189606890
:102420002A4605F0EFF961896068002205F0EAF9B3
:1024300021896068002205F0E5F9C02320688DF845
:102440000F302A460A230DF10F0107F001FE218902
:1024500060682A4605F0D6F9618960682A4605F069
:10246000D1F921896068002205F0CCF9A223206807
:102470008DF80F302A460A230DF10F0107F0E8FD11
:10248000218960682A4605F0BDF9618960682A469D
:1024900005F0B8F921896068002205F0B3F902233C
:1024A00020688DF80F302A460A230DF10F0107F03E
:1024B000CFFD218960682A4605F0A4F9618960682A
:1024C0002A4605F09FF921896068002205F09AF9F3
:1024D000842320688DF80F302A460A230DF10F015E
:1024E00007F0B6FD218960682A4605F08BF96189FD
:1024F0006068002205F086F921896068002205F0F5
:1025000081F9C12320688DF80F302A460A230DF186
:102510000F0107F09DFD218960682A4605F072F9D8
:10252000618960682A4605F06DF92189606800229A
:1025300005F068F94FF0C50A0A2320688DF80FA04E
:102540002A460DF10F0107F083FD218960682A46B4
:1025500005F058F961896068002205F053F9218976
:102560006068002205F04EF9C22320688DF80F3014
:102570002A460A230DF10F0107F06AFD21896068E0
:102580002A4605F03FF9618960682A464FF00A093A
:1025900005F038F921896068002205F033F94B46CF
:1025A00020688DF80F902A460DF10F0107F050FDBD
:1025B000218960682A4605F025F9618960682A4604
:1025C00005F020F9218960680022002705F01AF93A
:1025D0004B4620688DF80F702A460DF10F0107F069
:1025E00037FD218960682A4605F00CF96189606829
:1025F0003A4605F007F9218960683A4605F002F984
:10260000C32330688DF80F302A464B460DF10F0179
:1026100007F01EFD318970682A4605F0F3F87189CC
:1026200070682A4605F0EEF8318970683A4605F080
:10263000E9F84FF08A0B4B4630688DF80FB02A4608
:102640000DF10F0107F004FD318970682A46344608
:1026500005F0D8F8718970682A4605F0D3F83189F9
:1026600070683A4605F0CEF82A264B462A460DF108
:102670000F0120688DF80F6007F0EAFC218960687F
:102680002A4605F0BFF8618960683A4605F0BAF855
:10269000218960683A4605F0B5F8C4238DF80F30FB
:1026A0002A464B460DF10F01206807F0D1FC218925
:1026B00060682A4605F0A6F8618960682A4605F038
:1026C000A1F8218960683A4605F09CF84B462A46F5
:1026D0000DF10F0120688DF80FB007F0B9FC2189CA
:1026E00060682A4605F08EF8618960682A4605F020
:1026F00089F8218960683A4605F084F8EE238DF860
:102700000F302A464B460DF10F01206807F0A0FC60
:10271000218960682A4605F075F8618960683A4643
:1027200005F070F8218960683A4605F06BF84B4671
:102730002A460DF10F0120688DF80FA007F088FCE4
:10274000218960682A4605F05DF8618960682A463B
:1027500005F058F8218960683A4605F053F80E23D1
:102760008DF80F302A464B460DF10F01206807F017
:102770006FFC218960682A4605F044F86189606829
:102780003A4605F03FF8218960683A4605F03AF884
:1027900020238DF80F302A464B460DF10F0120689B
:1027A00007F056FC218960682A4605F02BF86189FC
:1027B00060683A4605F026F8218960683A4605F0D7
:1027C00021F836238DF80F302A464B460DF10F01C4
:1027D000206807F03DFC218960682A4605F012F860
:1027E000618960682A4605F00DF8218960683A46DB
:1027F00005F008F8C8214B462A468DF80F102068CE
:102800000DF10F0107F024FC218960682A4604F0CD
:10281000F9FF618960683A4604F0F4FF2189606835
:102820003A4604F0EFFF3A238DF80F302A464B4624
:102830000DF10F01206807F00BFC218960682A4622
:1028400004F0E0FF618960682A4604F0DBFF21891B
:1028500060683A4604F0D6FF05238DF80F302A460B
:102860004B460DF10F01206807F0F2FB21896068EB
:102870002A4604F0C7FF618960683A4604F0C2FF47
:10288000218960683A4604F0BDFF4B462A460DF1A7
:102890000F0120688DF80F6007F0DAFB218960686E
:1028A0002A4604F0AFFF618960682A4604F0AAFF57
:1028B000218960683A4604F0A5FF4B462A460DF18F
:1028C0000F0120688DF80F7007F0C2FB2189606846
:1028D0002A4604F097FF618960682A4604F092FF57
:1028E000218960683A4604F08DFF4B462A460DF177
:1028F0000F0120688DF80F7007F0AAFB218960682E
:102900002A4604F07FFF618960682A4604F07AFF56
:10291000218960683A4604F075FF4B462A460DF15E
:102920000F0120688DF80F7007F092FB2189606815
:102930002A4604F067FF60686189B8F1000F00F073
:102940001C842A4604F05EFF218960683A4604F040
:1029500059FF7F238DF80F302A460DF10F012068B3
:102960004B4607F075FB218960682A4604F04AFF50
:1029700061896068002204F045FF218960680022B7
:1029800004F040FF4FF0E00B0A2301220DF10F018C
:1029900020688DF80FB007F05BFB21896068012289
:1029A00004F030FF61896068012204F02BFF218967
:1029B0006068002204F026FF4FF002038DF80F300C
:1029C00001220A230DF10F01206807F041FB218944
:1029D0006068012204F016FF61896068012204F03A
:1029E00011FF21896068002204F00CFF1C238DF880
:1029F0000F3001220A230DF10F01206807F028FB98
:102A000021896068012204F0FDFE6189606801226D
:102A100004F0F8FE21896068002204F0F3FE4FF014
:102A200007090A2301220DF10F0120688DF80F908C
:102A300007F00EFB21896068012204F0E3FE618942
:102A40006068012204F0DEFE21896068002204F043
:102A5000D9FE12238DF80F3001220A230DF10F0148
:102A6000206807F0F5FA21896068012204F0CAFEA7
:102A700061896068012204F0C5FE21896068002236
:102A800004F0C0FE4FF037020A238DF80F200DF13D
:102A90000F010122206807F0DBFA2189606801221A
:102AA00004F0B0FE61896068012204F0ABFE218968
:102AB0006068002204F0A6FE32238DF80F30012258
:102AC0000A230DF10F01206807F0C2FA218960681E
:102AD000012204F097FE61896068012204F092FEF1
:102AE00021896068002204F08DFE29270A23012233
:102AF0000DF10F0120688DF80F7007F0A9FA2189F8
:102B00006068012204F07EFE61896068012204F0A1
:102B100079FE21896068002204F074FE0DF10F0532
:102B20004FF02D010A238DF80F100122294620684D
:102B300007F08EFA21896068012204F063FE618942
:102B40006068012204F05EFE21896068002204F0C2
:102B500059FE0A232946012220688DF80F7007F0DC
:102B600077FA21896068012204F04CFE618960686F
:102B7000012204F047FE21896068002204F042FE31
:102B8000252329468DF80F3001220A23206807F0FB
:102B90005FFA21896068012204F034FE618960686F
:102BA000012204F02FFE21896068002204F02AFE31
:102BB0002B2329468DF80F3001220A23206807F0C5
:102BC00047FA21896068012204F01CFE618960686F
:102BD000012204F017FE21896068002204F012FE31
:102BE000392329468DF80F3001220A23206807F087
:102BF0002FFA21896068012204F004FE618960686F
:102C0000012204F0FFFD218960680022002604F003
:102C1000F9FD0A232946012220688DF80F6007F08C
:102C200017FA21896068012204F0ECFD618960686F
:102C3000012204F0E7FD324621896068012504F095
:102C4000E1FD0DF10F0C61460A232A4620688DF83C
:102C50000F5007F0FDF9218960682A4604F0D2FD83
:102C6000618960682A4604F0CDFD3246218960689A
:102C700004F0C8FD0DF10F0C61460A234FF0030A62
:102C80002A4620688DF80FA007F0E2F921896068D4
:102C90002A4604F0B7FD618960682A4604F0B2FD57
:102CA00032462189606804F0ADFD0DF10F0C4FF044
:102CB000100061460A238DF80F002A46206807F0AD
:102CC000C7F9218960682A4604F09CFD3246618973
:102CD000606804F097FD32462189606804F092FD37
:102CE0000DF10F0C61460A232A4620688DF80FB0BB
:102CF00007F0AEF9218960682A4604F083FD6189F6
:102D000060682A4604F07EFD32462189606804F03E
:102D100079FD0DF10F0C61460A232A4620688DF8D3
:102D20000FA007F095F9218960682A4604F06AFD32
:102D3000618960682A4604F065FD32462189606831
:102D400004F060FD0DF10F0C1D2361468DF80F306E
:102D50002A460A23206807F07BF9218960682A4601
:102D600004F050FD618960682A4604F04BFD32464C
:102D70002189606804F046FD0DF10F0C61460A23BD
:102D80002A4620688DF80F9007F062F92189606863
:102D90002A4604F037FD618960682A4604F032FD56
:102DA00032462189606804F02DFD0DF10F0C0623D9
:102DB00061468DF80F302A460A23206807F048F94B
:102DC000218960682A4604F01DFD618960682A46F1
:102DD00004F018FD32462189606804F013FD0DF1FE
:102DE0000F0C61460A234FF02E092A4620688DF801
:102DF0000F9007F02DF9218960682A4604F002FD42
:102E0000618960682A4604F0FDFC324621896068C9
:102E100004F0F8FC0DF10F0C2C2361468DF80F30F7
:102E20002A460A23206807F013F9218960682A4698
:102E300004F0E8FC618960682A4604F0E3FC32464D
:102E40002189606804F0DEFC0DF10F0C61460A2355
:102E50002A4620688DF80F7007F0FAF8218960681B
:102E60002A4604F0CFFC618960682A4604F0CAFC57
:102E700032462189606804F0C5FC4FF02D010A2319
:102E80008DF80F102A460DF10F01206807F0E0F8C9
:102E9000218960682A4604F0B5FC618960682A4689
:102EA00004F0B0FC32462189606804F0ABFC0A23D0
:102EB0002A460DF10F0120688DF80F9007F0C8F831
:102EC000218960682A4604F09DFC618960682A4671
:102ED00004F098FC32462189606804F093FC0A23D0
:102EE0002A460DF10F0120688DF80F9007F0B0F819
:102EF00021896068DFF8DC932A4604F083FC61894D
:102F000060682A4604F07EFC32462189606804F03D
:102F100079FC4FF037020A238DF80F200DF10F01D5
:102F20002A46206807F094F8218960682A4604F050
:102F300069FC618960682A4604F064FC3246218994
:102F4000606804F05FFC3F238DF80F302A460A23A7
:102F50000DF10F01206807F07BF8218960682A468F
:102F600004F050FC618960682A4604F04BFC32464C
:102F70002189606804F046FC0A232A460DF10F01FE
:102F800020688DF80F6007F063F8218960682A4691
:102F900004F038FC618960682A4604F033FC32464C
:102FA0002189606804F02EFC0A232A460DF10F01E6
:102FB00020688DF80F6007F04BF8218960682A4679
:102FC00004F020FC618960682A4604F01BFC32464C
:102FD0002189606804F016FC4FF002038DF80F3071
:102FE0002A460A230DF10F01206807F031F82189E4
:102FF00060682A4604F006FC618960682A4604F08D
:1030000001FC32462189606804F0FCFB4FF010009F
:103010000A238DF80F002A460DF10F01206807F0F2
:1030200017F8218960682A4604F0ECFB3246618972
:10303000606804F0E7FB32462189606804F0E2FB37
:1030400013238DF80F302A460A230DF10F01206853
:1030500006F0FEFF218960682A4604F0D3FB0A20AF
:1030600003F048FF32466189606804F0CBFB3246CA
:10307000218960688D4E04F0C5FB0A232A460DF1B4
:103080000F0120688DF80F7006F0E2FF218960685B
:10309000874F2A4604F0B6FB822003F02BFF7F23E4
:1030A00033603B80B8F1000F5FD0DFF82CA2C9F885
:1030B0000050CAF800307F4DDFF820822B80019B42
:1030C000C8F800307C4B618960684FF0010B00222A
:1030D00083F800B004F096FB21896068002204F0B8
:1030E00091FB36238DF80F305A460A230DF10F015C
:1030F000206806F0ADFF5A462189606804F082FB23
:103100007F23CAF80030D9F800203B8002B99F2302
:103110003360D8F80060618960682B80012204F078
:1031200071FB21896068002204F06CFB66F03F06A9
:103130000A230DF10F0120688DF80F60012206F0BF
:1031400087FF218960685D4C012204F05BFB5C4ACB
:103150005C485D4B12781B785C49227002705C4AB7
:103160000B70137005B0BDE8F08FDFF86CA1C9F8E3
:1031700000809F23CAF800309DE7012204F042FB43
:1031800021896068424604F03DFB9F238DF80F3093
:103190000DF10F010A232068012206F059FF218951
:1031A0006068012204F02EFB61896068424604F0E9
:1031B00029FB21896068424604F024FB2B238DF80B
:1031C0000F300DF10F010A232068012206F040FFA5
:1031D00021896068012204F015FB61896068012281
:1031E00004F010FB21896068424604F00BFB0A23BF
:1031F0000DF10F0120688DF80F80012206F028FFE5
:1032000021896068012204F0FDFA61896068012269
:1032100004F0F8FA21896068424604F0F3FA0A23C0
:103220000DF10F0120688DF80F80012206F010FFCC
:1032300021896068012204F0E5FA61896068012251
:1032400004F0E0FA21896068424604F0DBFA0A23C0
:103250000DF10F0120688DF80F80012206F0F8FEB5
:1032600021896068012204F0CDFA61896068012239
:1032700004F0C8FA21896068424604F0C3FA7F234B
:103280008DF80F300DF10F0120680A23012206F09E
:10329000DFFE21896068012204F0B4FAFFF768BB01
:1032A0006068012204F0AEFAFEF7E0BE5004002090
:1032B0003604002034040020000000203A040020DE
:1032C0000400002038040020030000203B040020FC
:1032D000390400204C04002054040020480400203D
:1032E000064B1B78012B99BF054A064B064A074B34
:1032F000C0B2C9B210701970704700BF0000002042
:103300000400002003000020020000200100002033
:1033100030B57C4C7C4B618983B0054600226068E7
:103320001D7004F06FFA21896068002204F06AFAC7
:1033300036228DF807200DF1070120680A230122AB
:1033400006F086FE21896068012204F05BFA032DF5
:103350003AD8DFE805F002976A3B6C496C4A7F2354
:103360000B6012686B490B80002A40F0BA806A4BF0
:103370009F221A60694B6A491D680A8060686189EA
:10338000012204F03FFA21896068002204F03AFA31
:1033900065F05F050A2301220DF1070120688DF811
:1033A000075006F055FE01222189606804F02AFAD0
:1033B0005C4A5D4B5D4C5E485E4912781B7822701A
:1033C00002705D4A0B70137003B030BD5249504A11
:1033D0007F230B60126852490B80002A40F08D80D9
:1033E0004A4B9F221A604B494C4B60680A806189A6
:1033F0001D68012204F006FA21896068002204F0A9
:1034000001FA0A2320688DF8075001220DF1070107
:1034100006F01EFE21896068464C012204F0F2F994
:10342000464A474B42484149C7E73849384A7F2313
:103430000B60126837490B80002A5AD1364B9F2205
:103440001A60364B36491D680A806068618901221E
:1034500004F0D8F921896068002204F0D3F945F01E
:1034600060050A2301220DF1070120688DF807503D
:1034700006F0EEFD01222189606804F0C3F9304AAC
:103480002E4B97E72449224A7F230B601268244978
:103490000B8052BB1D4B9F221A60204B1D491D689B
:1034A00060680A806189012204F0ACF921896068B2
:1034B000002204F0A7F965F03F050A2320688DF883
:1034C000075001220DF1070106F0C2FD2189606855
:1034D000184C012204F096F9134A124B1448134970
:1034E0006BE70D491A460B6044E708491A460B6022
:1034F000D3E709491A460B60A3E704491A460B6053
:1035000071E700BF180400200000002050040020D4
:103510004C040020340400205404002048040020FF
:103520003604002003000020040000203B0400209B
:10353000380400203A040020390400200200002052
:1035400001000020014B1880704700BF28040020B4
:1035500010B4084C2370084B59805A6018801178B9
:1035600019725178597291789972D278DA725DF83D
:10357000044B70473C040020280400202DE9F04F44
:10358000944CDFF854A283B0834689466068618911
:10359000904600221F4604F035F921896068002218
:1035A00004F030F92A238DF807300DF107010A23C2
:1035B0002068012206F04CFD21896068012204F098
:1035C00021F961896068012204F01CF92189606891
:1035D0000022002504F016F90A230DF107012068E6
:1035E0008DF80750012206F033FD21896068012221
:1035F00004F008F99AF8006061896068012204F01B
:1036000001F95E44218960682A4604F0FBF8F6B2AD
:103610000A230DF1070120688DF80760012206F0EA
:1036200017FD21896068012204F0ECF86189606867
:10363000012204F0E7F8218960682A4604F0E2F8E4
:103640000A230DF1070120688DF80750012206F0CA
:10365000FFFC21896068012204F0D4F89AF8006028
:1036600061896068012204F0CDF84E4421896068C8
:10367000DFF868912A4604F0C5F8F6B20A230DF186
:10368000070120688DF80760012206F0E1FC21891E
:103690006068012204F0B6F8618960682A4604F087
:1036A000B1F8218960682A4604F0ACF82B238DF824
:1036B00007300DF107010A232068012206F0C8FC3B
:1036C00021896068012204F09DF861896068012207
:1036D00004F098F8218960682A4604F093F80A23D8
:1036E0000DF1070120688DF80750012206F0B0FCAB
:1036F00021896068012204F085F899F800606189E9
:103700006068012204F07EF84644218960682A46F8
:1037100004F078F8F6B20A230DF1070120688DF85D
:103720000760012206F094FC21896068012204F000
:1037300069F861896068012204F064F82189606891
:103740002A4604F05FF80A230DF1070120688DF87E
:103750000750012206F07CFC21896068012204F0F8
:1037600051F899F8006061896068012204F04AF814
:103770003E44218960682A4604F044F8F6B20A23E0
:103780000DF1070120688DF80760012206F060FC4A
:1037900021896068012204F035F8618960682A4651
:1037A00004F030F8218960682A4604F02BF82C20B8
:1037B0000DF107018DF807000A232068012206F0A9
:1037C00047FC21896068012203B0BDE8F04F04F096
:1037D00019B800BF18040020380400203904002064
:1037E00030B51A4D1A4C0B4683B01A492860236035
:1037F00015461A46184B194C09681B68FFF7BEFEA0
:1038000061896068012203F0FDFF21896068002260
:1038100003F0F8FFC5F307218DF8071020680DF1BC
:1038200007010A23012206F013FC0DF107012068AD
:103830008DF807500A23012206F00AFC21896068EE
:10384000012203B0BDE8304003F0DCBF4404002097
:1038500040040020540400205004002018040020DC
:103860002DE9F04F974A984B984CDFF86CA283B043
:103870001060974A1960974BD2F800901F688346F2
:10388000884660686189002203F0BCFF2189606876
:10389000002203F0B7FF2A238DF807300DF107014E
:1038A0000A232068012206F0D3FB218960680122E7
:1038B00003F0A8FF61896068012203F0A3FF21895A
:1038C00060680022002503F09DFF0A230DF1070127
:1038D00020688DF80750012206F0BAFB2189606844
:1038E000012203F08FFF9AF800606189606801226D
:1038F00003F088FF5E44218960682A4603F082FF56
:10390000F6B20A230DF1070120688DF80760012245
:1039100006F09EFB21896068012203F073FF618934
:103920006068012203F06EFF218960682A4603F077
:1039300069FF0A230DF1070120688DF80750012265
:1039400006F086FB21896068012203F05BFF9AF88C
:10395000006061896068012203F054FF4E442189B0
:103960006068DFF878912A4603F04CFFF6B20A232C
:103970000DF1070120688DF80760012206F068FB51
:1039800021896068012203F03DFF618960682A4651
:1039900003F038FF218960682A4603F033FF2B23A8
:1039A0008DF807300DF107010A232068012206F087
:1039B0004FFB21896068012203F024FF6189606860
:1039C000012203F01FFF218960682A4603F01AFFD5
:1039D0000A230DF1070120688DF80750012206F037
:1039E00037FB21896068012203F00CFF99F8006021
:1039F00061896068012203F005FF464421896068FF
:103A00002A4603F0FFFEF6B20A230DF107012068F3
:103A10008DF80760012206F01BFB218960680122F6
:103A200003F0F0FE61896068012203F0EBFE21895A
:103A300060682A4603F0E6FE0A230DF107012068BC
:103A40008DF80750012206F003FB218960680122EE
:103A500003F0D8FE99F8006061896068012203F0E4
:103A6000D1FE3E44218960682A4603F0CBFEF6B2BF
:103A70000A230DF1070120688DF80760012206F086
:103A8000E7FA21896068012203F0BCFE6189606861
:103A90002A4603F0B7FE218960682A4603F0B2FE89
:103AA0002C200DF107018DF807000A232068012260
:103AB00006F0CEFA21896068012203B0BDE8F04F1C
:103AC00003F0A0BE4404002040040020180400209D
:103AD0005404002050040020380400203904002041
:103AE00030B5184C184B24681B6815460A46214609
:103AF000164C83B0FFF742FD61896068012203F034
:103B000081FE21896068002203F07CFEC5F3072155
:103B10008DF8071020680DF107010A23012206F035
:103B200097FA0DF1070120688DF807500A2301224A
:103B300006F08EFA21896068012203B0BDE83040AA
:103B400003F060BE5404002050040020180400203C
:103B5000F0B5394F394E39683368394C002283B09B
:103B600005461046FFF70AFD3B68366861896068C4
:103B70000122164403FB0666B60803F043FE2189C2
:103B80006068002203F03EFE002E4DD0771EC5F384
:103B90000726EDB20A2301220DF1070120688DF8F6
:103BA000076006F055FA0A2301220DF1070120688B
:103BB0008DF8075006F04CFA0A2301220DF1070197
:103BC00020688DF8076006F043FA0A2301220DF100
:103BD000070120688DF8075006F03AFA0A230122FF
:103BE0000DF1070120688DF8076006F031FA0A230D
:103BF00001220DF1070120688DF8075006F028FA20
:103C00000A2301220DF1070120688DF8076006F0F4
:103C10001FFA20688DF807500A2301220DF10701D1
:103C200006F016FA013FB5D221896068012203B07F
:103C3000BDE8F04003F0E6BD54040020500400202D
:103C400018040020014B5888FFF782BF2804002089
:103C50002DE9F0472C4C248882B084420A9F50D929
:103C60002A4D2D8895424CD98C428CBF4E1C661C27
:103C70009D4298BF05F1010A254D5FFA80FC88BF7F
:103C800003F1010AD4B2A6EB0C06AAEB040AFFF773
:103C900075FC69896868012203F0B4FD5FFA8AFA4D
:103CA000298968680022F6B203F0ACFDBAF1000F72
:103CB0001FD0F6B1C7F307284FF00009FFB2002468
:103CC0000A2301220DF1070128688DF807800134CD
:103CD00006F0BEF928688DF807700A2301220DF15D
:103CE000070106F0B5F9A642EAD109F10109CA4572
:103CF000E5D129896868012202B0BDE8F04703F0E8
:103D000081BD02B0BDE8F0873604002034040020F5
:103D1000180400202DE9F04F274B284E284D347A07
:103D20001B88894629681B1B8B420246254B707AEB
:103D300089B00AD2002129601968234E0144196014
:103D40001E494968B14200F01E8220491E68098858
:103D5000091AB14202D200211960296029681E683F
:103D6000164B03919B7AD21AE30813FB00F313FB63
:103D700002F30433E1089DB2002800F00882002716
:103D8000C9B25FFA86F8DFF848A0DFF848B03E46CF
:103D90003C46002900F0E581CDE904452846002293
:103DA000064B5B681F5C039B03EBC204CDE901205B
:103DB000E4B2072516E000BF3604002028040020E6
:103DC000440400204004002088D600083404002069
:103DD0001804002038040020013D01346B1CE4B2BB
:103DE00000F0A08147FA05F3DA07F5D5BAF80A1012
:103DF000DAF80400002203F005FDBAF80810DAF83A
:103E00000400002203F0FEFC2A238DF81F3001225B
:103E10000A230DF11F01DAF8000006F019F9BAF8CB
:103E20000810DAF80400012203F0ECFCBAF80A10DA
:103E3000DAF80400012203F0E5FCBAF80810DAF819
:103E40000400002203F0DEFC0A2301220DF11F0111
:103E5000DAF800008DF81F6006F0FAF8BAF80810DA
:103E6000DAF80400012203F0CDFC9BF80030BAF828
:103E70000A10DAF804002344DBB20122009303F0B5
:103E8000C1FCBAF80810DAF80400002203F0BAFC0A
:103E9000009B8DF81F3001220A230DF11F01DAF873
:103EA000000006F0D5F8BAF80810DAF8040001228C
:103EB00003F0A8FCBAF80A10DAF80400012203F0B3
:103EC000A1FCBAF80810DAF80400002203F09AFC0A
:103ED0000A2301220DF11F01DAF800008DF81F609E
:103EE00006F0B6F8BAF80810DAF80400012203F078
:103EF00089FC9BF80030BAF80A10DAF804000134A3
:103F00002344DBB20122009303F07CFCBAF80810D2
:103F1000DAF80400002203F075FC009B8DF81F30D6
:103F200001220A230DF11F01DAF8000006F090F8D3
:103F3000BAF80810DAF80400012203F063FCBAF8BA
:103F40000A10DAF80400002203F05CFCBAF808104A
:103F5000DAF80400002203F055FC2B238DF81F3003
:103F600001220A230DF11F01DAF8000006F070F8B3
:103F7000BAF80810DAF80400012203F043FCBAF89A
:103F80000A10DAF80400012203F03CFCBAF8081029
:103F9000DAF80400002203F035FC0A2301220DF1B7
:103FA0001F01DAF800008DF81F6006F051F8BAF82A
:103FB0000810DAF80400012203F024FC754BBAF86B
:103FC0000A101B78DAF804004344DBB201220093A4
:103FD00003F018FCBAF80810DAF80400002203F025
:103FE00011FC009B8DF81F3001220A230DF11F01E7
:103FF000DAF8000006F02CF8BAF80810DAF8040035
:10400000012203F0FFFBBAF80A10DAF804000122DB
:1040100003F0F8FBBAF80810DAF80400002203F005
:10402000F1FB0A2301220DF11F01DAF800008DF8DF
:104030001F6006F00DF8BAF80810DAF80400012243
:1040400003F0E0FB534BDAF804001B78012208EB85
:1040500002010B44DBB2BAF80A10009303F0D2FB62
:10406000BAF80810DAF80400002203F0CBFB009B3A
:104070008DF81F3001220A230DF11F01DAF800002C
:1040800005F0E6FFBAF80810DAF80400012203F0A0
:10409000B9FBBAF80A10DAF80400002203F0B2FB08
:1040A000BAF80810DAF80400002203F0ABFB2C2366
:1040B0008DF81F3001220A230DF11F01DAF80000EC
:1040C00005F0C6FFBAF80810DAF80400012203F080
:1040D00099FBBAF80810DAF80400002203F092FB0A
:1040E000BAF80A10DAF80400012203F08BFBC9F3D6
:1040F00007210A2301228DF81F10DAF800000DF1C4
:104100001F0105F0A5FF013D0A23DAF800008DF834
:104110001F900DF11F01012205F09AFF6B1CE4B204
:104120007FF460AEDDE901201B4B1B7A0132D90818
:10413000B2EBD30F00F101000F46FFF631AEDDE91F
:104140000445154B621C5B7A94B22F44A342BDB266
:1041500007D908F10108C9B25FFA88F800297FF48D
:104160001BAEBAF80810DAF80400012203F04AFB8B
:104170000A4A0B4B11681B680022104609B0BDE8C3
:10418000F04FFFF7FBB9196802311960DDE5DFF880
:1041900014A0E6E73904002028040020540400207D
:1041A00050040020180400202DE9F04F534BDFF895
:1041B0006CA1534D9AF808709046524A0E461988E1
:1041C0009AF8093004461068C91B814285B00AD2AA
:1041D0000021116029684C4819442960DAF804105C
:1041E000814200F08680494928680988C91A8142BD
:1041F00002D200212960116010681268013AD119B9
:104200002A682D68013D2B44414DFFF7B7F96989B4
:104210006868012203F0F6FA00222989686803F031
:10422000F1FA9AF808309AF80920DB0813FB02F338
:104230009AF80A20A21A13FB02F2043292B2002B5F
:1042400047D04FF0000BC8F307290192019BDAF821
:1042500004105B449BB20724CF5C0EE08DF80FE0A6
:1042600005F0F6FE28688DF80F600A2301220DF193
:104270000F0105F0EDFE013C20D347FA04FC1CF0D1
:10428000010F2868C6F3072E4FF00A034FF0010212
:104290000DF10F01E2D10A2301220DF10F018DF87A
:1042A0000F9005F0D5FE28688DF80F800A230122B3
:1042B0000DF10F0105F0CCFE013CDED29AF808307A
:1042C0009AF80910DB080BF1010B13FB01F35B45B6
:1042D000BCDC29896868012203F094FA0D4A0E4B70
:1042E00011681B680022104605B0BDE8F04FFFF7CB
:1042F00045B929680231296075E700BF36040020FE
:10430000400400204404002088D600083404002023
:104310001804002054040020500400202804002029
:104320002DE9F04F91B01FFA82F984B29BB20C9440
:104330001FFA81FAA9EB0404A3EB0A0B0FFA84FE1F
:104340000FFA8BFCBEF1000F1A9D07460A461FFAB2
:104350008BF8664640F0A081BCF1000F00F0998315
:10436000AAEB0303C0F29E8313FA83F41EB2A3B236
:104370000B93C5F307230493EBB205930123714616
:1043800000B217B208930B4B02930B4B03930B4BEA
:1043900000934FF000090A4B0A4C01930DF13F05C1
:1043A000C846CDF834A0CDF824C00C91CDF828E053
:1043B000079017E054040020500400203804002027
:1043C00039040020180400200B9A0C991344079A12
:1043D0000A441EB213B20793099B09F101094B4528
:1043E00000F04F81029B6189D3F800B0039B6068A5
:1043F0001B680693002203F005FA218960680022F9
:1044000003F000FA2A238DF83F3001220A232946BF
:10441000206805F01DFE21896068012203F0F2F991
:1044200061896068012203F0EDF92189606800224A
:1044300003F0E8F90A230122294620688DF83F801D
:1044400005F006FE21896068012203F0DBF9009B7C
:1044500007981B7861890344012260685FFA83FA38
:1044600003F0D0F921896068002203F0CBF90A2318
:104470000122294620688DF83FA005F0E9FD218939
:104480006068012203F0BEF961896068012203F0CF
:10449000B9F921896068002203F0B4F90A230122E6
:1044A000294620688DF83F8005F0D2FD218960689B
:1044B000012203F0A7F9009B61891B786068012243
:1044C0009B4403F09FF921896068002203F09AF968
:1044D0005FFA8BFB0A230122294620688DF83FB042
:1044E00005F0B6FD21896068012203F08BF961892E
:1044F0006068002203F086F921896068002203F0D9
:1045000081F92B238DF83F3001220A2329462068A8
:1045100005F09EFD21896068012203F073F961892D
:104520006068012203F06EF921896068002203F0BF
:1045300069F90A230122294620688DF83F8005F099
:1045400087FD21896068012203F05CF9019B618984
:1045500093F800B06068012203F054F9BB4421894C
:104560006068002203F04EF95FFA8BFB0A230122F8
:10457000294620688DF83FB005F06AFD2189606802
:10458000012203F03FF961896068012203F03AF9E2
:1045900021896068002203F035F90A2301222946A7
:1045A00020688DF83F8005F053FD21896068012265
:1045B00003F028F9019B06991B78606803EB010A58
:1045C0000122618903F01EF921896068002203F04D
:1045D00019F95FFA8AFA0A230122294620688DF820
:1045E0003FA005F035FD21896068012203F00AF93A
:1045F00061896068002203F005F921896068002262
:1046000003F000F92C238DF83F3001220A232946BC
:10461000206805F01DFD21896068012203F0F2F891
:1046200061896068012203F0EDF821896068002249
:1046300003F0E8F8049B8DF83F3001220A23294655
:10464000206805F005FD059B8DF83F3001220A2307
:104650002946206805F0FCFC21896068012203F0EE
:10466000D1F8089B002E1F443FB2B3B2BFF6ACAEE8
:104670000A9A13441EB2099B09F101094B457FF4C4
:10468000B1AE0899DDF834A007985A1E0AEB010371
:1046900012FB013217B2AEE180F201820C99A1EB5C
:1046A00009091FFA89F40FFA89FE4FF0FF31002E35
:1046B000C0F2CC810123E6450893C0F2D3814FEAD2
:1046C00048081FFA88FCACEB0406341BA3B20D9318
:1046D000C5F307230493BEF1000FEBB238B236B234
:1046E00017B2059340F3EA810B4B02930B4B0393F4
:1046F0000B4B009389B20B4B07974FF000090A4C04
:1047000001930DF13F05C846CDF824E0CDF82CC04B
:1047100007460A9118E000BF54040020500400200E
:10472000380400203904002018040020DDE90721A6
:104730000D980A4403441EB213B20793099B09F172
:1047400001094B4500F04F81029B6189D3F800B00D
:10475000039B60681B680693002203F053F82189CD
:104760006068002203F04EF82A238DF83F300122C2
:104770000A232946206805F06BFC21896068012224
:1047800003F040F861896068012203F03BF8218959
:104790006068002203F036F80A23012229462068C7
:1047A0008DF83F8005F054FC21896068012203F0F8
:1047B00029F8009B61891B7860683B4401225FFAFD
:1047C00083FA03F01FF821896068002203F01AF8C9
:1047D0000A230122294620688DF83FA005F038FC05
:1047E00021896068012203F00DF861896068012267
:1047F00003F008F821896068002203F003F80A2317
:104800000122294620688DF83F8005F021FC21898E
:104810006068012202F0F6FF009B61891B786068E6
:1048200001229B4402F0EEFF21896068002202F021
:10483000E9FF5FFA8BFB0A230122294620688DF8E5
:104840003FB005F005FC21896068012202F0DAFF23
:1048500061896068002202F0D5FF2189606800222A
:1048600002F0D0FF2B238DF83F3001220A23294686
:10487000206805F0EDFB21896068012202F0C2FF8B
:1048800061896068012202F0BDFF21896068002211
:1048900002F0B8FF0A230122294620688DF83F80E4
:1048A00005F0D6FB21896068012202F0ABFF019B75
:1048B000079993F800B0606801228B44618902F087
:1048C000A1FF21896068002202F09CFF5FFA8BFB48
:1048D0000A230122294620688DF83FB005F0B8FB75
:1048E00021896068012202F08DFF618960680122E0
:1048F00002F088FF21896068002202F083FF0A230A
:104900000122294620688DF83F8005F0A1FB21890E
:104910006068012202F076FF019B06981B7861898E
:1049200003EB000A0122606802F06CFF21896068D5
:10493000002202F067FF5FFA8AFA0A230122294661
:1049400020688DF83FA005F083FB21896068012273
:1049500002F058FF61896068002202F053FF21894C
:104960006068002202F04EFF2C238DF83F300122B8
:104970000A232946206805F06BFB21896068012223
:1049800002F040FF61896068012202F03BFF21894B
:104990006068002202F036FF049B8DF83F30012250
:1049A0000A232946206805F053FB059B8DF83F300C
:1049B00001220A232946206805F04AFB2189606804
:1049C000012202F01FFF0A9B002E1F443FB2B3B228
:1049D000BFF6ACAE0B9A13441EB2099B09F1010954
:1049E0004B457FF4B1AE0A99079F581E0C9B0B44B0
:1049F00010FB013000B2029B1968039B3A461B680A
:104A0000FEF7BCFD61896068012202F0FBFE21898E
:104A10006068002202F0F6FE049A8DF83F202946D5
:104A200020680A23012205F013FB05988DF83F004A
:104A3000294620680A23012205F00AFB21896068C3
:104A4000012211B0BDE8F04F02F0DCBEAAEB030377
:104A50000FFA83FC1FFA83F8E6454FF6FF730893BD
:104A6000BFF62DAE64001FFA84FEAEEB0806A6EB7F
:104A700008081FFA88F30B93C5F307230493BCF1CE
:104A8000000FEBB238B236B217B205933FF77BACEA
:104A900014E02A4611B0BDE8F04FFFF721B8A4B2E8
:104AA000012104E60FFA83FCBCF1000F0EDCC5F314
:104AB00007230493EBB200B20FB205930B4B0293A2
:104AC0000B4B0C4C03930DF13F0594E7D8441FFAB0
:104AD00088F30B93C5F307230493EBB205934FF6CA
:104AE000FF73714600B217B208934CE454040020DF
:104AF00050040020180400202DE9F04F87B0550025
:104B0000DFF838A14C4F0293164680468946C5F11E
:104B10000305002409E0A31B013E013405EB8303D8
:104B2000A64203F10A05C0F2848009EB0603049350
:104B3000A9EB0603039308EB06030093A8EB060317
:104B40000193BAF8002004EB080B5A4515D93B88AD
:104B50000499994208D2029A5846FEF741FEBAF8E3
:104B600000205A4509D93B8803998B4205D9029AFE
:104B70005846FEF735FEBAF80020A8EB040B934523
:104B800015D23B880499994208D2029A5846FEF7FA
:104B900027FEBAF800205A4509D93B8803998B4271
:104BA00005D9029A5846FEF71BFEBAF80020009875
:104BB000904209EB0403A9EB040B19D239889942FE
:104BC0000BD9029A05931946FEF70AFEBAF800209F
:104BD0000098059B90420BD23988594508D9029A12
:104BE000009805935946FEF7FBFDBAF80020059B97
:104BF0000198904213D23A889A4209D91946029AEA
:104C0000FEF7EEFDBAF800300198984207D23A88D4
:104C10005A4504D9DDE901025946FEF7E1FD002DB0
:104C2000BFF679AF05EB84050134B44205F1060502
:104C300087DD07B0BDE8F08F340400203604002083
:104C40002DE9F04F154687B0804689461E46C2F1D1
:104C50000107002404E0A24203F105073BDB1546EF
:104C600005EB0903059305EB0803A9EB050BA8EB7E
:104C7000050A0293059B0096A8EB040008EB0402CA
:104C8000194604920390FFF74BFB049A0398009691
:104C90005B465946FFF744FB04EB09031946029AA9
:104CA00000965046FFF73CFBA9EB04031946029A15
:104CB00000965046FFF734FB631B002F04F10104FC
:104CC00005F1FF3207EB430307EB4401C3DAA542CA
:104CD00001F10107CEDA07B0BDE8F08F2DE9F04F02
:104CE00083B004468B46FBF77BFA002836D0DFF80A
:104CF000D081704FDFF8CC91064600252078D0286F
:104D000033D0D12857D0C22809BF6078013406F1CA
:104D1000FF3602340A2824D00D2834D0F82802D0D7
:104D2000B02840F0A580D8F80030D7F800A0D8F817
:104D300000003968019302225B4603300531FFF71A
:104D4000DBFE1FFA8AF33B60019A99F8083013FAE8
:104D500082F3C8F800300135B542CFDB03B0BDE8BF
:104D6000F08F0023C8F80030F5E76078842804F15C
:104D7000020406F1FF3653D087283ED0812828D080
:104D80001138C0B2C6E73A6899F8093099F80810A6
:104D90001344494A3B6013883A685B1A93423CBF0C
:104DA00000233B60D9F80420444B9A42D3D13B689E
:104DB00002333B60CFE76078942804F1020406F1E7
:104DC000FF364BD097283FD0912833D02F30C0B238
:104DD000A0E7DFF8F0A0394BDAF804209A424FF050
:104DE000C30013D05946FEF795FFD8F800209AF873
:104DF00008301344C8F80030ADE7DFF8C8A02F4BE7
:104E0000DAF804209A424FF0C200EBD15946FEF77F
:104E100081FF2B4A9AF8083011680B4413609AE717
:104E2000DFF8A0A0254BDAF804209A424FF0C10029
:104E3000D8D1EBE7DFF88CA0204BDAF804209A42B7
:104E40004FF0C400CED1E1E7DFF878A01B4BDAF8D1
:104E500004209A424FF0C000C4D1D7E7DFF864A025
:104E6000164BDAF804209A424FF0BF00BAD1CDE7D2
:104E7000DFF850A0114BDAF804209A42B2D12E2864
:104E800015D1DFF83CA00B4ADAF800300233CAF83B
:104E90000030DAF8000011685B4627310222FFF784
:104EA000CFFEDAF800300433CAF8003053E72C287C
:104EB000E7D0ABE7400400203404002088D6000887
:104EC00044040020280400202DE9F04F85B090F81C
:104ED00000A00192BAF1000F2ED00446013088469E
:104EE000FBF77EF9804FDFF810B2461C00255046D4
:104EF000D02824D0D12853D0C22860D001340A2829
:104F00002ED00D2834D0F82860D0DFF8EC91774B04
:104F1000D9F804209A4200F0CB80A246019A41467B
:104F2000FFF742F9724999F808300A6801351344CD
:104F3000B54254460B6019DB05B0BDE8F08F6078D0
:104F4000842804F1020A06F1FF3600F085808728E4
:104F500077D081285FD01138C0B20A285446D0D10A
:104F6000634A002313600135B542E5DA2078BFE7D4
:104F70003A689BF809309BF8081013443B605D4B7E
:104F80003A681B885B1A93423CBF00233B60DBF806
:104F90000420564B9A42E6D13B6802333B60E2E77D
:104FA0006078942804F1020A06F1FF3675D097283C
:104FB00068D091285BD02F30C0B254469FE760780C
:104FC000B02806F1FF3604F1020498D1DFF82091F1
:104FD000DFF814A1D9F80030019A02934146DAF8BB
:104FE000003003932020FFF7DFF8D9F80000DAF84B
:104FF00000100222434603300531FFF77DFDBDF866
:105000000C30CAF800303C4B029A1B7A13FA82F338
:10501000C9F80030A7E7DFF8E090344BD9F8042056
:105020009A424FF0C3007FF479AF019A4146FFF7EF
:10503000BBF82F4A99F8083011680B4454461360A6
:1050400091E7DFF8B490294BD9F804209A424FF049
:10505000C2007FF463AFE8E7DFF89C90234BD9F8F8
:1050600004209A424FF0C1007FF458AFDDE7DFF82B
:1050700088901E4BD9F804209A424FF0C4007FF468
:105080004DAFD2E7DFF87090184BD9F804209A4260
:105090004FF0C0007FF442AFC7E7DFF85C90134BDE
:1050A000D9F804209A424FF0BF007FF437AFBCE735
:1050B00000F0FD032C2B15D1DFF834900A4AD9F803
:1050C00000300233C9F80030D9F8000011684346B7
:1050D00027310222FFF7B4FDD9F800300433C9F8B4
:1050E000003040E7A246A0E74004002088D6000830
:1050F000440400203404002028040020044A054B06
:10510000127819880AB1FFF7E9BD5A88FFF7DCBEAB
:105110003C040020280400202DE9F04FA04BA14CB6
:10512000DFF898B283B0924621609F4C1A609F4A84
:105130009F4BD2F80090D3F800800E460022618980
:105140000746606802F05EFB21896068002202F079
:1051500059FB2A238DF8073001220A230DF107019C
:10516000206804F075FF21896068012202F04AFB83
:1051700061896068012202F045FB21896068002294
:10518000002502F03FFB0A2301220DF107012068F0
:105190008DF8075004F05CFF21896068012202F05D
:1051A00031FB9BF800306189606801221E4402F0E7
:1051B00029FB218960682A4602F024FBF6B20A2303
:1051C00001220DF1070120688DF8076004F040FF0F
:1051D00021896068012202F015FB61896068012263
:1051E00002F010FB218960682A4602F00BFB0A23BB
:1051F00001220DF1070120688DF8075004F028FF07
:1052000021896068012202F0FDFA9BF80060618943
:105210006068012202F0F6FA4E4421896068DFF8E6
:10522000A0912A4602F0EEFAF6B20A2301220DF10D
:10523000070120688DF8076004F00AFF2189606883
:10524000012202F0DFFA618960682A4602F0DAFA88
:10525000218960682A4602F0D5FA2B238DF80730A1
:1052600001220A230DF10701206804F0F1FE2189D3
:105270006068012202F0C6FA61896068012202F0CA
:10528000C1FA218960682A4602F0BCFA0A23012289
:105290000DF1070120688DF8075004F0D9FE21892F
:1052A0006068012202F0AEFA99F8006061896068D6
:1052B000012202F0A7FA5644218960682A4602F0CA
:1052C000A1FAF6B20A2301220DF1070120688DF838
:1052D000076004F0BDFE21896068012202F092FAA5
:1052E00061896068012202F08DFA218960682A468E
:1052F00002F088FA0A2301220DF1070120688DF8D7
:10530000075004F0A5FE21896068012202F07AFAB4
:1053100099F8006061896068012202F073FA4644DE
:10532000218960682A4602F06DFAF6B20A2301224A
:105330000DF1070120688DF8076004F089FE2189CE
:105340006068012202F05EFA618960682A4602F014
:1053500059FA218960682A4602F054FA2C220A235D
:105360000DF107018DF807202068012204F070FE7E
:1053700021896068012202F045FA0E4A0E4B12782C
:1053800019882AB1384603B0BDE8F04FFFF7A6BC34
:105390005A88384603B0BDE8F04FFFF795BD00BF0F
:1053A000400400204404002018040020540400207D
:1053B000500400203C040020280400203804002071
:1053C000390400202DE9F041002886B046DB002496
:1053D000012122460928C8BF4FF00A0C25DD0CEB3D
:1053E0008C03B0EB430F4FEA430CF8D21F4FBCF1D4
:1053F000130FA7FB0C534FEAD30316D9B0FBF3FEF0
:105400000DEB02059C4611460EF130060132A7FB5A
:105410000384BCF1130F03FB1E002E71D2B24FEABE
:10542000D403EBD802311446C9B2114D114A2D787C
:105430000DEB01036C4430300026207111881E7181
:105440002DB101A8FFF74AFC06B0BDE8F0815288F3
:1054500001A8FFF739FD06B0BDE8F0812D23012436
:1054600040428DF8043002212246B3E7CDCCCCCCAB
:105470003C040020280400202DE9F04F9A4B9B4C5F
:10548000DFF878B283B092462160994C1A60994A4D
:10549000994BD2F80090D3F8008007460E4660681A
:1054A0006189002202F0AEF921896068002202F0D1
:1054B000A9F92A238DF807300DF107010A23206886
:1054C000012204F0C5FD21896068012202F09AF9E9
:1054D00061896068012202F095F9218960680022E3
:1054E000002502F08FF90A230DF1070120688DF8DD
:1054F0000750012204F0ACFD21896068012202F00E
:1055000081F99BF800306189606801221E4402F035
:1055100079F9218960682A4602F074F9F6B20A2303
:105520000DF1070120688DF80760012204F090FD5D
:1055300021896068012202F065F9618960680122B1
:1055400002F060F9218960682A4602F05BF90A23BB
:105550000DF1070120688DF80750012204F078FD55
:1055600021896068012202F04DF99BF80060618991
:105570006068012202F046F94E4421896068DFF834
:1055800080912A4602F03EF9F6B20A230DF1070196
:1055900020688DF80760012204F05AFD21896068B7
:1055A000012202F02FF9618960682A4602F02AF987
:1055B000218960682A4602F025F92B238DF80730EF
:1055C0000DF107010A232068012204F041FD218921
:1055D0006068012202F016F961896068012202F018
:1055E00011F9218960682A4602F00CF90A230DF1AD
:1055F000070120688DF80750012204F029FD218958
:105600006068012202F0FEF899F800606189606824
:10561000012202F0F7F85644218960682A4602F018
:10562000F1F8F6B20A230DF1070120688DF8076042
:10563000012204F00DFD21896068012202F0E2F8E8
:1056400061896068012202F0DDF8218960682A46DC
:1056500002F0D8F80A230DF1070120688DF80750F1
:10566000012204F0F5FC21896068012202F0CAF8E9
:1056700099F8006061896068012202F0C3F846442D
:10568000218960682A4602F0BDF8F6B20A230DF1BE
:10569000070120688DF80760012204F0D9FC2189F8
:1056A0006068012202F0AEF8618960682A4602F063
:1056B000A9F8218960682A4602F0A4F82C220A235E
:1056C0000DF107018DF807202068012204F0C0FCCD
:1056D00060682189012202F095F8384603B0BDE8E0
:1056E000F04FFFF76FBE00BF4004002044040020CD
:1056F0001804002054040020500400203804002026
:105700003904002082B00C4B002100915A6C42F405
:1057100080425A645A6C02F480420092009A0191CD
:105720001A6C42F080521A641B6C03F08053019390
:10573000019B02B0704700BF00380240000000002B
:1057400000B5194A016889B000239142CDE90233BE
:10575000CDE90433069301D009B000BD02F58C32C7
:105760000093506C40F480705064506C00F4807072
:10577000009000980193136B0C4843F001031363EE
:10578000136B9FED077B03F00103019302A98DEDDD
:10579000027B019B01F074FE09B000BDAFF30080F5
:1057A0001E00000003000000002001400000024035
:1057B00030B5184B026889B000249A42CDE9024402
:1057C000CDE90444069401D009B030BD124D0094D7
:1057D0002B6B43F002032B632B6B03F0020300934C
:1057E0004FF440721223CDE9022300980B480322A4
:1057F000042302A9CDE9052301F042FE01942B6C9C
:1058000043F400132B642B6C03F400130193019BEE
:1058100009B030BD0054004000380240000402408E
:1058200010B51B4A016888B000239142CDE90233CC
:10583000CDE90433069301D008B010BD02F5003263
:105840000093106C40F480401064106C00F48040B1
:10585000009000980193136B0E4843F0020313630A
:10586000136B9FED097B03F00203019303220523D1
:1058700002A98DED027BCDE90523019C01F000FE1C
:1058800008B010BDAFF3008000E00000020000008F
:10589000003800400004024000B50368B3F1804FB7
:1058A00085B015D01D4A934204D01D4A93421ED0A4
:1058B00005B000BD1B4B002202921A6C42F002029E
:1058C0001A641B6C03F002030293029B05B000BD37
:1058D00003F50E33002201921A6C42F001021A64A1
:1058E0001B6C03F001030193019B05B000BD0D4B40
:1058F00000220392196C41F0040119641B6C03F03F
:105900000403039301211E20039B01F057FD1E2079
:1059100005B05DF804EB01F08BBD00BF0004004052
:10592000000800400038024030B503688BB0002406
:10593000B3F1804FCDE90444CDE90644089404D086
:10594000244A93422FD00BB030BD03F50E3301949F
:105950001A6B214842F001021A631A6B02F001022D
:105960000192019A02941A6B42F002021A631B6BB5
:1059700003F0020302934FF40042012504A902231D
:10598000CDE904230895029B01F07AFD0822022349
:105990001248089504A9CDE90423CDE9064401F095
:1059A0006FFD0BB030BD0E4B03941A6B0B4842F0E9
:1059B00002021A631B6B03F00203039323240223E6
:1059C000022504A9CDE90445039A089301F058FD86
:1059D0000BB030BD00040040000002400004024053
:1059E00000380240FEE700BFFEE700BFFEE700BF51
:1059F000FEE700BFFEE700BF704700BF704700BF73
:105A0000704700BF08B50548FAF7C4FF0448FAF725
:105A1000C1FFBDE8084001F05BBA00BFE40100200F
:105A20008001002008B5124A13780133DBB2642BE1
:105A300013700DD90F490023098813700E480022F6
:105A4000102101F0DFFEBDE808400C4805F0B0B9B8
:105A5000084A128892B29342F0D9074801221021D5
:105A600001F0D0FEBDE80840044805F0A1B900BF30
:105A70005804002078010020000402404802002061
:105A8000014802F0AFBF00BF2C1400200C490D4AA2
:105A90000B6810B50C4C121B2BB11844904207D860
:105AA0000860184610BD094B0B6018449042F7D9A6
:105AB00006F0C2FF0C2303604FF0FF33184610BD01
:105AC0005C0400200000012000040000601A002097
:105AD00038B5154C0D464822014604F1580006F031
