:020000040800F2
:100000000050002071690008895A00088D5A0008C4
:10001000915A0008955A0008995A000800000000FB
:100020000000000000000000000000009D5A0008D1
:10003000A15A000800000000A55A0008A95A0008AB
:10004000B9690008B9690008B9690008B969000808
:10005000B9690008B9690008B9690008B9690008F8
:10006000B9690008B9690008B9690008B9690008E8
:10007000B9690008B9690008B9690008B9690008D8
:10008000B9690008B9690008B9690008B9690008C8
:10009000B9690008B9690008B9690008B9690008B8
:1000A000B9690008B9690008B9690008B9690008A8
:1000B000B9690008B9690008C95A0008B969000897
:1000C000B9690008B9690008B9690008B969000888
:1000D000B9690008B9690008B9690008B969000878
:1000E000B9690008B9690008B96900080000000092
:1000F0000000000000000000000000000000000000
:0C01000000000000000000005FF808F1A3
:10010C0010B5054C237833B9044B13B10448AFF345
:10011C0000800123237010BD680000200000000047
:10012C0078A4000808B5034B1BB103490348AFF38F
:10013C00008008BD000000006C00002078A40008BE
:10014C00034613F8012B002AFBD1181A013870470B
:10015C0080F0004002E000BF81F0004142001FBF70
:10016C005FEA410392EA030F7FEA226C7FEA236C79
:10017C006AD04FEA1262D2EB1363C1BFD21841406E
:10018C0048404140B8BF5B42192B88BF704710F004
:10019C00004F40F4000020F07F4018BF404211F0A7
:1001AC00004F41F4000121F07F4118BF494292EA0F
:1001BC00030F3FD0A2F1010241FA03FC10EB0C003B
:1001CC00C3F1200301FA03F100F0004302D54942C8
:1001DC0060EB4000B0F5000F13D3B0F1807F06D375
:1001EC0040084FEA310102F10102FE2A51D2B1F16D
:1001FC00004F40EBC25008BF20F0010040EA030062
:10020C007047490040EB0000013A28BFB0F5000FE1
:10021C00EDD2B0FA80FCACF1080CB2EB0C0200FA97
:10022C000CF0AABF00EBC25052421843BCBFD040E6
:10023C001843704792F0000F81F4000106BF80F460
:10024C0000000132013BB5E74FEA41037FEA226C23
:10025C0018BF7FEA236C21D092EA030F04D092F0EE
:10026C00000F08BF0846704790EA010F1CBF002022
:10027C00704712F07F4F04D1400028BF40F000407F
:10028C00704712F100723CBF00F50000704700F09F
:10029C00004343F0FE4040F4000070477FEA2262C6
:1002AC0016BF08467FEA23630146420206BF5FEA97
:1002BC00412390EA010F40F4800070474FF0000397
:1002CC0004E000BF10F0004348BF40425FEA000C5E
:1002DC0008BF704743F0964301464FF000001CE006
:1002EC0050EA010208BF70474FF000030AE000BF5C
:1002FC0050EA010208BF704711F0004302D540429A
:10030C0061EB41015FEA010C02BF8446014600200B
:10031C0043F0B64308BFA3F18053A3F50003BCFA26
:10032C008CF2083AA3EBC25310DB01FA02FC6344D3
:10033C0000FA02FCC2F12002BCF1004F20FA02F2DA
:10034C0043EB020008BF20F00100704702F12002CD
:10035C0001FA02FCC2F1200250EA4C0021FA02F22E
:10036C0043EB020008BF20EADC7070474FF0FF0C33
:10037C001CEAD0521EBF1CEAD15392EA0C0F93EA2E
:10038C000C0F6FD01A4480EA010C400218BF5FEAD0
:10039C0041211ED04FF0006343EA501043EA511143
:1003AC00A0FB01310CF00040B1F5000F3EBF49003D
:1003BC0041EAD3715B0040EA010062F17F02FD2A41
:1003CC001DD8B3F1004F40EBC25008BF20F0010024
:1003DC00704790F0000F0CF0004C08BF49024CEA3B
:1003EC00502040EA51207F3AC2BFD2F1FF0340EACD
:1003FC00C250704740F400004FF00003013A5DDC3E
:10040C0012F1190FDCBF00F000407047C2F100027E
:10041C00410021FA02F1C2F1200200FA02FC5FEA6B
:10042C00310040F1000053EA4C0308BF20EADC70B5
:10043C00704792F0000F00F0004C02BF400010F427
:10044C00000F013AF9D040EA0C0093F0000F01F0D4
:10045C00004C02BF490011F4000F013BF9D041EAF6
:10046C000C018FE70CEAD15392EA0C0F18BF93EAF8
:10047C000C0F0AD030F0004C18BF31F0004CD8D122
:10048C0080EA010000F00040704790F0000F17BFA9
:10049C0090F0004F084691F0000F91F0004F14D0EF
:1004AC0092EA0C0F01D142020FD193EA0C0F03D147
:1004BC004B0218BF084608D180EA010000F000404A
:1004CC0040F0FE4040F40000704740F0FE4040F425
:1004DC00400070474FF0FF0C1CEAD0521EBF1CEAC4
:1004EC00D15392EA0C0F93EA0C0F69D0A2EB0302E2
:1004FC0080EA010C49024FEA402037D04FF080537C
:10050C0043EA111143EA10130CF000408B4238BF40
:10051C005B0042F17D024FF4000C8B4224BF5B1A4E
:10052C0040EA0C00B3EB510F24BFA3EB510340EA9C
:10053C005C00B3EB910F24BFA3EB910340EA9C004A
:10054C00B3EBD10F24BFA3EBD10340EADC001B01BA
:10055C0018BF5FEA1C1CE0D1FD2A3FF650AF8B425E
:10056C0040EBC25008BF20F0010070470CF0004C6B
:10057C004CEA50207F32C2BFD2F1FF0340EAC25096
:10058C00704740F400004FF00003013A37E792F057
:10059C00000F00F0004C02BF400010F4000F013AB5
:1005AC00F9D040EA0C0093F0000F01F0004C02BFB0
:1005BC00490011F4000F013BF9D041EA0C0195E719
:1005CC000CEAD15392EA0C0F08D142027FF47DAFB2
:1005DC0093EA0C0F7FF470AF084676E793EA0C0FA2
:1005EC0004D14B023FF44CAF08466EE730F0004CA0
:1005FC0018BF31F0004CCAD130F000427FF45CAF30
:10060C0031F000437FF43CAF5FE700BF4FF0FF3C9D
:10061C0006E000BF4FF0010C02E000BF4FF0010CF0
:10062C004DF804CD4FEA40024FEA41037FEA226CB9
:10063C0018BF7FEA236C11D001B052EA530C18BFDB
:10064C0090EA010F58BFB2EB030088BFC81738BF40
:10065C006FEAE17018BF40F0010070477FEA226C2E
:10066C0002D15FEA402C05D17FEA236CE4D15FEA2A
:10067C00412CE1D05DF8040B704700BF844608465E
:10068C006146FFE70FB5FFF7C9FF002848BF10F11F
:10069C00000F0FBD4DF808EDFFF7F4FF0CBF012064
:1006AC0000205DF808FB00BF4DF808EDFFF7EAFFEE
:1006BC0034BF012000205DF808FB00BF4DF808EDA9
:1006CC00FFF7E0FF94BF012000205DF808FB00BF9E
:1006DC004DF808EDFFF7D2FF94BF012000205DF824
:1006EC0008FB00BF4DF808EDFFF7C8FF34BF012031
:1006FC0000205DF808FB00BF42000ED2B2F1FE4FA5
:10070C000BD34FF09E03B3EB126209D44FEA0023D4
:10071C0043F0004323FA02F070474FF0000070479B
:10072C0012F1610F01D1420202D14FF0FF3070473C
:10073C004FF00000704700BF034650B149B14FF075
:10074C00A00C4FF47A720020196083F804C09A60F0
:10075C0070470220704700BFF0B51D46CB18B3F5AB
:10076C00803F87B035DAA5B39AB3044688B3806866
:10077C00009201F07F02C2F180029542A8BF15469B
:10078C000290ADB20A46206821791023019507F03A
:10079C00A7FA0746E8B906F04FF901258DF817704E
:1007AC0006460DF1170702E0012006F04BF92179FE
:1007BC00206810230022CDE90155009707F0AAFB11
:1007CC0040B106F039F9A368801B9842ECD903209C
:1007DC0000E0022007B0F0BD30B51C46CB18B3F5D5
:1007EC00803F85B013DA94B1154682B178B1836835
:1007FC00CDE9005402930A4610230179006807F0F2
:10080C0089FB003818BF0120400005B030BD022024
:10081C0005B030BD002859D02DE9F04F90468A180C
:10082C00B2F5803F8946A7B04CDCB8F1000F49D037
:10083C000DF1180A044619468022504609F080F939
:10084C0001250DF1170709F07F06C6F18006464514
:10085C00A8BF4646D4F808C0B6B221792068102348
:10086C004A46CDF808C0CDF800A0019607F038FA3A
:10087C00834638BB06F0E0F88DF817B0834609E0E4
:10088C0006F0DAF8A368A0EB0B0098421AD8012006
:10089C0006F0D8F82179206810230022CDE9015503
:1008AC00009707F037FB0028EAD1A8EB06081FFADF
:1008BC0088F84E441FFA86F9B8F1000FC3D127B05F
:1008CC00BDE8F08F022027B0BDE8F08F0220704702
:1008DC00F8B5044600250846BDF818C09DF824E07C
:1008EC00079EBDF8207084F828E0A4F80EC01146CD
:1008FC002360A281C4E91155C4E90106E56227828F
:10090C0006F036FE0246A37C394662F30003A3745C
:10091C00304606F02DFEA37C400023F0060300F0C9
:10092C00020018432563C4E90755E562C4E9145570
:10093C006563C4E91655A582A561A074656284F847
:10094C004C5084F86050A56306F076F80346A189F4
:10095C00C4E90F33606806F00BFE0346E18963645B
:10096C00206806F005FE636CA06443EA4003E36272
:10097C00F8BD00BFF8B500250E469DF81CC0BDF8AB
:10098C001870044680F828C01146C3818281C0E9E2
:10099C001155C0E90066C56286600782304606F0D4
:1009AC00E7FD0246A37C394662F30003A37430468C
:1009BC0006F0DEFDA37C400023F0060300F00200ED
:1009CC0018432563C4E90755E562C4E9145565630A
:1009DC00C4E91655A582A561A074656284F84C50D3
:1009EC0084F86050A56306F027F80346A189C4E992
:1009FC000F33606806F0BCFD0346E1896364206830
:100A0C0006F0B6FD636CA06443EA4003E362F8BDF4
:100A1C00406B704790F82830022B0AD9032B12D167
:100A2C00036B03F0010343EA4103036341638163F6
:100A3C0070474BB1036B03F0030343EA8103036379
:100A4C004163816370477047704700BF38B50446F7
:100A5C0005F0F2FFD4E91131E26A43EA41035BB2DB
:100A6C009A4212D0E26A564D43EA8202216BAA5690
:100A7C000A4494F8281022630229E36200F0818072
:100A8C00032900F09180012972D0218AA06806F018
:100A9C006FFD18B994F84C50002D75D0218AA068C0
:100AAC0006F066FD01283AD0218AA06806F060FDA8
:100ABC00012847D0218AA06806F05AFD00284CD0A6
:100ACC00A36DA3F10B02B2F5777F10D8E36D782BF1
:100ADC0006D994F86030032B02D0012384F86030DF
:100AEC00218AA06806F044FD01280DD038BDB3F56D
:100AFC007A7F88BF0223218A88BF84F86030A0687F
:100B0C0006F036FD0128F1D105F096FF636D03F573
:100B1C00FA73984284BF002384F8603038BD94F88F
:100B2C004C30002BC0D0002384F84C3005F084FFEF
:100B3C00236D218AC31AC4E91503A06806F018FDB9
:100B4C000128B7D105F078FF636D218AC01AE065E2
:100B5C00A06806F00DFD0028B2D105F06DFF236DE5
:100B6C0003F57A73984284BF022384F86030A7E7B8
:100B7C00032B8AD1236BE26B9B10C4E90F026363D6
:100B8C0083E7002B81D1F5E7012384F84C3005F085
:100B9C0053FFE36D2065772B8CBF2B460323C4E9F1
:100BAC00165584F8603079E713B1032B7FF46DAFE1
:100BBC00236BE26B5B10C4E90F02636365E700BF54
:100BCC0090A4000810B581890446406806F0D0FC5A
:100BDC000346E1896364206806F0CAFC034620469C
:100BEC00A364BDE81040FFF731BF00BF90F8600070
:100BFC00704700BF0023D0B594B001264FF4803766
:100C0C00012102244FF48032CDE90F33CDE90633B4
:100C1C00CDE90833CDE902330C93059301930D9381
:100C2C0004934FF4E0130AA8CDE90A670E911194CE
:100C3C001292139307F06AFB08B172B6FEE70346F3
:100C4C000F22CDE9064309934FF48063214605A892
:100C5C000893059207F04AFD08B172B6FEE74FF40F
:100C6C00004301A80194039307F022FE08B172B669
:100C7C00FEE714B0D0BD00BF08B54FF6E07002F02F
:100C8C00DDFC03F05FF800222021084804F0B6FADE
:100C9C00074804F0A5FA07485E22002104F0AEFADA
:100CAC00BDE808404FF4FC6002F0C8BCA0A40008EA
:100CBC00CCA40008ECA4000870B5037C0546012BFD
:100CCC003FD0644E336803F10A0405F0B5FE84424C
:100CDC0000D370BD604C5E222821B5F9000004F0F1
:100CEC003DFC2368472B05D85C4804F079FA23684F
:100CFC00472BF9D95E227021B5F9020004F02EFCC5
:100D0C002368972B05D8554804F06AFA2368972B6B
:100D1C00F9D96B691A7B032A09D8DFE802F08A83B8
:100D2C00027C6E2228214E4804F068FA6B695B7BCA
:100D3C00002B00F08580012B64D005F07DFE306027
:100D4C0070BD10226021B0F90400434C04F006FC85
:100D5C00444804F045FA2368972B05D83F4804F023
:100D6C003FFA2368972BF9D920226021B5F90600A8
:100D7C0004F0F4FB3B4804F033FA2368972B05D8B6
:100D8C00364804F02DFA2368972BF9D9364804F02D
:100D9C0027FA30222021B5F9080004F0DFFB314896
:100DAC0004F01EFA2368372B05D82C4804F018FAE7
:100DBC002368372BF9D930227021B5F90C0004F0D7
:100DCC00CDFB284804F00CFA2368672B05D8234880
:100DDC0004F006FA2368672BF9D940223821B5F9BB
:100DEC000A0004F0BBFB1F4804F0FAF92368972BA8
:100DFC0005D81A4804F0F4F92368972BF9D9002385
:100E0C002B745EE76E227021184804F0F7F905F098
:100E1C0013FE306094E76E222821154804F0EEF999
:100E2C006B6984E76E222821124804F0E7F96B699C
:100E3C007DE76E222821104804F0E0F96B6976E713
:100E4C006E2270210D4804F0D9F905F0F5FD3060E3
:100E5C0076E700BF84000020FC02002014A50008E7
:100E6C0024A5000810A5000818A5000830A5000846
:100E7C0028A5000820A500081CA500082CA5000822
:100E8C00F0B59048A7B0FFF7C3FD05468E48FFF7B5
:100E9C00BFFD8E4C064602F055FF05F09FF92378F6
:100EAC0013B9012027B0F0BD0021084602F056FD11
:100EBC004FF4FC6002F0C2FB2378013B092B0ED8E7
:100ECC00DFE813F0E000E400E800EC00F000F400D0
:100EDC00F800FC000A00DC007D4804F081F9227A5D
:100EEC00E3797C49CDE90432A37906A803936379AD
:100EFC002DB20293237936B20193E3780093A37851
:100F0C00627808F0FBFD4FF6FF7002F097FB06A825
:100F1C0004F066F94FF6E07002F090FB6E4804F0B6
:100F2C005FF94FF6FF7002F089FB206A04F0BEFAFD
:100F3C004FF6E07002F082FB684804F051F94FF66E
:100F4C00FF7002F07BFB608904F0B0FA4FF6E070A2
:100F5C0002F074FB624804F043F94FF6FF7002F0A4
:100F6C006DFBE06804F0A2FA4FF6E07002F066FB4D
:100F7C005C4804F035F94FF6FF7002F05FFB206916
:100F8C0004F094FA4FF6E07002F058FB564804F067
:100F9C0027F94FF6FF7002F051FB606904F086FAF6
:100FAC000DE04948FFF722FE70B94648FFF730FDC7
:100FBC00A84209D14448FFF72BFDB04204D1414867
:100FCC00FFF714FE0028ECD03E48FFF70FFE002878
:100FDC00FAD13D48FFF70AFE0028FAD13948FFF74D
:100FEC0017FD06463848FFF713FD00277F23202204
:100FFC009F2105B20097384602F0AAFE2021384600
:10100C0002F0ACFC4FF6E07002F018FB374804F02D
:10101C00E7F84FF6FF7002F011FBA06904F046FAF6
:10102C004FF6E07002F00AFB314804F0D9F84FF6A5
:10103C00FF7002F003FBE06936B204F037FA0DE002
:10104C002148FFF7D3FD70B91E48FFF7E1FCB04211
:10105C0009D11D48FFF7DCFC854204D11948FFF784
:10106C00C5FD0028ECD000211648FFF7D3FC002169
:10107C001548FFF7CFFC002027B0F0BD1D4804F049
:10108C00AFF82CE71C4804F0ABF828E71B4804F039
:10109C00A7F824E71A4804F0A3F820E7194804F04D
:1010AC009FF81CE7184804F09BF818E7174804F061
:1010BC0097F814E7164804F093F810E7154804F075
:1010CC008FF80CE7F800002094000020AC030020FF
:1010DC00BCA50008E4A5000808A6000818A600088E
:1010EC002CA600083CA600084CA600085CA600082C
:1010FC006CA60008D0A5000838A5000848A5000873
:10110C0058A5000868A5000878A5000888A500085F
:10111C0098A50008A8A5000838B500220C4605467D
:10112C0012231146204605F07FFB22886B6952BAC8
:10113C002A80628852BA6A80A28852BA1A80E288DF
:10114C0052BA5A80228952BA9A80628952BADA808B
:10115C00A28952BA1A81E28952BA5A81227C1A7334
:10116C00627C5A7338BD00BF70B50E4605461446F6
:10117C00FF23122200213046FFF74CFB0F2005F015
:10118C0061FC95F90120304622702A881223627086
:10119C0095F903200021A2706A88E2706A6992F9BD
:1011AC00012022716A69128862716A6992F90320BE
:1011BC00A2716A695288E2716A6992F905202272F9
:1011CC006A69928862726A6992F90720A2726A69E6
:1011DC00D288E2726A6992F9092022736A691289CB
:1011EC0062736A6992F90B20A2736A695289E2737D
:1011FC006A69127B22746A69527B62742246BDE86A
:10120C007040FFF7A9BA00BF2DE9F8434FF00A0868
:10121C00002405464FF065092C4E00212C48A6F8F9
:10122C000080FFF7F7FB2B4B214629486C802A4F97
:10123C00A3F80090A6F80080FFF7ECFB274B2146A3
:10124C002748EC80A3F800903480A7F80080FFF7C3
:10125C00E1FB244B21461E482C81A3F80090A6F8F4
:10126C0000803C80FFF7D6FB1F4B2C802146184892
:10127C00A3F80090A6F80080FFF7CCFB34804FF069
:10128C0080462146AC8016487463A7F80080FFF7AF
:10129C00C1FB6C813C8001224FF400511348F46374
:1012AC0006F06CF901224FF48051114806F066F9F2
:1012BC0001224FF400610E4806F060F9BDE8F843D6
:1012CC00012280210A4806F059B900BF9200002083
:1012DC00F800002088000020900000208C000020E6
:1012EC00940000208A0000208E0000200010014095
:1012FC00000C0140F8B56E23B0F90260904D9E428F
:10130C0004462B800BD0642E40F3B58064218D48AD
:10131C00FFF780FB642600238B4A668013806E23C4
:10132C00B4F906602B809E420CD0642E40F396805C
:10133C0064218448FFF76EFB64260023834AE68011
:10134C002E8013806E23B4F90870814E9F42338037
:10135C000BD0642F75DD64217E48FFF75BFB64279F
:10136C0000237D4A2781378013806E23B4F90070E7
:10137C002B809F420AD0642F57DD64217148FFF700
:10138C0049FB64270023754A278013806E23B4F928
:10139C0004702B809F420DD0642F78DD6421694846
:1013AC00FFF738FB64274FF47A734FF08042A78025
:1013BC002F8053636E23B4F90A5033809D420DD0B5
:1013CC00642D24DD64216348FFF724FB642540F27F
:1013DC00E7334FF0804265813580D363237B032B49
:1013EC0008D8DFE803F076700261B4F904105548B0
:1013FC00FFF710FB637B002B5ED0012B00D0F8BDF8
:10140C00B4F90A105348BDE8F840FFF703BB092DA7
:10141C0000F38D8000214F48FFF7FCFA00234FF0BA
:10142C00804263813380D363D8E7092F77DC0021B6
:10143C004448FFF7EFFA00216522484B21801A80BF
:10144C00A4E7092F63DC00214248FFF7E3FA0023ED
:10145C006521414A23811180338086E7092E4EDCB9
:10146C0000213848FFF7D6FA00236521374AE3807C
:10147C002B80118066E7092E39DC00213148FFF7FB
:10148C00C9FA00216522304B61801A8047E7092F89
:10149C0025DC00212B48FFF7BDFA00234FF08042DA
:1014AC00A3802B80536385E7B4F906102548FFF71A
:1014BC00B1FA637B002BA0D1B4F908102548BDE824
:1014CC00F840FFF7A7BAB4F902101E48FFF7A2FACA
:1014DC0090E7B4F900101B48FFF79CFA8AE73946ED
:1014EC001848FFF797FA07EB87035B005DE7314677
:1014FC001448FFF78FFAC6F164039BB20CE7314630
:10150C001048FFF787FAC6F164039BB216E7394619
:10151C001048FFF77FFAC7F164039BB221E7394605
:10152C000848FFF777FAC7F164039BB22BE729460B
:10153C000848FFF76FFA05EB85035B00013B48E7B2
:10154C0092000020F8000020880000208C00002071
:10155C0090000020940000208A0000208E000020C3
:10156C002DE9F04FDFB0002705F066FA0DF1480BBE
:10157C00CDE90E77CBE90077CBE902770490109791
:10158C00ADF84470CBF8107005F038FAFFF732FB69
:10159C00CDE94E77CDE95077A84B4FF400519A69BD
:1015AC00A74842F010029A619A69012502F01002D4
:1015BC000792079A9A69022642F020029A619A6968
:1015CC004FF4F86802F020020892089A9A694FF0DA
:1015DC00000942F004029A619A694EAC02F00402CE
:1015EC000992099A9A6942F008029A619B693A46F3
:1015FC0003F008030A930A9B05F0C0FF3A4641F634
:10160C00FA01904805F0BAFF4FF4005321468C487C
:10161C004E9350974F95519605F0A4FDCDE94E8908
:10162C004FF001084FF0000921468748509705F00C
:10163C0099FD21468348CDE94E89509705F092FDDE
:10164C0041F6DA03CDE94E35032321467D4851930B
:10165C00509705F087FD202321467A48CDE94E3579
:10166C00CDE9507605F07EFD0A234FF482714FF4DC
:10167C0000727648C362764BC0E90277C0E9047702
:10168C00C0E90777C0E9097741608261036007F020
:10169C0063FA08B172B6FEE74FF0804240F2E733CE
:1016AC00DFF8B0A14E90CDE94100C4E90100C4E9D6
:1016BC000300C4E90500CAE90160409032904390F0
:1016CC003390CAF81000CAF818005046CAF8002027
:1016DC00CAF80C3007F03AFE08B172B6FEE74FF4C8
:1016EC008057504640A9409708F082F808B172B66E
:1016FC00FEE7504607F0C4FE08B172B6FEE70022C2
:10170C000023504632A9CDE9322308F0C1F9024634
:10171C0008B172B6FEE704234FF0600840F2F319EB
:10172C0021465046CDE94E895096529307F06EFFF4
:10173C0008B172B6FEE7DAF8001008228B69504641
:10174C0023F008038B61214607F060FF064608B1C1
:10175C0072B6FEE7DAF800205046D369DFF8F8A03D
:10176C0023F00803D36104F041F9802340F60F62A3
:10177C00CAF81830394B50464E96CDE94066C4E94C
:10178C000166CAF80450CAF80C20E660CAF8086072
:10179C00CAF81060CAF8003007F0D8FD08B172B66C
:1017AC00FEE7214650464E9708F022F808B172B673
:1017BC00FEE700220023504640A9CDE9402308F063
:1017CC0067F908B172B6FEE700234FF460224FF0C0
:1017DC0001082349234F08464E93C1E90133C4E95C
:1017EC000133CA610B730B75C1F810800F6005F0E3
:1017FC003BF908B172B6FEE7012305225090214651
:10180C001748CDE94E2305F0FBFA034608B172B632
:10181C00FEE74FF480421448C0E90233C0E90533B7
:10182C00C0E907330261114B114AC0E9002306F0ED
:10183C008FF90546F0B172B6FEE700BF001002400A
:10184C0000100140000C014000080140F001002094
:10185C0000380040A40100205C010020000800407A
:10186C00A00200200024014048020020A0860100B4
:10187C00005400400146A04807F070FE08219E4825
:10188C0007F06CFE9D4807F0CFFD0EA8FFF7BCFCDF
:10189C009B499C4804F0B6F94FF480529A4918A819
:1018AC0004F0EEF94FF40062974925A804F0E8F92A
:1018BC00394641F25C27954804F078F902219448A6
:1018CC0004F06AFB66230321CDE90075914A40A818
:1018DC0004F0DAF966230321CDE900758D4A32A8AC
:1018EC0004F0D2F940F24E4904238B4F2A468B491F
:1018FC000093CDF808902B46019740A804F0A8F966
:10190C000523CDE901792A468549009332A82B4657
:10191C0004F09EF902274FF48073DFF808924FF41D
:10192C0080624946CDE900377F484FF40073FFF7DA
:10193C0021F8802640234246CDE9019372494B465B
:10194C007A4803970096FEF7C3FFDFF8E491294627
:10195C007548DFF8E0A1FFF75DF829467348A9F850
:10196C000050FFF757F84023324667496548009509
:10197C00AAF8005000F0C2FB4146384601F036FD93
:10198C002946284600F0D6FB2B464FF6E070294638
:10199C00694A01F059FE284601F040FDFFF770FA44
:1019AC00002840F0EA820021204604F0A5FE9DF8B4
:1019BC003831FF2B00F0DD820EAB21465846CBF8B8
:1019CC001430FFF7A9FBBBF90080BBF9027041464C
:1019DC005548DBF81450FFF71DF839465348A9F861
:1019EC000080FFF717F8AAF8007054490BA8FEF70F
:1019FC00A3FE0146002840F0AC82122322460BA81D
:101A0C00FEF7EAFE002840F0A48202F09BF94FF4A6
:101A1C00FC6001F013FE4A482022282103F0EEFB63
:101A2C004FF4FA7005F00EF80EA8FFF763FCFFF701
:101A3C0023F900230593049B03F5FA73049304F034
:101A4C00FBFF049B834240F2CF813748FFF7CEF86F
:101A5C00012840F098819DF844304FF4C870013350
:101A6C00DBB2042B08BF00238DF8443004F0EAFFEE
:101A7C002E48FFF7BBF8012864D19DF845304FF490
:101A8C00C870B3FA83F35B098DF8453004F0DAFFC4
:101A9C009DF844209DF84530059843EA8201884220
:101AAC0013D05EA901EB430301EB4202A3F59C7337
:101ABC00B3F90070A2F5A072B2F900101A48FEF743
:101ACC00A9FF39461948FEF7A5FF9DF844209DF85B
:101ADC004530154843EA8203DBB20593FEF798FFC5
:101AEC009DF8443007B2032B00F2AB80DFE813F013
:101AFC002201BD0212028E00A40100205C01002014
:101B0C0000380040F0010020000C0140A002002031
:101B1C00CDCC1C40ACB6000814B7000800009643AE
:101B2C000080964300080140F8000020940000203B
:101B3C00920000209000002058AC000848020020C1
:101B4C00D0A60008BB48FFF751F8022800F0278206
:101B5C00B848FFF74BF803289AD1224600211223EC
:101B6C000BA8FEF739FEBDF83C31BDF838815BBAE5
:101B7C00BDF83A712B80BDF83E317FBA5BBA6B80F1
:101B8C00BDF840310EA85BBAAB80BDF8423198FA73
:101B9C0098F85BBAEB80BDF844315BBA2B81BDF889
:101BAC0046315BBA6B819DF848312B739DF84931F6
:101BBC006B73FFF79FFBABF8027000279E4B5846E8
:101BCC001F60CBF81450ABF80080FFF775F850216C
:101BDC003846DBF8145001F0C1FE4FF6FF7001F0EF
:101BEC002DFD964803F0FCFA40F2DC5004F02AFF7D
:101BFC005021384601F0B2FE4FF4FC6001F01EFD9E
:101C0C008F4803F0EDFAFF23059341E7B9F9003053
:101C1C009F4215D0642F7EDC092F03DC9F42C0F25B
:101C2C0017820A2739468748FEF7F4FE864AC7F121
:101C3C0064039BB2ADF83E70A9F8007013803B466C
:101C4C005FB27C48FEF7E4FE9DF845600FFA80F821
:101C5C00A6B3012E1FD1BAF90030984519D0B8F1AE
:101C6C00640F28DCB8F1090F03DC984555DB4FF005
:101C7C000A0841466F48FEF7CDFE0A224FF080411C
:101C8C00434602FB08F2013AADF84280AAF8008004
:101C9C00CA634FFA83F85846ABF80070ABF8028071
:101CAC00CBF81450FFF708F8BBF90080BBF90270B1
:101CBC00DBF81450C3E64FF06408DAE7BAF90030E9
:101CCC009845E6D0B8F1640F15DCB8F1090F03DCC8
:101CDC00984513DB4FF00A0841465648FEF79AFE2A
:101CEC005A4AC8F164039BB21380ADF84080434656
:101CFC00AAF80080CDE74FF06408EDE731464D4877
:101D0C00FEF788FE6523514AADF840601380AAF8AF
:101D1C0000603346BDE7642784E700214548FEF7A1
:101D2C0079FE00234FF08042ADF84230AAF8003023
:101D3C00D363AEE7B9F900309F4281D0642F13DC36
:101D4C00092F02DC9F4211DB0A2739463D48FEF77A
:101D5C0061FE3F4AC7F164039BB2ADF83870A9F835
:101D6C00007013803B466BE76427EEE70021354893
:101D7C00FEF750FE002365223549ADF838300A8055
:101D8C00A9F800305CE72F48FEF730FF022865D039
:101D9C002C48FEF72BFF03287FF46AAE22465846E8
:101DAC000BA9ABF80080ABF80270CBF81450FFF71E
:101DBC00DBF95021002001F0D1FD4FF6FF7001F04E
:101DCC003DFC244803F00CFA40F2DC5004F03AFEDF
:101DDC005021002001F0C2FD4FF4FC6001F02EFCFC
:101DEC001D4803F0FDF943E604F026FE02210646E9
:101DFC0018A803F0BBFF0221ABF8040025A803F0E0
:101E0C00B5FFABF80600052004F0A6F840F6FB027F
:101E1C0003B29342ABF80E306DDD012140A803F004
:101E2C00A5FF06F5FA7304930123ABF80A008BF8AF
:101E3C0010300AE6940000208400002050A700080F
:101E4C0070A70008F80000208C0000208A000020F9
:101E5C008E00002010A70008FCA60008002004F04B
:101E6C00DDFA98FA98F80F207FBA04F0EBFDADF884
:101E7C003881ADF83A7195F9011000228DF83C11BA
:101E8C00298812238DF83D1195F9031020468DF801
:101E9C003E1169888DF83F1195F905108DF84011A8
:101EAC00A9888DF8411195F907108DF84211E98830
:101EBC008DF8431195F909108DF8441129898DF885
:101ECC00451195F90B108DF8461169898DF847115C
:101EDC00297B8DF84811697B8DF84911114604F066
:101EEC00DBFB5021002001F039FD4FF6FF7001F0B3
:101EFC00A5FB794866E7012004F0A4FD012132A876
:101F0C0003F034FFABF8080032A803F0C7FEABF8BF
:101F1C000C0082E7B9F900309F423FF491AE642F78
:101F2C0015DC092F03DC9F42C0F2BC800A2739461E
:101F3C006A48FEF76FFD0A234FF0804207FB03F35C
:101F4C00ADF83C70A9F8007053633B4678E6642703
:101F5C00EDE701F0F7FE4FF4784001F06FFB202223
:101F6C0014215F4803F04AF941F2883004F06AFD0D
:101F7C005AE500270EADB84637E501F0E3FE202107
:101F8C00284601F0EBFC4FF4784001F057FB554824
:101F9C0003F026F941F2883004F054FD03E50022E9
:101FAC0012231146204604F03FFCBDF83C31BDF82D
:101FBC0038815BBABDF83A712B80BDF83E317FBADF
:101FCC005BBA6B80BDF840310EA85BBAAB80BDF834
:101FDC00423198FA98F85BBAEB80BDF844315BBAA1
:101FEC002B81BDF846315BBA6B819DF848312B7360
:101FFC009DF849316B73FFF77DF9ABF80270002740
:10200C00394B58461F60CBF81450ABF80080FEF7E4
:10201C0053FE50213846DBF8145001F09FFC4FF66C
:10202C00FF7001F00BFB314803F0DAF840F2DC50A2
:10203C0004F008FD5021384601F090FC4FF4FC6090
:10204C0001F0FCFA2A4803F0CBF8FF2305931FE5B7
:10205C0000212248FEF7DEFC002365222549ADF85D
:10206C003E300A80A9F80030EAE5B9F900309F4209
:10207C003FF4E6AD642F13DC092F02DC9F421EDB1C
:10208C000A2739461548FEF7C5FC1B4AC7F16403FD
:10209C009BB2ADF83A70A9F8007013803B46CFE5BF
:1020AC006427EEE700210D48FEF7B4FC00234FF047
:1020BC008042ADF83C30A9F800305363C0E50021F4
:1020CC000648FEF7A7FC002365220B49ADF83A3011
:1020DC000A80A9F80030B3E5DCA60008F80000205F
:1020EC00C0A600087CA600088400002030A70008C9
:1020FC00FCA600088C0000208800002030B44FF6AD
:10210C00FF75084CBDF808C0C4E90001638106499D
:10211C00064B2281064A8B60C1E90052A4F80CC020
:10212C0030BC7047D0020020E0020020081020A034
:10213C0058AC00080B462DE9F04F074C85B02189AF
:10214C00804600226068019305F018FAA1890029E5
:10215C0041F02C8102E000BFD002002001256189F2
:10216C006068002205F00AFA21896068002205F0F7
:10217C0005FA0A232A4620680DF10F018DF80F503D
:10218C0006F048FD21892A46606805F0F7F982209F
:10219C0004F058FC61896068002205F0EFF9218990
:1021AC006068002205F0EAF911232A4620688DF8B0
:1021BC000F300DF10F010A2306F02CFD21892A4660
:1021CC00606805F0DBF9822004F03CFC61896068F2
:1021DC00002205F0D3F921896068002205F0CEF9C0
:1021EC00B1234FF02C092D272A4620688DF80F308B
:1021FC000DF10F010A2306F00DFD218960682A46B6
:10220C0005F0BCF9618960682A4605F0B7F92189A7
:10221C006068002205F0B2F90A232A4620680DF105
:10222C000F018DF80F5006F0F5FC218960682A46E5
:10223C0005F0A4F9618960682A4605F09FF92189A7
:10224C006068002205F09AF90A232A4620680DF1ED
:10225C000F018DF80F9006F0DDFC218960682A468D
:10226C0005F08CF9618960682A4605F087F92189A7
:10227C006068002205F082F90A232A4620680DF1D5
:10228C000F018DF80F7006F0C5FC218960682A4695
:10229C0005F074F961896068002205F06FF92189F5
:1022AC006068002205F06AF9B2232A4620688DF88E
:1022BC000F300DF10F010A2306F0ACFC2189606888
:1022CC002A4605F05BF9618960682A4605F056F9E3
:1022DC0021896068002205F051F90A232A462068FA
:1022EC000DF10F018DF80F5006F094FC21896068F8
:1022FC002A4605F043F9618960682A4605F03EF9E3
:10230C0021896068002205F039F90A232A462068E1
:10231C000DF10F018DF80F9006F07CFC218960689F
:10232C002A4605F02BF9618960682A4605F026F9E2
:10233C0021896068002205F021F90A232A462068C9
:10234C000DF10F018DF80F7006F064FC21896068A7
:10235C002A4605F013F961896068002205F00EF930
:10236C0021896068002205F009F9B3232A46206808
:10237C008DF80F300DF10F010A2306F04BFC21896B
:10238C0060682A4605F0FAF8618960682A4605F00B
:10239C00F5F821896068002205F0F0F80A232A4636
:1023AC0020680DF10F018DF80F5006F033FC2189D8
:1023BC0060682A4605F0E2F8618960682A4605F0F3
:1023CC00DDF821896068002205F0D8F80A232A4636
:1023DC0020680DF10F018DF80F9006F01BFC218980
:1023EC0060682A4605F0CAF8618960682A4605F0DB
:1023FC00C5F821896068002205F0C0F80A232A4636
:10240C0020680DF10F018DF80F7006F003FC218987
:10241C0060682A4605F0B2F8618960682A4605F0C2
:10242C00ADF821896068002205F0A8F80A232A4635
:10243C0020680DF10F018DF80F5006F0EBFB218990
:10244C0060682A4605F09AF8618960682A4605F0AA
:10245C0095F821896068002205F090F80A232A4635
:10246C0020680DF10F018DF80F9006F0D3FB218938
:10247C0060682A4605F082F8618960682A4605F092
:10248C007DF821896068002205F078F80A232A4635
:10249C0020680DF10F018DF80F7006F0BBFB218940
:1024AC0060682A4605F06AF861896068002205F0C8
:1024BC0065F821896068002205F060F8B4232A468B
:1024CC0020688DF80F300DF10F010A2306F0A2FBE6
:1024DC00218960682A4605F051F8618960682A46AE
:1024EC0005F04CF821896068002205F047F80723B5
:1024FC002A4620688DF80F300DF10F010A2306F0E3
:10250C0089FB218960682A4605F038F86189606882
:10251C00002205F033F821896068002205F02EF8BE
:10252C00C0232A4620688DF80F300DF10F010A23C5
:10253C0006F070FB218960682A4605F01FF8618956
:10254C0060682A4605F01AF821896068002205F0B7
:10255C0015F8A2232A4620688DF80F300DF10F01D3
:10256C000A2306F057FB218960682A4605F006F815
:10257C00618960682A4605F001F8218960680022AB
:10258C0004F0FCFF02232A4620688DF80F300DF171
:10259C000F010A2306F03EFB218960682A4604F0ED
:1025AC00EDFF618960682A4604F0E8FF21896068C4
:1025BC00002204F0E3FF84232A4620688DF80F30B4
:1025CC000DF10F010A2306F025FB218960682A46CC
:1025DC0004F0D4FF61896068002204F0CFFF2189E8
:1025EC006068002204F0CAFFC1234FF0C50A2A46D6
:1025FC0020688DF80F300DF10F010A2306F00AFB4D
:10260C00218960682A4604F0B9FF618960682A460E
:10261C0004F0B4FF21896068002204F0AFFF0A23A4
:10262C002A4620680DF10F018DF80FA006F0F2FA82
:10263C00218960682A4604F0A1FF61896068002244
:10264C0004F09CFF21896068002204F097FFC223EC
:10265C004FF00A0900272A4620688DF80F300DF13B
:10266C000F010A2306F0D6FA218960682A4604F085
:10267C0085FF618960682A4604F080FF21896068C3
:10268C00002204F07BFF4B462A4620680DF10F0117
:10269C008DF80F9006F0BEFA218960682A4604F086
:1026AC006DFF618960682A4604F068FF21896068C3
:1026BC00002204F063FF4B462A4620680DF10F01FF
:1026CC008DF80F7006F0A6FA218960682A4604F08E
:1026DC0055FF618960683A4604F050FF21896068B3
:1026EC003A4604F04BFFC3234FF08A0BC54E2A46E3
:1026FC0030688DF80F300DF10F014B4606F08AFA59
:10270C00318970682A4604F039FF718970682A464D
:10271C0004F034FF318970683A4604F02FFF4B46C1
:10272C002A4630680DF10F018DF80FB006F072FAE1
:10273C00318970682A46344604F020FF718970682C
:10274C002A4604F01BFF318970682A263A4604F0A9
:10275C0015FF4B462A460DF10F0120688DF80F60CE
:10276C0006F058FA2A462189606804F007FF3A46B9
:10277C006189606804F002FF3A462189606804F0C0
:10278C00FDFEC4232A468DF80F300DF10F014B4688
:10279C00206806F03FFA2A462189606804F0EEFEB4
:1027AC002A466189606804F0E9FE3A46218960682E
:1027BC0004F0E4FE4B462A460DF10F0120688DF81B
:1027CC000FB006F027FA2A462189606804F0D6FE7D
:1027DC002A466189606804F0D1FE3A462189606816
:1027EC0004F0CCFEEE232A468DF80F300DF10F01CC
:1027FC004B46206806F00EFA2A462189606804F0E0
:10280C00BDFE3A466189606804F0B8FE3A462189FB
:10281C00606804F0B3FE4B462A460DF10F012068A8
:10282C008DF80FA006F0F6F92A462189606804F0AD
:10283C00A5FE2A466189606804F0A0FE3A4621890B
:10284C00606804F09BFE0E232A468DF80F300DF1C4
:10285C000F014B46206806F0DDF92A462189606895
:10286C0004F08CFE3A466189606804F087FE3A46B3
:10287C002189606804F082FE20232A468DF80F30EF
:10288C000DF10F014B46206806F0C4F92A46218948
:10289C00606804F073FE3A466189606804F06EFE6D
:1028AC003A462189606804F069FE36232A468DF881
:1028BC000F300DF10F014B46206806F0ABF92A469C
:1028CC002189606804F05AFE2A466189606804F028
:1028DC0055FE3A462189606804F050FEC8232A460A
:1028EC008DF80F300DF10F014B46206806F092F970
:1028FC002A462189606804F041FE3A466189606885
:10290C0004F03CFE3A462189606804F037FE3A2315
:10291C002A468DF80F300DF10F014B46206806F05A
:10292C0079F92A462189606804F028FE2A466189D3
:10293C00606804F023FE3A462189606804F01EFEAC
:10294C0005232A468DF80F300DF10F014B462068F8
:10295C0006F060F92A462189606804F00FFE3A46B9
:10296C006189606804F00AFE3A462189606804F0C7
:10297C0005FE4B462A460DF10F0120688DF80F60BD
:10298C0006F048F92A462189606804F0F7FD2A46CA
:10299C006189606804F0F2FD3A462189606804F0B0
:1029AC00EDFD4B462A460DF10F0120688DF80F7096
:1029BC0006F030F92A462189606804F0DFFD2A46CA
:1029CC006189606804F0DAFD3A462189606804F098
:1029DC00D5FD4B462A460DF10F0120688DF80F707E
:1029EC0006F018F92A462189606804F0C7FD2A46CA
:1029FC006189606804F0C2FD3A462189606804F080
:102A0C00BDFD01E0D00200204B462A460DF10F011E
:102A1C0020688DF80F7006F0FDF8218960682A4651
:102A2C0004F0ACFD60686189B8F1000F00F02B84F4
:102A3C002A4604F0A3FD3A462189606804F09EFD05
:102A4C007F212A468DF80F104B460DF10F0120689F
:102A5C0006F0E0F82A462189606804F08FFD4FF0FB
:102A6C00E00B00226189606804F088FD0022218956
:102A7C00606804F083FD0A2301220DF10F01206828
:102A8C008DF80FB006F0C6F801222189606804F0B9
:102A9C0075FD01226189606804F070FD00222189B6
:102AAC00606804F06BFD4FF002010DF10F000A237A
:102ABC0001228DF80F100146206806F0ABF80122B8
:102ACC002189606804F05AFD01226189606804F074
:102ADC0055FD00222189606804F050FD1C234FF045
:102AEC0007090DF10F00014601228DF80F30206807
:102AFC000A2306F08FF801222189606804F03EFD5C
:102B0C0001226189606804F039FD00222189606826
:102B1C0004F034FD0DF10F000A2301460122206858
:102B2C008DF80F9006F076F801222189606804F088
:102B3C0025FD01226189606804F020FD00222189B5
:102B4C00606804F01BFD12230DF10F0001460122F9
:102B5C008DF80F3020680A2306F05CF801222189D9
:102B6C00606804F00BFD01226189606804F006FDC9
:102B7C0000222189606804F001FD4FF037000DF14F
:102B8C000F050A23294601228DF80F00206806F054
:102B9C0041F801222189606804F0F0FC012261896E
:102BAC00606804F0EBFC00222189606804F0E6FC0C
:102BBC0032232927294601228DF80F3020680A2359
:102BCC0006F028F801222189606804F0D7FC012264
:102BDC006189606804F0D2FC00222189606804F0ED
:102BEC00CDFC29464FF02D050A23012220688DF8D3
:102BFC000F7006F00FF801222189606804F0BEFC0A
:102C0C0001226189606804F0B9FC0DF10F06002205
:102C1C002189606804F0B2FC0A2331460122206845
:102C2C008DF80F5005F0F6FF01222189606804F041
:102C3C00A5FC01226189606804F0A0FC00222189B6
:102C4C00606804F09BFC0A233146012220688DF851
:102C5C000F7005F0DFFF01222189606804F08EFC03
:102C6C0001226189606804F089FC00222189606876
:102C7C0004F084FC2523314601228DF80F302068A6
:102C8C000A2305F0C7FF01222189606804F076FC55
:102C9C0001226189606804F071FC0022218960685E
:102CAC0004F06CFC2B23314601228DF80F30206888
:102CBC000A2305F0AFFF01222189606804F05EFC55
:102CCC0001226189606804F059FC00222189606846
:102CDC0004F054FC39233146002601254FF0030A39
:102CEC0001228DF80F3020680A2305F093FF012292
:102CFC002189606804F042FC01226189606804F05B
:102D0C003DFC00222189606804F038FC0DF10F0CA9
:102D1C0061460A23012220688DF80F6005F07AFFC6
:102D2C0001222189606804F029FC01226189606814
:102D3C0004F024FC32462189606804F01FFC0DF17C
:102D4C000F0C61460A232A4620688DF80F5005F0B7
:102D5C0061FF2A462189606804F010FC2A466189CB
:102D6C00606804F00BFC32462189606804F006FCB4
:102D7C000DF10F0C61460A232A4620688DF80FA02E
:102D8C0005F048FF2A462189606804F0F7FB2A46C3
:102D9C006189606804F0F2FB32462189606804F0B6
:102DAC00EDFB4FF010020DF10F0C61460A238DF86C
:102DBC000F2020682A4605F02DFF2A4621896068DD
:102DCC0004F0DCFB32466189606804F0D7FB3246C4
:102DDC002189606804F0D2FB0DF10F0C61460A23C7
:102DEC002A4620688DF80FB005F014FF2A46218979
:102DFC00606804F0C3FB2A466189606804F0BEFB7E
:102E0C0032462189606804F0B9FB0DF10F0C614664
:102E1C000A232A4620688DF80FA005F0FBFE2A46EF
:102E2C002189606804F0AAFB2A466189606804F075
:102E3C00A5FB32462189606804F0A0FB1D230DF12F
:102E4C000F0C61462A468DF80F3020680A2305F0D6
:102E5C00E1FE2A462189606804F090FB2A466189CC
:102E6C00606804F08BFB32462189606804F086FBB5
:102E7C000DF10F0C61460A232A4620688DF80F903D
:102E8C0005F0C8FE2A462189606804F077FB2A46C3
:102E9C006189606804F072FB32462189606804F035
:102EAC006DFB06234FF02E090DF10F0C61462A46DF
:102EBC008DF80F3020680A2305F0ACFE2A462189D4
:102ECC00606804F05BFB2A466189606804F056FB7D
:102EDC0032462189606804F051FB0DF10F0C6146FC
:102EEC000A232A4620688DF80F9005F093FE2A4697
:102EFC002189606804F042FB2A466189606804F00D
:102F0C003DFB32462189606804F038FB2C230DF11F
:102F1C000F0C61462A468DF80F3020680A2305F005
:102F2C0079FE2A462189606804F028FB2A466189CB
:102F3C00606804F023FB32462189606804F01EFBB4
:102F4C000DF10F0C61460A232A4620688DF80F708C
:102F5C0005F060FE2A462189606804F00FFB2A46C2
:102F6C006189606804F00AFB32462189606804F0CC
:102F7C0005FB4FF02D030DF10F0C61462A468DF821
:102F8C000F3020680A2305F045FE2A462189606827
:102F9C0004F0F4FA2A466189606804F0EFFA3246CC
:102FAC002189606804F0EAFA0DF10F0C61460A23DE
:102FBC002A4620688DF80F9005F02CFE2A462189B0
:102FCC00606804F0DBFA2A466189606804F0D6FA7E
:102FDC0032462189606804F0D1FA0DF10F0C61467C
:102FEC000A232A4620688DF80F9005F013FE2A4616
:102FFC002189606804F0C2FA2A466189606804F08D
:10300C00BDFA32462189606804F0B8FA4FF03700F7
:10301C008DF80F000DF10F000A2301462A46206897
:10302C0005F0F8FD2A462189606804F0A7FA2A46C3
:10303C006189606804F0A2FA32462189606804F064
:10304C009DFA3F230DF10F0001462A468DF80F30F3
:10305C0020680A2305F0DEFD2A462189606804F009
:10306C008DFA2A466189606804F088FA3246218913
:10307C00606804F083FA0DF10F000A2301462A461A
:10308C0020688DF80F6005F0C5FD2A46218960681F
:10309C0004F074FA2A466189606804F06FFA3246CB
:1030AC002189606804F06AFA0DF10F000A230146C9
:1030BC002A4620688DF80F6005F0ACFD2A46218960
:1030CC00606804F05BFA2A466189606804F056FA7D
:1030DC0032462189606804F051FA4FF002010A234C
:1030EC002A468DF80F1020680DF10F0105F092FDA6
:1030FC002A462189606804F041FA2A466189606891
:10310C0004F03CFA32462189606804F037FA4FF03B
:10311C0010020A238DF80F200DF10F012A462068AA
:10312C0005F078FD2A462189606804F027FA3246BA
:10313C006189606804F022FA32462189606804F0E3
:10314C001DFA13232A468DF80F300DF10F010A23B7
:10315C00206805F05FFD2A462189606804F00EFAAC
:10316C000A2003F06FFC32466189606804F006FAAD
:10317C0032462189606804F001FA0A232A460DF1CF
:10318C000F0120688DF80F7005F044FD2A46218947
:10319C00606804F0F3F9822003F054FC7F23864E20
:1031AC00864F33603B80B8F1000F62D0DFF810928D
:1031BC00DFF810B2C9F80050CBF800300125DFF869
:1031CC000882DFF808A2A8F80030019B0022CAF898
:1031DC0000307F4B618960681D7004F0CFF90022CC
:1031EC002189606804F0CAF936232A468DF80F301D
:1031FC000DF10F010A23206805F00CFD2A462189E8
:10320C00606804F0BBF97F23CBF80030D9F80020BC
:10321C003B8002B99F233360DAF800506189606803
:10322C000122A8F8003004F0A9F921896068002275
:10323C0004F0A4F965F03F050A230DF10F010122FA
:10324C0020688DF80F5005F0E5FC2189606801229B
:10325C0004F094F95F4A604C12786048604B614905
:10326C001B7822700270604A0B70137005B0BDE8B9
:10327C00F08F9F23DFF84891DFF848B1C9F8008040
:10328C00CBF800309AE7012204F078F94246218904
:10329C00606804F073F99F210A238DF80F10012246
:1032AC000DF10F01206805F0B5FC21896068012241
:1032BC0004F064F942466189606804F05FF94246A3
:1032CC002189606804F05AF92B210A238DF80F101C
:1032DC0001220DF10F01206805F09CFC218960682A
:1032EC00012204F04BF961896068012204F046F96F
:1032FC0042462189606804F041F90A230DF10F015F
:10330C00012220688DF80F8005F084FC218960680B
:10331C00012204F033F961896068012204F02EF96E
:10332C0042462189606804F029F90A230DF10F0146
:10333C00012220688DF80F8005F06CFC21896068F3
:10334C00012204F01BF961896068012204F016F96E
:10335C0042462189606804F011F90A230DF10F012E
:10336C00012220688DF80F8005F054FC21896068DB
:10337C00012204F003F961896068012204F0FEF86F
:10338C0042462189606804F0F9F87F210A238DF800
:10339C000F1001220DF10F01206805F03BFC0122FA
:1033AC002189606804F0EAF8FFF759BB01226068D4
:1033BC0004F0E4F8FEF7D2BE08030020EE02002071
:1033CC00040300200C030020EC020020000300206A
:1033DC000000002004000020F2020020F002002077
:1033EC0003000020F3020020F1020020064BC0B2C3
:1033FC001B78C9B2012B99BF044A054B054A064BF1
:10340C0010701970704700BF0000002004000020ED
:10341C0003000020020000200100002030B505460A
:10342C00764C774B83B06189606800221D7004F084
:10343C00A5F821896068002204F0A0F836210A233F
:10344C008DF8071001220DF10701206805F0E2FB51
:10345C0001222189606804F091F8032D3AD8DFE845
:10346C0005F002996C3B7F236649674A0B606748FD
:10347C0012680380002A00F0B9801946644A60681B
:10348C001360644B644A1D6811800122618904F049
:10349C0075F800222189606804F070F865F05F050A
:1034AC000A2301220DF1070120688DF8075005F061
:1034BC00B1FB01222189606804F060F8574A584B2F
:1034CC0012781B78574C5848584922700270584A49
:1034DC000B70137003B030BD7F234D494A4A0B600B
:1034EC004D4812680380002A00F086801946454A30
:1034FC0060681360454A474B1180012261891D6841
:10350C0004F03CF800222189606804F037F80A23A3
:10351C0001220DF1070120688DF8075005F07AFBA8
:10352C0001222189606804F029F8424A424B127842
:10353C001B783E4C3C483B49C7E77F233149324A14
:10354C000B60324812680380002A53D01946304A67
:10355C00606813602F4B304A1D681180012261890D
:10356C0004F00CF800222189606804F007F845F09B
:10357C0060050A2301220DF1070120688DF8075020
:10358C0005F048FB01222189606803F0F7FF2A4A05
:10359C00284B95E77F231E491B4A0B601E48126877
:1035AC0003802AB31946174A60681360194B174AEF
:1035BC001D6811800122618903F0E0FF002221893E
:1035CC00606803F0DBFF65F03F050A2301220DF173
:1035DC00070120688DF8075005F01CFB012221899A
:1035EC00606803F0CBFF0E4A0C4BA0E79F2344E727
:1035FC009F23D7E79F23A9E79F2377E7D0020020DB
:10360C00000000200803002004030020EC0200202E
:10361C000C03002000030020EE0200200300002019
:10362C0004000020F3020020F0020020F20200202F
:10363C00F10200200200002001000020014B188044
:10364C00704700BFE002002030B4084C084D618088
:10365C00626020802B701378237253786372937896
:10366C00A372D378E37230BC704700BFE002002035
:10367C00F40200202DE9F04F944C83B08346894628
:10368C0090466189606800221F4603F077FF21890C
:10369C006068002203F072FF2A2300258DF80730A2
:1036AC000DF107010A230122206805F0B3FA2189E4
:1036BC006068012203F062FF61896068012203F0F7
:1036CC005DFF21896068002203F058FFDFF800A23B
:1036DC000A230DF10701012220688DF8075005F02F
:1036EC0099FA21896068012203F048FF9AF800607A
:1036FC0061896068012203F041FF5E442A462189FA
:10370C00606803F03BFFF6B20A230DF107010122BA
:10371C0020688DF8076005F07DFA21896068012228
:10372C0003F02CFF61896068012203F027FF2A4611
:10373C002189606803F022FF0A230DF107010122A1
:10374C0020688DF8075005F065FA21896068012220
:10375C0003F014FF9AF8006061896068012203F09D
:10376C000DFF4E442A462189606803F007FFF6B22C
:10377C000A230DF10701012220688DF8076005F07E
:10378C0049FA21896068012203F0F8FE2A46618912
:10379C00606803F0F3FE2A462189606803F0EEFEB0
:1037AC002B230DF107018DF8073001220A23206825
:1037BC0005F030FA21896068012203F0DFFE61898F
:1037CC006068012203F0DAFE2A462189606803F062
:1037DC00D5FEDFF800910A230DF1070101222068C4
:1037EC008DF8075005F016FA21896068012203F064
:1037FC00C5FE99F8006061896068012203F0BEFE85
:10380C0046442A462189606803F0B8FEF6B20A23C2
:10381C000DF10701012220688DF8076005F0FAF917
:10382C0021896068012203F0A9FE61896068012288
:10383C0003F0A4FE2A462189606803F09FFE0A2348
:10384C000DF10701012220688DF8075005F0E2F90F
:10385C0021896068012203F091FE99F8006061896A
:10386C006068012203F08AFE3E442A462189606882
:10387C0003F084FEF6B20A230DF107010122206841
:10388C008DF8076005F0C6F921896068012203F004
:10389C0075FE2A466189606803F070FE2A4621890C
:1038AC00606803F06BFE2C200DF107018DF807000A
:1038BC000A230122206805F0ADF9012221896068F4
:1038CC0003B0BDE8F04F03F059BE00BFD00200209A
:1038DC00F0020020F1020020F0B51546DFF868C0B8
:1038EC001A4F1B4E1B4C83B0CCF8000039600A46B3
:1038FC0031682368184CFFF7BDFE618960680122AE
:10390C0003F03CFE21896068002203F037FEC5F30A
:10391C0007218DF807100A230DF1070101222068F9
:10392C0005F078F90DF107010A23012220688DF8C2
:10393C00075005F06FF901222189606803B0BDE8DA
:10394C00F04003F01BBE00BFFC020020F802002078
:10395C000C03002008030020D00200202DE9F04FBA
:10396C0083468846974C984F984E994B994D83B007
:10397C006189C7F800B06068C6F800800022D5F8ED
:10398C0000901F6803F0FAFD21896068002203F0A3
:10399C00F5FD2A2300258DF807300DF107010A23C8
:1039AC000122206805F036F921896068012203F0B4
:1039BC00E5FD61896068012203F0E0FD2189606802
:1039CC00002203F0DBFDDFF810A20A230DF1070142
:1039DC00012220688DF8075005F01CF921896068D8
:1039EC00012203F0CBFD9AF8006061896068012226
:1039FC0003F0C4FD5E442A462189606803F0BEFDD5
:103A0C00F6B20A230DF10701012220688DF8076038
:103A1C0005F000F921896068012203F0AFFD61898E
:103A2C006068012203F0AAFD2A462189606803F030
:103A3C00A5FD0A230DF10701012220688DF807501E
:103A4C0005F0E8F821896068012203F097FD9AF8E7
:103A5C00006061896068012203F090FD4E442A46A3
:103A6C002189606803F08AFDF6B20A230DF1070183
:103A7C00012220688DF8076005F0CCF82189606878
:103A8C00012203F07BFD2A466189606803F076FD14
:103A9C002A462189606803F071FD2B230DF1070183
:103AAC008DF8073001220A23206805F0B3F821892C
:103ABC006068012203F062FD61896068012203F0F5
:103ACC005DFD2A462189606803F058FDDFF80C91F2
:103ADC000A230DF10701012220688DF8075005F02B
:103AEC0099F821896068012203F048FD99F800607B
:103AFC0061896068012203F041FD46442A46218910
:103B0C00606803F03BFDF6B20A230DF107010122B8
:103B1C0020688DF8076005F07DF821896068012226
:103B2C0003F02CFD61896068012203F027FD2A4611
:103B3C002189606803F022FD0A230DF1070101229F
:103B4C0020688DF8075005F065F82189606801221E
:103B5C0003F014FD99F8006061896068012203F09C
:103B6C000DFD3E442A462189606803F007FDF6B23C
:103B7C000A230DF10701012220688DF8076005F07A
:103B8C0049F821896068012203F0F8FC2A46618912
:103B9C00606803F0F3FC2A462189606803F0EEFCB0
:103BAC002C200DF107018DF807000A230122206853
:103BBC0005F030F801222189606803B0BDE8F04FB0
:103BCC0003F0DCBCD0020020FC020020F802002034
:103BDC00080300200C030020F0020020F10200205A
:103BEC0030B50C461546174A174B11682246174C30
:103BFC0083B01B68FFF73EFD61896068012203F00A
:103C0C00BDFC21896068002203F0B8FCC5F30721D4
:103C1C008DF807100A230DF107010122206804F02A
:103C2C00F9FF0DF107010A23012220688DF80750D6
:103C3C0004F0F0FF01222189606803B0BDE8304038
:103C4C0003F09CBC0C03002008030020D0020020D1
:103C5C000022F0B5384F394E396883B033680546C9
:103C6C001046FFF707FD01223B683668344C1644BA
:103C7C0003FB06666189606803F080FCB6080022CD
:103C8C002189606803F07AFC002E4DD0771EC5F3B5
:103C9C000726EDB20A2301220DF1070120688DF8E9
:103CAC00076004F0B7FF0A2301220DF10701206819
:103CBC008DF8075004F0AEFF0A2301220DF1070125
:103CCC0020688DF8076004F0A5FF0A2301220DF18E
:103CDC00070120688DF8075004F09CFF0A2301228D
:103CEC000DF1070120688DF8076004F093FF0A239B
:103CFC0001220DF1070120688DF8075004F08AFFAE
:103D0C000A2301220DF1070120688DF8076004F0E9
:103D1C0081FF0A23012220680DF107018DF807505D
:103D2C0004F078FF013FB5D201222189606803B00D
:103D3C00BDE8F04003F022BC0C0300200803002077
:103D4C00D0020020014B5888FFF782BFE002002010
:103D5C002DE9F0472C4C82B024880A9F844250D91C
:103D6C002A4D2D8895424CD98C428CBF4E1C661C1A
:103D7C009D4298BF05F1010A254D5FFA80FC88BF72
:103D8C0003F1010AD4B2A6EB0C06AAEB040AFFF766
:103D9C0071FC01226989686803F0F0FB5FFA8AFA0A
:103DAC00002229896868F6B203F0E8FBBAF1000F2B
:103DBC001FD0F6B14FF00009C7F30728FFB200245B
:103DCC000A2301220DF1070128688DF807800134C0
:103DDC0004F020FF0A23012228680DF107018DF859
:103DEC00077004F017FFA642EAD109F10109CA4590
:103DFC00E5D101222989686802B0BDE8F04703F0DB
:103E0C00BDBB02B0BDE8F087EE020020EC02002042
:103E1C00D00200202DE9F04F214B224C224A257A6A
:103E2C001B8816685B1BB3428946647A89B0C0F064
:103E3C001B821E4B1E491E680988091BB14202D207
:103E4C0000211960116012681E680392EB08154A74
:103E5C0004FB03F3927AE908821A02FB03F304339E
:103E6C009FB2002C00F010820025C9B25FFA86F8D0
:103E7C00DFF840A02E46DFF840B0002900F0E281C8
:103E8C0038460022CDE90457064B07255B68CDE97F
:103E9C0001201F5C039B03EBC204E4B214E000BFDF
:103EAC00EE020020E0020020FC020020F8020020BC
:103EBC00EC020020D0020020F0020020013D013471
:103ECC006B1CE4B200F0A08147FA05F3DA07F5D5D4
:103EDC000022BAF80A10DAF8040003F04FFB0022B3
:103EEC00BAF80810DAF8040003F048FB2A23012280
:103EFC008DF81F300DF11F010A23DAF8000004F0D1
:103F0C0089FE0122BAF80810DAF8040003F036FB37
:103F1C000122BAF80A10DAF8040003F02FFB002291
:103F2C00BAF80810DAF8040003F028FB0A2301227F
:103F3C000DF11F01DAF800008DF81F6004F06AFE25
:103F4C000122BAF80810DAF8040003F017FB9BF80A
:103F5C00003001222344DBB2BAF80A10DAF804006C
:103F6C00009303F00BFB0022BAF80810DAF80400F7
:103F7C0003F004FB009B01228DF81F300DF11F0193
:103F8C000A23DAF8000004F045FE0122BAF8081002
:103F9C00DAF8040003F0F2FA0122BAF80A10DAF89F
:103FAC00040003F0EBFA0022BAF80810DAF8040067
:103FBC0003F0E4FA0A2301220DF11F01DAF80000E4
:103FCC008DF81F6004F026FE0122BAF80810DAF80A
:103FDC00040003F0D3FA01229BF80030144423446C
:103FEC00DBB2BAF80A10DAF80400009303F0C6FA50
:103FFC000022BAF80810DAF8040003F0BFFA009BAC
:10400C0001228DF81F300DF11F010A23DAF8000090
:10401C0004F000FE0122BAF80810DAF8040003F0EC
:10402C00ADFA0022BAF80A10DAF8040003F0A6FA86
:10403C000022BAF80810DAF8040003F09FFA2B23D8
:10404C0001228DF81F300DF11F010A23DAF8000050
:10405C0004F0E0FD0122BAF80810DAF8040003F0CD
:10406C008DFA0122BAF80A10DAF8040003F086FA85
:10407C000022BAF80810DAF8040003F07FFA0A23D9
:10408C0001220DF11F01DAF800008DF81F6004F019
:10409C00C1FD0122BAF80810DAF8040003F06EFA38
:1040AC007B4B01221B78BAF80A104344DBB2DAF8D6
:1040BC000400009303F062FA0022BAF80810DAF850
:1040CC00040003F05BFA009B01228DF81F300DF108
:1040DC001F010A23DAF8000004F09CFD0122BAF853
:1040EC000810DAF8040003F049FA0122BAF80A10B1
:1040FC00DAF8040003F042FA0022BAF80810DAF8F1
:10410C00040003F03BFA0A2301220DF11F01DAF837
:10411C0000008DF81F6004F07DFD0122BAF8081034
:10412C00DAF8040003F02AFA0122594B08EB0201D9
:10413C001B78DAF804000B44DBB2BAF80A100093CF
:10414C0003F01CFA0022BAF80810DAF8040003F0A5
:10415C0015FA009B01228DF81F300DF11F010A2367
:10416C00DAF8000004F056FD0122BAF80810DAF86B
:10417C00040003F003FA0022BAF80A10DAF804007B
:10418C0003F0FCF90022BAF80810DAF8040003F086
:10419C00F5F92C2301228DF81F300DF11F010A2394
:1041AC00DAF8000004F036FD0122BAF80810DAF84B
:1041BC00040003F0E3F90022BAF80810DAF804005E
:1041CC0003F0DCF90122BAF80A10DAF8040003F063
:1041DC00D5F9C9F307210A2301228DF81F10DAF84B
:1041EC0000000DF11F0104F015FD013D0A23012211
:1041FC00DAF800000DF11F018DF81F9004F00AFD94
:10420C006B1CE4B27FF460AEDDE90120214B01327E
:10421C001B7A0130D908B2EBD30F0C46FFF634AE43
:10422C00DDE904571B4B6A1C5B7A95B23C44AB42EC
:10423C00A7B207D908F10108C9B25FFA88F80029BA
:10424C007FF41EAEBAF80810DAF80400012203F06D
:10425C0095F9002210461049104B09681B6809B0EB
:10426C00BDE8F04FFFF706BA002313600C4B0D4E60
:10427C0019682144196007494968B1427FF4DAADE5
:10428C00196802311960D5E5DFF81CA0DAE700BF28
:10429C00F1020020E00200200C03002008030020A3
:1042AC00F802002084A70008D00200202DE9F04F6E
:1042BC00534BDFF850A1544F1D889AF808C0904614
:1042CC003A68A5EB0C05954204460E469AF809305F
:1042DC0085B0C0F084804D4D4D4A29681288D21AA1
:1042EC008A4202D200222A603A6038683A68013A5F
:1042FC0002EB0C012A682D68013D2B44454DFFF75C
:10430C00B9F901226989686803F038F90022298912
:10431C00686803F033F99AF808309AF80920DB083A
:10432C0002FB03F39AF80A20A21A03FB02F20432EE
:10433C0092B2002B43D04FF0000BC8F30729019227
:10434C00019BDAF804105B449BB20724CF5C0EE0AF
:10435C008DF80FC004F05EFC0A23012228680DF1D1
:10436C000F018DF80F6004F055FC013C1CD347FA8B
:10437C0004F313F0010F4FF001024FF00A03286809
:10438C00C6F3072C0DF10F01E2D18DF80F9004F05C
:10439C0041FC0A23012228680DF10F018DF80F80D2
:1043AC0004F038FC013CE2D29AF808309AF8091073
:1043BC00DB0801FB03F30BF1010B5B45C0DC298926
:1043CC006868012203F0DAF8002210461249134BF8
:1043DC0009681B6805B0BDE8F04FFFF74BB9002228
:1043EC000A4D3A602A680E491A442A60DAF8042009
:1043FC008A427FF471AF2A6802322A606CE700BFF0
:10440C00EE020020E0020020FC020020F802002056
:10441C00EC020020D00200200C0300200803002036
:10442C0084A700082DE9F04F97B291B084B29BB2EB
:10443C000C941FFA81FA3C1BA3EB0A0B0FFA84FEB7
:10444C000FFA8BFCBEF1000F81460A4666461A9D98
:10445C001FFA8BF840F0A081BCF1000F00F09A839A
:10446C00C0F2A283AAEB03030FB299B219441EB295
:10447C008BB20C930123CDF828E000B20793C5F35F
:10448C0007230293EBB203934FF00009094B0A493F
:10449C0001930A4BC8460093094B0A4C04930DF147
:1044AC003F05CDF834A0CDF820C0CDF82CE0069017
:1044BC00099117E0080300200C030020F0020020F3
:1044CC00F1020020D00200200C9A0A991344069A9B
:1044DC001EB20A4413B20693089B09F101094B451D
:1044EC0000F05081099B0022D3F800B0019B618938
:1044FC001B686068059303F041F80022218960680D
:10450C0003F03CF82A23012229468DF83F3020681D
:10451C000A2304F07FFB01222189606803F02EF846
:10452C0001226189606803F029F800222189606802
:10453C0003F024F80A230122294620688DF83F80D5
:10454C0004F068FB01222189606803F017F8009BD6
:10455C0006981B7801220344618960685FFA83FA2C
:10456C0003F00CF800222189606803F007F80A2395
:10457C000122294620688DF83FA004F04BFB012254
:10458C002189606802F0FAFF01226189606802F0FB
:10459C00F5FF00222189606802F0F0FF0A23012256
:1045AC00294620688DF83F8004F034FB01222189D4
:1045BC00606802F0E3FF009B01221B786189606850
:1045CC009B4402F0DBFF00222189606802F0D6FFD9
:1045DC005FFA8BFB0A230122294620688DF83FB035
:1045EC0004F018FB01222189606802F0C7FF002249
:1045FC006189606802F0C2FF00222189606802F0C4
:10460C00BDFF2B23012229468DF83F3020680A2359
:10461C0004F000FB01222189606802F0AFFF012247
:10462C006189606802F0AAFF00222189606802F0AB
:10463C00A5FF0A230122294620688DF83F8004F04B
:10464C00E9FA01222189606802F098FFDDF810A0D8
:10465C0001229AF800B06189606802F08FFFBB44B8
:10466C0000222189606802F089FF5FFA8BFB0A2324
:10467C000122294620688DF83FB004F0CBFA0122C4
:10468C002189606802F07AFF01226189606802F07A
:10469C0075FF00222189606802F070FF0A23012255
:1046AC00294620688DF83F8004F0B4FA0122218954
:1046BC00606802F063FF9AF800300599012203EB61
:1046CC00010A6068618902F059FF00222189606843
:1046DC0002F054FF5FFA8AFA0A2301222946206865
:1046EC008DF83FA004F096FA01222189606802F04F
:1046FC0045FF00226189606802F040FF0022218999
:10470C00606802F03BFF2C23012229468DF83F30D4
:10471C0020680A2304F07EFA01222189606802F0E5
:10472C002DFF01226189606802F028FF0022218997
:10473C00606802F023FF02990A2301228DF83F10D2
:10474C002068294604F066FA03990A2301228DF8A1
:10475C003F102068294604F05DFA01222189606827
:10476C0002F00CFF079B002E1F443FB2B3B2BFF602
:10477C00ABAE0B9A09F1010913441EB2089B4B45D1
:10478C007FF4B0AE9C46DDF834A0079B06980CFB7A
:10479C0003A2099917B2AFE180F202820C99CF1BE8
:1047AC004FF0FF31BCB20A910FFA87FE002EC0F217
:1047BC00CD810123E6450793C0F2D4814FEA480826
:1047CC001FFA88FCACEB0406341BA3B20D93C5F3A3
:1047DC0007230293BEF1000FEBB20FFA89F017B268
:1047EC0036B2039340F3EE814FF00009BDF8283048
:1047FC0009490893094B06970193094BC846009346
:10480C00084B0746084C04930DF13F05CDF824E006
:10481C00CDF82CC00A9117E00C03002008030020EF
:10482C00F0020020F1020020D00200200D9909F1C5
:10483C0001090B44DDE906210A441EB213B20693AA
:10484C00099B4B4500F050810A9B0022D3F800B025
:10485C00019B61891B686068059302F08FFE002242
:10486C002189606802F08AFE2A23012229468DF8EC
:10487C003F3020680A2304F0CDF9012221896068B9
:10488C0002F07CFE01226189606802F077FE002252
:10489C002189606802F072FE0A23012229462068F1
:1048AC008DF83F8004F0B6F901222189606802F08E
:1048BC0065FE009B01221B7861893B4460685FFAAE
:1048CC0083FA02F05BFE00222189606802F056FE3A
:1048DC000A230122294620688DF83FA004F09AF99A
:1048EC0001222189606802F049FE01226189606819
:1048FC0002F044FE00222189606802F03FFE0A2388
:10490C000122294620688DF83F8004F083F90122AA
:10491C002189606802F032FE009B01221B786189BC
:10492C0060689B4402F02AFE00222189606802F034
:10493C0025FE5FFA8BFB0A230122294620688DF89D
:10494C003FB004F067F901222189606802F016FE7D
:10495C0000226189606802F011FE002221896068E2
:10496C0002F00CFE2B23012229468DF83F302068E3
:10497C000A2304F04FF901222189606802F0FEFD40
:10498C0001226189606802F0F9FD002221896068CA
:10499C0002F0F4FD0A230122294620688DF83F809D
:1049AC0004F038F901222189606802F0E7FDDDF896
:1049BC0010A0069B9AF800B00122618960689B44A4
:1049CC0002F0DCFD00222189606802F0D7FD5FFA5D
:1049DC008BFB0A230122294620688DF83FB004F096
:1049EC0019F901222189606802F0C8FD0122618950
:1049FC00606802F0C3FD00222189606802F0BEFDF0
:104A0C000A230122294620688DF83F8004F002F920
:104A1C0001222189606802F0B1FD9AF800300599F5
:104A2C00012203EB010A6068618902F0A7FD0022F4
:104A3C002189606802F0A2FD5FFA8AFA0A2301223A
:104A4C00294620688DF83FA004F0E4F80122218962
:104A5C00606802F093FD00226189606802F08EFDAF
:104A6C0000222189606802F089FD2C23012229464D
:104A7C008DF83F3020680A2304F0CCF801222189FC
:104A8C00606802F07BFD01226189606802F076FDAE
:104A9C0000222189606802F071FD02990A2301222B
:104AAC008DF83F102068294604F0B4F803990A23C6
:104ABC0001228DF83F102068294604F0ABF82189BB
:104ACC000122606802F05AFD0899002E0F443FB293
:104ADC00B3B2BFF6ABAE0B9A09F1010913441EB287
:104AEC00099B4B457FF4B0AE9E46089A0C9B069FE3
:104AFC000EFB02330A9918B2019B3A4609681B68EF
:104B0C00FEF7B8FD61896068012202F037FD21894A
:104B1C006068002202F032FD02990A238DF83F10E2
:104B2C0001222946206804F075F8039829468DF86F
:104B3C003F000A230122206804F06CF8012221892D
:104B4C00606811B0BDE8F04F02F018BD4FF6FF7170
:104B5C00AAEB03030FFA83FCE64507911FFA83F8CF
:104B6C00BFF62CAE64001FFA84FEAEEB0806A6EB73
:104B7C0008081FFA88F30C93C5F307230293BCF1C2
:104B8C00000FEBB20FFA89F017B236B203933FF76E
:104B9C007BAC17E02A4611B0BDE8F04FFFF720B808
:104BAC000121A4B20A9101E6AAEB03030FFA83FCDC
:104BBC00BCF1000F0DDCC5F307230293EBB200B27E
:104BCC000FB20393084B0949094C01930DF13F05B2
:104BDC0092E7D8441FFA88F30C93CDF828E04FF6EF
:104BEC00FF7300B20FB249E4080300200C0300204D
:104BFC00D00200202DE9F04F550087B00024164656
:104C0C0080468946DFF82CA14B4F0293C5F1030572
:104C1C0009E0A31B013E013405EB8303A64203F11B
:104C2C000A05C0F2848009EB06030393A9EB060383
:104C3C00049308EB06030093A8EB06030193BAF860
:104C4C00002004EB080B5A4515D93B88039999426F
:104C5C0008D2029A5846FEF73FFEBAF800205A4591
:104C6C0009D93B8804998B4205D9029A5846FEF71C
:104C7C0033FEBAF80020A8EB040B934515D23B8801
:104C8C000399994208D2029A5846FEF725FEBAF8C3
:104C9C0000205A4509D93B8804998B4205D9029AC0
:104CAC005846FEF719FEBAF80020009809EB0403E9
:104CBC009042A9EB040B19D2398899420BD91946A9
:104CCC00029A0593FEF708FEBAF800200098059B9F
:104CDC0090420BD23988594508D9029A5946009806
:104CEC000593FEF7F9FDBAF80020059B0198904258
:104CFC0013D23A889A4209D91946029AFEF7ECFD6A
:104D0C00BAF800300198984207D23A885A4504D92B
:104D1C00DDE901025946FEF7DFFD002DBFF679AF44
:104D2C0005EB84050134B44205F1060587DD07B0B7
:104D3C00BDE8F08FEE020020EC0200202DE9F04FD0
:104D4C0000248046894615461E4687B0C2F10107ED
:104D5C0004E0A24203F105073BDB154605EB090312
:104D6C00059305EB0803A9EB050BA8EB050A0293C9
:104D7C00059BA8EB040008EB04021946009604926C
:104D8C000390FFF74FFB5B465946049A0398009635
:104D9C00FFF748FB04EB090319465046029A0096AC
:104DAC00FFF740FBA9EB04031946029A5046009604
:104DBC00FFF738FB631B002F04F1010405F1FF32F0
:104DCC0007EB430307EB4401C3DAA54201F10107EA
:104DDC00CEDA07B0BDE8F08F2DE9F04F83B0044672
:104DEC008B46FBF7ADF9002835D006460025DFF8D9
:104DFC00B0816C4FDFF8B0A12078D02832D0D12808
:104E0C0056D0C22809BF6078013406F1FF3602344F
:104E1C000A2823D00D2832D0F82802D0B02840F030
:104E2C009D80D8F800903B68D8F800003968019351
:104E3C0002225B4603300531FFF7DCFEBDF804307F
:104E4C001FFA89F93B609AF808304B44C8F80030D7
:104E5C000135B542D0DB03B0BDE8F08F0023C8F8B4
:104E6C000030F5E76078013E842804F1020451D04B
:104E7C0087283DD0812828D01138C0B2C8E73A68BD
:104E8C009AF809309AF808101344484A3B60138882
:104E9C003A685B1A934238BF0023DAF8042038BF13
:104EAC003B60434B9A42D3D13B6802333B60CFE724
:104EBC006078013E942804F1020446D097283BD038
:104ECC00912830D02F30C0B2A2E7DFF8DC90384BFD
:104EDC00D9F80420C3209A4212D05946FEF79AFF03
:104EEC00D8F8002099F808301344C8F80030AFE720
:104EFC00DFF8B4902E4BD9F80420C2209A42ECD1A2
:104F0C005946FEF787FF264A99F8083011680B447A
:104F1C0013609DE7DFF89090254BD9F80420C12051
:104F2C009A42DAD1ECE7DFF88090214BD9F80420D3
:104F3C00C4209A42D1D1E3E7DFF86C901C4BD9F82E
:104F4C000420C0209A42C8D1DAE7DFF85C90184BF5
:104F5C00D9F80420BF209A42BFD1D1E7DFF848909E
:104F6C00134BD9F804209A42B7D12E2815D1DFF86B
:104F7C0030900C4AD9F800300233C9F80030D9F817
:104F8C00000011685B4602222731FFF7D7FED9F8E3
:104F9C0000300433C9F800305AE72C28E7D0AFE7CB
:104FAC00FC020020F8020020E0020020EC020020AD
:104FBC0084A700082DE9F04F90F800A085B001926D
:104FCC00BAF1000F2ED0044601308846FBF7B8F832
:104FDC000025461C50467D4FDFF8F4B1D02824D074
:104FEC00D12854D0C22861D001340A282ED00D28E3
:104FFC0034D0F82860D0DFF8D891764BD9F804205B
:10500C009A4200F0C680A2464146019AFFF74EF93B
:10501C00714999F808300A6801351344B542544671
:10502C000B6019DB05B0BDE8F08F607804F1020A63
:10503C00842806F1FF3600F08480872877D08128F9
:10504C0060D01138C0B20A285446D0D10023624A2D
:10505C0013600135B542E5DA2078BFE73A689BF872
:10506C0009309BF8081013443B605C4B3A681B8872
:10507C005B1A934238BF0023DBF8042038BF3B6037
:10508C00544B9A42E5D13B6802333B60E1E76078D0
:10509C0004F1020A942806F1FF3670D0972864D0E8
:1050AC00912858D02F305446C0B29EE76078013E0C
:1050BC00B02804F1020498D1DFF81C91DFF80CA1A0
:1050CC00D9F80030DAF800C041462020019A02934A
:1050DC00CDF80CC0FFF7EAF8D9F80000DAF80010A8
:1050EC000222434603300531FFF784FD384B1A7A10
:1050FC00BDF808301344BDF80C20CAF80020C9F8DC
:10510C000030A6E7DFF8C890324BD9F80420C32052
:10511C009A427FF479AF4146019AFFF7C7F82E4ABD
:10512C0099F80830116854460B44136091E7DFF886
:10513C00A090284BD9F80420C2209A427FF464AF87
:10514C00E9E7DFF88C90234BD9F80420C1209A4270
:10515C007FF45AAFDFE7DFF878901E4BD9F80420C4
:10516C00C4209A427FF450AFD5E7DFF86490194B16
:10517C00D9F80420C0209A427FF446AFCBE7DFF881
:10518C005090144BD9F80420BF209A427FF43CAFC6
:10519C00C1E700F0FD032C2B15D1DFF83C900B4A36
:1051AC00D9F800300233C9F80030D9F80000116882
:1051BC00434602222731FFF7C1FDD9F800300433F2
:1051CC00C9F8003045E7A246A5E700BFF802002069
:1051DC00E002002084A70008FC020020EC02002062
:1051EC00044A054B127819880AB1FFF7F5BD5A88A5
:1051FC00FFF7E0BEF4020020E00200202DE9F04FA2
:10520C000E469246A04CDFF884E2DFF884C2A14B34
:10521C00A14D83B00746CEF800600022CCF800A068
:10522C0061896068D5F80090D3F8008002F0A6F987
:10523C0000222189606802F0A1F92A2300250122AD
:10524C008DF807300DF107010A23206803F0E2FC0A
:10525C0001222189606802F091F90122618960685C
:10526C0002F08CF900222189606802F087F9DFF8DE
:10527C002CB20A2301220DF1070120688DF807508A
:10528C0003F0C8FC01222189606802F077F99BF8D1
:10529C0000300122618960681E4402F06FF92A46D1
:1052AC002189606802F06AF9F6B20A2301220DF135
:1052BC00070120688DF8076003F0ACFC01222189FE
:1052CC00606802F05BF901226189606802F056F9AE
:1052DC002A462189606802F051F90A2301220DF156
:1052EC00070120688DF8075003F094FC01222189F6
:1052FC00606802F043F99BF80060012261896068E4
:10530C0002F03CF94E442A462189606802F036F9D5
:10531C00F6B20A2301220DF1070120688DF807600F
:10532C0003F078FC01222189606802F027F92A46F3
:10533C006189606802F022F92A462189606802F0CE
:10534C001DF92B2301228DF807300DF107010A23DB
:10535C00206803F05FFC01222189606802F00EF9DD
:10536C0001226189606802F009F92A462189606886
:10537C0002F004F9DFF828910A2301220DF107014C
:10538C0020688DF8075003F045FC012221896068E4
:10539C0002F0F4F899F8006001226189606802F06B
:1053AC00EDF856442A462189606802F0E7F8F6B217
:1053BC000A2301220DF1070120688DF8076003F024
:1053CC0029FC01222189606802F0D8F80122618948
:1053DC00606802F0D3F82A462189606802F0CEF8A2
:1053EC000A2301220DF1070120688DF8075003F004
:1053FC0011FC01222189606802F0C0F899F8006064
:10540C0001226189606802F0B9F846442A46218974
:10541C00606802F0B3F8F6B20A2301220DF107011D
:10542C0020688DF8076003F0F5FB01222189606884
:10543C0002F0A4F82A466189606802F09FF82A46B7
:10544C002189606802F09AF82C200A2301220DF1C0
:10545C0007018DF80700206803F0DCFB012221898D
:10546C00606802F08BF80F4A0F4B12783846198897
:10547C0022B103B0BDE8F04FFFF7AEBC5A8803B0C1
:10548C00BDE8F04FFFF796BDD0020020FC020020D3
:10549C00F8020020080300200C030020F00200207A
:1054AC00F1020020F4020020E0020020F0B50028F8
:1054BC0087B045DB0024012122460928C8BF4FF0E4
:1054CC000A0C25DD0CEB8C03B0EB430F4FEA430CBD
:1054DC00F8D21F4FBCF1130FA7FB0C534FEAD303A9
:1054EC0016D9B0FBF3FE11469C46A7FB03240EF124
:1054FC0030064A1C0DEB0105BCF1130F03FB1E001B
:10550C00D2B22E714FEAD403EBD814460231C9B291
:10551C0000260DEB0403303018710E4B0E4D1B782A
:10552C000DEB01021671298823B101A8FFF754FC79
:10553C0007B0F0BD6A8801A8FFF73CFD07B0F0BDCD
:10554C002D2301240221224640428DF80430B4E779
:10555C00CDCCCCCCF4020020E00200202DE9F04FA1
:10556C0092460E469B4CDFF870E2DFF870C29C4B03
:10557C009C4D83B00746CEF800606189CCF800A042
:10558C0060680022D5F80090D3F8008001F0F6FF97
:10559C0021896068002201F0F1FF2A2300258DF893
:1055AC0007300DF107010A230122206803F032FBBA
:1055BC0021896068012201F0E1FF618960680122A4
:1055CC0001F0DCFF21896068002201F0D7FFDFF8D1
:1055DC0018B20A230DF10701012220688DF807503B
:1055EC0003F018FB21896068012201F0C7FF9BF8CA
:1055FC0000306189606801221E4401F0BFFF2A4619
:10560C002189606801F0BAFFF6B20A230DF1070197
:10561C00012220688DF8076003F0FCFA218960688C
:10562C00012201F0ABFF61896068012201F0A6FF45
:10563C002A462189606801F0A1FF0A230DF10701B8
:10564C00012220688DF8075003F0E4FA2189606884
:10565C00012201F093FF9BF80060618960680122D0
:10566C0001F08CFF4E442A462189606801F086FFC8
:10567C00F6B20A230DF10701012220688DF80760AC
:10568C0003F0C8FA21896068012201F077FF2A46ED
:10569C006189606801F072FF2A462189606801F017
:1056AC006DFF2B230DF107018DF8073001220A2322
:1056BC00206803F0AFFA21896068012201F05EFFD7
:1056CC0061896068012201F059FF2A4621896068CE
:1056DC0001F054FFDFF814910A230DF107010122A8
:1056EC0020688DF8075003F095FA21896068012233
:1056FC0001F044FF99F8006061896068012201F0B3
:10570C003DFF56442A462189606801F037FFF6B206
:10571C000A230DF10701012220688DF8076003F0C0
:10572C0079FA21896068012201F028FF618960689B
:10573C00012201F023FF2A462189606801F01EFF37
:10574C000A230DF10701012220688DF8075003F0A0
:10575C0061FA21896068012201F010FF99F800605C
:10576C0061896068012201F009FF46442A462189BB
:10577C00606801F003FFF6B20A230DF10701012264
:10578C0020688DF8076003F045FA218960680122D2
:10579C0001F0F4FE2A466189606801F0EFFE2A46AA
:1057AC002189606801F0EAFE2C200A230DF1070123
:1057BC008DF807000122206803F02CFA60680122A2
:1057CC00218901F0DBFE384603B0BDE8F04FFFF74E
:1057DC006DBE00BFD0020020FC020020F8020020A9
:1057EC00080300200C030020F0020020F10200202E
:1057FC000E4B82B09A690E4942F001029A619A6985
:10580C0002F001020092009ADA6942F08052DA61E9
:10581C00DB6903F080530193019B4B6823F0E06339
:10582C0043F000734B6002B0704700BF00100240A1
:10583C0000000140002330B5154A016887B0914241
:10584C00CDE90233CDE9043301D007B030BD2C24AF
:10585C00032503F1804303F504339A690D4842F4A0
:10586C0000729A619A6902A902F400720092009A7D
:10587C009A6942F004029A619B69CDE9024503F0F2
:10588C0004030193019B01F06DFC07B030BD00BF18
:10589C0000240140000801400023D0B5184A0168DB
:1058AC0086B09142CDE90233CDE9043301D006B084
:1058BC00D0BD03224FF440761227124C1248A36934
:1058CC0002A943F00803A361A369059203F008033E
:1058DC000093009BCDE9026701F044FC0B4A53682E
:1058EC0043F0E06343F002035360E36943F40013B5
:1058FC00E361E36903F400130193019B06B0D0BD8F
:10590C000054004000100240000C01400000014017
:10591C00D0B500241A4B026886B09A42CDE90244F5
:10592C00CDE9044401D006B0D0BD03F5EC33DA69FF
:10593C004FF4204642F48042DA61DA69022702F41D
:10594C0080420092009A9A6902A942F008029A6178
:10595C009B690C4803F0080301930323019A0593F8
:10596C00CDE9026701F0FEFB4FF4804200230548AD
:10597C0002A9CDE90223049401F0F4FB06B0D0BDDA
:10598C0000380040000C014000B5036883B0B3F14F
:10599C00804F04D0134A93420ED003B000BD03F5E0
:1059AC000433DA6942F00102DA61DB6903F00103C6
:1059BC000093009B03B000BD0B4B0022D869012162
:1059CC0040F00400D861DB691E2003F0040301934E
:1059DC00019B01F067FB1E2003B05DF804EB01F0A6
:1059EC009BBB00BF0008004000100240002370B5B4
:1059FC00026886B0B2F1804FCDE90233CDE90433B1
:105A0C0001D006B070BD02264FF48064022503F16C
:105A1C00804303F504339A6902A942F008029A61A3
:105A2C009A69134802F008020092009A9A6942F0AF
:105A3C0004029A619B69CDE9024503F004030193CA
:105A4C00019B059601F08EFB4FF40042022309489E
:105A5C0002A9CDE90223059601F084FB064A53689E
:105A6C0043F0E06343F44073536006B070BD00BF75
:105A7C00000C01400008014000000140FEE700BF9F
:105A8C00FEE700BFFEE700BFFEE700BFFEE700BF7A
:105A9C00704700BF704700BF704700BF08B505488E
:105AAC00FBF790F80448FBF78DF8BDE8084000F0D0
:105ABC00B7BF00BFF80000209400002010B5224CA6
:105ACC0023780133DBB2642B237031D900231F4AB6
