:020000040800F2
:1000000000000120B1680008CD590008D15900084E
:10001000D5590008D9590008DD5900080000000032
:10002000000000000000000000000000E15900088E
:10003000E559000800000000E9590008ED590008E2
:1000400001690008016900080169000801690008E8
:1000500001690008016900080169000801690008D8
:1000600001690008016900080169000801690008C8
:1000700001690008016900080169000801690008B8
:10008000016900080169000801690008000000001A
:1000900000000000000000000000000001690008EE
:1000A0000169000801690008016900080169000888
:1000B00001690008016900080D5A0008016900087B
:1000C0000169000801690008016900080169000868
:1000D00001690008016900080169000800000000CA
:1000E00001690008016900080169000800000000BA
:1000F000000000000000000000000000016900088E
:100100000000000001690008016900080169000899
:1001100000000000000000000000000000000000DF
:100120000169000801690008016900080169000807
:10013000016900080000000000000000000000004D
:10014000000000000000000000000000695A0008E4
:1001500001690008016900080169000801690008D7
:1001600001690008016900080000000000000000AB
:10017000000000000000000000000000000000007F
:1001800000000000016900080000000000000000FD
:0401900001690008F9
:1001A00010B5054C237833B9044B13B10448AFF3B1
:1001B00000800123237010BD5801002000000000C2
:1001C0001CD3000808B5034B1BB103490348AFF328
:1001D000008008BD000000005C0100201CD3000866
:1001E000034613F8012B002AFBD1181A0138704777
:1001F00001F0FF01102A2BDB10F0070F08D010F8D8
:10020000013B013A8B422DD010F0070F42B3F6D1DB
:10021000F0B441EA012141EA014122F007047FF0F4
:1002200000070023F0E80256083C85EA010586EA4B
:10023000010685FA47F5A3FA87F586FA47F6A5FA87
:1002400087F68EB9EED1F0BC01F0FF0102F0070293
:1002500032B110F8013B013A83EA010313B1F8D13E
:100260000020704701387047002D06BF354603381F
:10027000073815F0010F07D1013015F4807F02BF58
:10028000013015F4C03F0130F0BC0138704700BFA9
:1002900053B94AB9002908BF00281CBF4FF0FF31ED
:1002A0004FF0FF3000F088B9ADF1080C6DE904CED5
:1002B00000F006F8DDF804E0DDE9022304B0704741
:1002C0002DE9F047089D0F4604468C46002B48D187
:1002D0008A42164661D9B2FA82F34BB1C3F12002C9
:1002E00001FA03FC20FA02F29E4042EA0C0C9C4008
:1002F0004FEA164EB7B2BCFBFEF1220C0EFB11CC3E
:1003000042EA0C4201FB07F0904209D9B21801F110
:10031000FF3C80F0EE80904240F2EB8002393244A4
:10032000121AA4B2B2FBFEF00EFB102244EA024401
:1003300000FB07F7A74209D9341900F1FF3280F01A
:10034000DA80A74240F2D7803444023840EA0140C4
:10035000E41B00211DB1DC400023C5E90043BDE8DA
:10036000F0878B4206D90DB1C5E90001002108468E
:10037000BDE8F087B3FA83F1002948D1BB4202D32C
:10038000824200F20781841A67EB0302012094463F
:10039000002DE4D0C5E9004CE1E7002A00F092808E
:1003A000B2FA82F3002B40F0A8808A1A4FEA164E68
:1003B0001FFA86FC0121200CB2FBFEF70EFB172270
:1003C00040EA02420CFB07F0904207D9B21807F14D
:1003D000FF3802D2904200F2E2804746121AA4B2DD
:1003E000B2FBFEF00EFB102244EA02440CFB00FCC0
:1003F000A44507D9341900F1FF3202D2A44500F216
:10040000CB801046A4EB0C0440EA0740A2E7C1F100
:1004100020068B4022FA06FC4CEA030C07FA01F492
:1004200020FA06F3F7404FEA1C49234300FA01F88B
:100430001FFA8CFEB7FBF9F01C0C09FB107744EA9D
:10044000074400FB0EF7A74202FA01F20AD91CEB9F
:10045000040400F1FF3A80F09B80A74240F29880AC
:1004600002386444E41B9FB2B4FBF9F309FB134464
:1004700047EA044403FB0EFEA64509D91CEB04041D
:1004800003F1FF3780F08280A6457FD9023B6444A8
:1004900043EA0040A4EB0E04A0FB02E7BC42734613
:1004A000B94663D360D05DB1B8EB030264EB0904D5
:1004B00004FA06F622FA01F31E43CC40C5E90064B3
:1004C00000214CE76208480842EAC1710B0C43EA7C
:1004D00000438AB242EA0342B3FBF6F1E407B446B2
:1004E0003746B6461F23B0FBF6F0D21B41EA004167
:1004F00061E7614614E7104628E7C3F1200120FABE
:1005000001F29E4027FA01F19F403A434FEA164E0E
:100510001FFA86FCB1FBFEF70EFB1710110C41EA27
:10052000004107FB0CF8884504FA03F43AD9711826
:1005300007F1FF3001D288451FD8A1EB0801B1FBBC
:10054000FEF808FB0CF70EFB181192B242EA0142CA
:10055000BA422FD2B21808F1FF31C6D2BA42C4D281
:10056000A8F102013244C0E7F0459CD2BEEB020381
:1005700067EB0C070138B94695E7A6EB080841443C
:10058000B81EB1FBFEF808FB0CF7DCE73B467FE743
:10059000504667E70846FBE63444023832E7023F3C
:1005A00032441BE7A1EB08013846B1FBFEF808FB1B
:1005B0000CF7C8E7414698E7704700BF40B139B132
:1005C000A0224FF47A7301600271836000207047AB
:1005D00002207047F0B50D461944B1F5803F87B051
:1005E00037DAB3B3AAB3044698B38168029105F031
:1005F0007F01C1F180018B42A8BF0B469BB20179FC
:10060000CDE900232A460068102307F0A3FC054625
:10061000F8B906F05DFC0DF117078DF81750064686
:10062000012501E006F05AFC217920680097CDE908
:1006300001551023002207F0A7FD58B106F048FC31
:10064000A26803469B1B93424FF00100EAD90320A6
:1006500000E0022007B0F0BD8C461944B1F5803FA0
:1006600014DA9BB192B188B100B585B0816802916E
:1006700001790068CDE900231023624607F084FD6C
:10068000003818BF0120400005B000BD02207047AF
:10069000002857D02DE9F04F91468A18B2F5803FD7
:1006A000A7B08A464ADCB9F1000F47D00446194684
:1006B000802206A80CF0ACF90DF1170801250AF00C
:1006C0007F06C6F180064E45A36821792068A8BF41
:1006D0004E46B6B2CDE9016306AB009352461023F5
:1006E00007F038FC834648BB06F0F2FB8DF817B0E4
:1006F00007460AE006F0ECFBA2680346DB1B9342C8
:100700004FF001001AD806F0E9FB21792068CDF8F6
:100710000080CDE901551023002207F035FD0028A7
:10072000E8D1A9EB06091FFA89F956441FFA86FA9F
:10073000B9F1000FC3D127B0BDE8F08F022027B078
:10074000BDE8F08F02207047F8B500250E46BDF8D1
:100750001870C3819DF81C3082810446114680F8D0
:100760002830C0E90066C0E9115586600782C5627D
:10077000304607F035F8A37C024662F300033946A1
:10078000A374304607F02CF8A37C2563400023F0C7
:10079000060300F002001843E562C4E907556563EB
:1007A000C4E91455C4E91655A582A561A074656213
:1007B00084F84C5084F86050A56306F089FB03462A
:1007C000C4E90F33A189606807F00AF8034663643F
:1007D000E189206807F004F8636CA06443EA4003F1
:1007E000E362F8BD406B704790F82830022B0AD9BD
:1007F000032B12D1036B03F0010343EA41030363AC
:100800004163816370474BB1036B03F0030343EA19
:10081000810303634163816370477047704700BF82
:1008200038B5044606F054FBD4E91131E26A43EAD4
:1008300041035BB29A4211D0E26A554D216B43EA03
:100840008202AA560A4494F8281022630229E3621D
:100850007FD0032900F09080012971D0218AA068FF
:1008600006F0BEFF18B994F84C50002D74D0218AC0
:10087000A06806F0B5FF012839D0218AA06806F0EB
:10088000AFFF012846D0218AA06806F0A9FF002802
:100890004BD0A36DA3F10B02B2F5777F10D8E36DB7
:1008A000782B06D994F86030032B02D0012384F80A
:1008B0006030218AA06806F093FF01280CD038BD73
:1008C000B3F57A7F84BF022384F86030218AA06860
:1008D00006F086FF0128F2D106F0FAFA636D03F5FF
:1008E000FA73984284BF002384F8603038BD94F8CE
:1008F0004C30002BC1D0002384F84C3006F0E8FACD
:10090000236D6065C01AA065218AA06806F068FFA3
:100910000128B8D106F0DCFA636D218AC01AE065BF
:10092000A06806F05DFF0028B3D106F0D1FA236D70
:1009300003F57A73984284BF022384F86030A8E7F5
:10094000032B8BD1236BE26B9B10C4E90F02636313
:1009500084E7002B82D1F5E7012384F84C3006F0C0
:10096000B7FAE36D2065772B8CBF2B460323C4E9D0
:10097000165584F860307AE713B1032B7FF46EAF1D
:10098000236BE26B5B10C4E90F02636366E700BF91
:1009900034D3000810B581890446406806F020FF72
:1009A0000346E1892068636406F01AFFA0642046CC
:1009B000BDE81040FFF734BF90F86000704700BFFB
:1009C00010B5002394B0CDE90A33CDE90C33CDE95D
:1009D0000333CDE90533224901930793086C214A7B
:1009E00040F080500864096C01F080510191019938
:1009F0000293136823F4404343F4004313601368E5
:100A000001204FF4803103F44043CDE90801029303
:100A10004FF480010224CDE90E4102980721042001
:100A2000CDE9120119224FF4A87308A8109211936E
:100A300008F022FF08B172B6FEE70F210346CDE9A8
:100A400003144FF4805203A82146CDE905320793E1
:100A500009F02CF908B172B6FEE714B010BD00BF62
:100A6000003802400070004008B54FF6E07002F018
:100A70005FFD03F0DDF800222021084804F042FB6E
:100A8000074804F031FB07485E22002104F03AFBDE
:100A9000BDE808404FF4FC6002F04ABD44D30008B2
:100AA00070D3000890D3000870B5037C012B054675
:100AB0003FD0644E336803F10A0406F009FA844219
:100AC00000D370BD604CB5F900005E22282104F00F
:100AD000C9FC2368472B05D85C4804F005FB236854
:100AE000472BF9D9B5F902005E22702104F0BAFC57
:100AF0002368972B05D8554804F0F6FA2368972BFE
:100B0000F9D96B691A7B032A09D8DFE802F08A83D6
:100B1000027C4F486E22282104F0F4FA6B695B7B5B
:100B2000002B00F08580012B64D006F0D1F93060F5
:100B300070BDB0F90400444C1022602104F092FC16
:100B4000444804F0D1FA2368972B05D83F4804F0B5
:100B5000CBFA2368972BF9D9B5F90600202260213A
:100B600004F080FC3B4804F0BFFA2368972B05D8BB
:100B7000364804F0B9FA2368972BF9D9364804F0BF
:100B8000B3FAB5F908003022202104F06BFC31489B
:100B900004F0AAFA2368372B05D82C4804F0A4FAED
:100BA0002368372BF9D9B5F90C003022702104F0F5
:100BB00059FC284804F098FA2368672B05D8234885
:100BC00004F092FA2368672BF9D9B5F90A0040229C
:100BD000382104F047FC1F4804F086FA2368972B5D
:100BE00005D81A4804F080FA2368972BF9D9002316
:100BF0002B745EE719486E22702104F083FA06F028
:100C000067F9306094E716486E22282104F07AFADA
:100C10006B6984E713486E22282104F073FA6B692C
:100C20007DE711486E22282104F06CFA6B6976E7A3
:100C30000E486E22702104F065FA06F049F9306022
:100C400076E700BF7401002044040020B8D30008F8
:100C5000C8D30008B4D30008BCD30008D4D300081C
:100C6000CCD30008C4D30008C0D30008D0D30008F8
:100C7000F0B59148914CA7B0FFF7B4FD05469048F8
:100C8000FFF7B0FD064602F0D3FF05F049FA2378DE
:100C900013B9012027B0F0BD0021084602F0D6FDAF
:100CA0004FF4FC6002F044FC2378013B092B0ED882
:100CB000DFE813F0E200E600EA00EE00F200F600E2
:100CC000FA00FE000A00DE007E4804F00DFA227AE7
:100CD000E3797D49CDE90432A379039363790293E3
:100CE00023790193E3780093A378627806A80BF048
:100CF0006DFE4FF6FF7002F01BFC06A804F0F4F93D
:100D00004FF6E07002F014FC704804F0EDF94FF675
:100D1000FF7002F00DFC206A04F04AFB4FF6E07011
:100D200002F006FC6A4804F0DFF94FF6FF7002F0AB
:100D3000FFFB608904F03CFB4FF6E07002F0F8FB2B
:100D4000644804F0D1F94FF6FF7002F0F1FBE0685F
:100D500004F02EFB4FF6E07002F0EAFB5E4804F070
:100D6000C3F94FF6FF7002F0E3FB206904F020FBAB
:100D70004FF6E07002F0DCFB584804F0B5F94FF68E
:100D8000FF7002F0D5FB60692DB236B204F010FBA3
:100D90000EE04B48FFF710FE78B94748FFF722FDF9
:100DA0000346AB42464808D1FFF71CFDB04204D1D0
:100DB0004148FFF701FE0028EBD03F48FFF7FCFD5C
:100DC0000028FAD13E48FFF7F7FD0028FAD13A484B
:100DD000FFF708FD06463A48FFF704FD00277F238A
:100DE0002022009705B29F21384602F027FF2021DC
:100DF000384602F02BFD4FF6E07002F099FB3848C0
:100E000004F072F94FF6FF7002F092FBA06904F053
:100E1000CFFA4FF6E07002F08BFB324804F064F931
:100E20004FF6FF7002F084FBE06936B204F0C0FABE
:100E30000EE02348FFF7C0FD78B91F48FFF7D2FC4A
:100E40000346B3421E4808D1FFF7CCFC854204D1CB
:100E50001948FFF7B1FD0028EBD017480021FFF734
:100E6000C3FC17480021FFF7BFFC002027B0F0BDEE
:100E70001D4804F039F92AE71C4804F035F926E743
:100E80001B4804F031F922E71A4804F02DF91EE757
:100E9000194804F029F91AE7184804F025F916E76B
:100EA000174804F021F912E7164804F01DF90EE77F
:100EB000154804F019F90AE7E401002008050020AC
:100EC0008001002060D4000888D40008ACD4000859
:100ED000BCD40008D0D40008E0D40008F0D4000846
:100EE00000D5000810D5000874D40008DCD3000831
:100EF000ECD30008FCD300080CD400081CD4000874
:100F00002CD400083CD400084CD4000838B500228A
:100F10000C46054612231146204605F029FC22887E
:100F20006B6952BA2A80628852BA6A80A28852BA21
:100F30001A80E28852BA5A80228952BA9A8062890B
:100F400052BADA80A28952BA1A81E28952BA5A8117
:100F5000227C1A73627C5A7338BD00BF70B50E468E
:100F600014460546FF23122200213046FFF790FB6E
:100F70000F2005F0B3FF95F9012022702A886270D6
:100F800095F90320A2706A88E2706A6992F90120DB
:100F900022716A69128862716A6992F90320A271EA
:100FA0006A695288E2716A6992F9052022726A6957
:100FB000928862726A6992F90720A2726A69D2887D
:100FC000E2726A6992F9092022736A69128962736E
:100FD0006A6992F90B20A2736A695289E2736A699D
:100FE000127B22746969497B617430462246122360
:100FF000BDE870400021FFF7EDBA00BF2DE9F843CE
:101000002D4E2E4F05464FF00A082D48A6F80080B9
:101010000021FFF7E9FB2B4B294800244FF08049C2
:101020006C8021469C63A6F80080FFF7DDFBEC8016
:1010300034802146C9F838402348A7F80080FFF7DC
:10104000D3FB204B2C813C802146DC631C48A6F856
:101050000080FFF7C9FB1D4A2C80652111801848CC
:10106000A6F800802146FFF7BFFB3480AC80214604
:10107000C9F834401448A7F80080FFF7B5FB114BBE
:101080006C813C8012481C6401224FF4005106F030
:10109000ADFB104801224FF4805106F0A7FB0D482C
:1010A0000122042106F0A2FBBDE8F8430948012211
:1010B000802106F09BBB00BF7C0100207A0100204C
:1010C000E40100200004004080010020780100209D
:1010D0000008024000040240F8B5B0F902608F4DEC
:1010E0006E239E4204462B800CD0642E8C4840F325
:1010F000B3806421FFF778FB64264FF47A73894A42
:1011000066809363B4F906606E239E422B800ED0F6
:10111000642E834840F394806421FFF765FB6426C6
:101120004FF47A734FF08042E6802E809363B4F9D7
:1011300008607D4F6E239E423B800CD0642E73DD91
:101140007A486421FFF750FB64264FF47A73754A9E
:1011500026813E80D363B4F900606E239E422B80CB
:101160000AD0642E54DD6E486421FFF73DFB6426EF
:1011700000236F4A26801380B4F904606E239E42D8
:101180002B800DD0642E71DD65486421FFF72CFBA8
:1011900064264FF47A734FF08042A6802E8053630A
:1011A000B4F90A506E239D423B800CD0642D5F48F9
:1011B00022DD6421FFF718FB642540F2E733594A2A
:1011C00065813D801364237B032B08D8DFE803F09F
:1011D000706A025BB4F904105148FFF705FB637BAA
:1011E000002B58D0012B00D0F8BDB4F90A104F489D
:1011F000BDE8F840FFF7F8BA092D00F3858000211B
:10120000FFF7F2FA474A002363813B801364DAE771
:10121000092E71DC42480021FFF7E6FA0022444B18
:10122000228065221A80A7E7092E5DDC3F48002155
:10123000FFF7DAFA3B4A002323813B80D3638AE736
:10124000092E4ADC0021FFF7CFFA4FF0804200233D
:10125000E3802B8093636AE7092E37DC0021FFF7D8
:10126000C3FA304A0023638093634BE7092E25DCE1
:101270002B480021FFF7B8FA4FF080420023A380EB
:101280002B8053638CE7B4F906102548FFF7ACFABE
:10129000637B002BA6D1B4F908102448BDE8F840C0
:1012A000FFF7A2BAB4F902101D48FFF79DFA96E7BE
:1012B000B4F900101A48FFF797FA90E7184831463A
:1012C000FFF792FA06EB86035B0064E73146FFF70F
:1012D0008BFA06EB86035B0011E73146FFF784FAD1
:1012E00006EB86035B001DE710483146FFF77CFAEA
:1012F00006EB86035B002AE709483146FFF774FADC
:10130000C6F164039BB234E72946FFF76DFA0A235E
:101310004FF0FF3215FB032351E700BF7C01002093
:10132000E4010020000400407A0100208001002038
:1013300078010020000000002DE9F04FDDB005F03D
:10134000C7FD10AC0CAD0027C5E90077C4E90077F4
:10135000C4E902770646AF60AF81276105F092FDD0
:10136000FFF72EFBCDE94C77CDE94E77AF4B0597D4
:101370005097186BDFF8E4A240F004001863186B74
:1013800000F00400059005990697196BA84841F0F4
:1013900080011963196B01F080010691069A079785
:1013A000196B41F001011963196B01F001010791FB
:1013B000079A0897196B41F0020119631B6B03F040
:1013C000020308933A464FF40051089B06F00EFAC8
:1013D0003A46984841F2D40106F008FA4FF0010865
:1013E0004FF4005392484CA9CDE94C38CDE94E77E3
:1013F00006F03AF84FF4404203238D484E974CA92B
:10140000CDE94C2306F030F8012203238A484E9799
:101410004CA9CDE94C2306F027F84FF4FC620023D9
:1014200085484E974CA9CDE94C2306F01DF841F2B2
:10143000D40380484C934CA9CDE94D874F9706F0D3
:1014400013F84FF4806200237A484E974CA9CDE9F7
:101450004C2306F009F8794B794A9F6019461F61C1
:101460001F7683F82070DF6083F83070C3F81C802B
:10147000C3F814804FF48033C1E900A30846002369
:10148000CDE94C77CDE94E77C1E90A2305F038FD67
:1014900008B172B6FEE701234E90012267484CA9BD
:1014A000CDE94C2305F0C4FE0346A0B96548DFF83A
:1014B000B091C0E90233C0E90533C0E90733624B9C
:1014C000C0E900934FF48043036106F079FC0346C2
:1014D00018B172B6FEE772B6FEE75C48DFF884E149
:1014E000C0E90233C0E90433C0E90733C0E9093376
:1014F0004FF48273C0E900E34FF4007383610A2361
:10150000C36208F037FD00BB514F3E9003234FF0FC
:10151000804CCDE94C00CDE94E00CDE95000CDE93D
:101520003F00C7E900C33090529041903190B860BD
:101530003861B86140F2E7333846FB600DF1F809D5
:1015400009F000F918B172B6FEE772B6FEE74FF483
:101550008053494638463E9309F06AFB08B172B69B
:10156000FEE7384609F09CF908B172B6FEE70022A2
:10157000002330A93846CDE9302309F0A9FC024602
:1015800008B172B6FEE702234FF004084FF0600A7C
:1015900040F2F31B4CA93846CDE94CAB4E93CDF845
:1015A000408109F053FA08B172B6FEE738688369E2
:1015B00023F00803836142464CA9384609F046FAF5
:1015C00008B172B6FEE73A6821489369214F23F4C7
:1015D0000063936104F09CF900231F483E93CDE91A
:1015E0003033C9E90133CDE94C33CDE94E33CDE990
:1015F0005033C9F80C305293BB603B61BB6103238D
:10160000C7E9000340F2E7333846FB6009F09AF877
:1016100008B172B6FEE74FF4805849463846CDF817
:10162000F88009F005FBF8B172B6FEE70038024019
:10163000000802400004024000000240D0030020E5
:101640000100000F78030020A08601002003002085
:10165000D802002090020020000400400020014039
:101660000054004000380040384609F019F908B12C
:1016700072B6FEE74FF0000A4FF0000B30A9384673
:10168000CDE930AB09F024FC08B172B6FEE79FED5E
:10169000307B4E90509004224CA938468DED4C7B07
:1016A00009F0D4F908B172B6FEE740F2F311022353
:1016B000CDE94D13082204234CA93846509309F074
:1016C000C5F908B172B6FEE73968CB6923F00803A3
:1016D000CB610C224CA9384609F0B8F908B172B6B2
:1016E000FEE739680290CA6922F400623846CA618E
:1016F000194F04F00DF905F005F9029B3E93CDE971
:101700004C33CDE94E33C7E90133C9F804303B61AE
:10171000BB61124B3B6038464FF6FF73FB6009F02C
:1017200011F808B172B6FEE74CA93846CDF8308101
:1017300009F07EFA08B172B6FEE738464946CDE9AF
:101740003EAB09F0C5FB58B172B6FEE7AFF30080BF
:101750006000000000000000480200200008004077
:101760000021A54809F016F90421A34809F012F94F
:101770000021A24809F00EF90421A04809F00AF955
:1017800008219E4809F006F90C219C4809F002F94D
:101790009B4809F051F82846FFF730FC99499A48D0
:1017A00004F0B8F999494FF4805216A804F0EAF908
:1017B0000422964923A804F0E5F9954995480027A5
:1017C00004F07AF941F25C289FED930A012004F0BD
:1017D00083FBCDE90087914A66230221484604F045
:1017E000D5F940F24E4ACDE900878C4ADFF858829D
:1017F0006623022130A804F0C9F99FED890ACDF8CB
:101800000080CDF804A003233A463946484604F048
:10181000A7F99FED840ACDE9008A04233A463946A8
:1018200030A804F09DF94FF0020A4FF48073CDE91F
:10183000003A7D497D48DFF814824FF400734FF47D
:1018400080624FF0200BFEF77FFF40238022764915
:101850007748CDF804A0CDF800B0FEF775FF7348C7
:101860003946FEF7C1FF7248A8F800703946FEF706
:10187000BBFF704B65496448009780221F8040235E
:1018800000F0BCFB5046012101F020FD39463846EE
:1018900000F0D2FB684A3B4639464FF6E07001F053
:1018A0004DFE384601F02AFDFFF7E2F980B102F063
:1018B000BFF95946384601F0C9FF4FF4784001F0AE
:1018C00037FE5E4803F010FC41F2883005F006FB5D
:1018D00000214CA804F0B4FE9DF83031FF2B00F03D
:1018E0007A834CA920466561FFF710FBB4F900B07C
:1018F000B4F902A04D4867695946FEF775FF4C4898
:10190000A8F800B05146FEF76FFF4A4BA3F800A0BD
:101910004B4909A8FEF752FE0146002800F0368325
:1019200002F086F94FF4784001F002FE454820228B
:10193000142103F0E7FB41F2883005F0CFFA284686
:10194000FFF7CAFBFFF790F8002306F5FA7602933B
:1019500005F0BEFA864240F2F9823448FFF72CF8CF
:10196000012840F0DA802B7B0133DBB2042B08BF67
:1019700000234FF4C8702B7305F0B0FA2C48FFF722
:101980001BF8012864D16B7BB3FA83F35B094FF436
:10199000C8706B7305F0A2FA2A7B6B7B029843EA4E
:1019A0008201884213D05CA901EB430301EB4202A0
:1019B000A3F59C73A2F5A072B3F900A0B2F90010D0
:1019C0001A48FEF711FF1A485146FEF70DFF2A7B11
:1019D0006B7B164843EA8203DBB20293FEF702FFF9
:1019E0002B7B0FFA80FA032B00F2E780DFE813F07D
:1019F000550276022702C600D8020020900200207D
:101A0000480200200038004020030020000402406B
:101A100000200140D0030020CDCC1C4098E50008F8
:101A2000000096430080964300000240E40100203D
:101A3000800100207A01002044DB000820D5000846
:101A40007803002064D5000800E600087C0100202F
:101A5000C248FEF7B1FF022800F0D880BF48FEF769
:101A6000ABFF032898D14CAA0021122309A8FEF746
:101A7000F3FDBDF83431BDF830B1BDF832A15BBA29
:101A80003B80BDF836315BBA7B80BDF838315BBA3C
:101A9000BB80BDF83A315BBAFB80BDF83C315BBA24
:101AA0003B81BDF83E315BBA7B819DF840313B7391
:101AB0009DF841317B732846FFF70EFB9AFA9AFA9C
:101AC000A74BA4F802A020464FF0000A9BFA9BFB0C
:101AD000C3F800A06761A4F800B0FEF7E5FF50214D
:101AE0005046676901F0B2FE4FF6FF7001F020FD2D
:101AF0009C4803F0F9FA40F2DC5005F0EFF9502170
:101B0000504601F0A3FE4FF4FC6001F011FD964831
:101B100003F0EAFAFF2302933EE79448FEF74CFFF6
:101B2000022800F0CD809148FEF746FF03287FF49D
:101B300025AF4CAA09A92046A4F800B0A4F802A039
:101B40006761FFF70BFA5021002001F07FFE4FF68E
:101B5000FF7001F0EDFC864803F0C6FA40F2DC505D
:101B600005F0BCF95021002001F070FE4FF4FC603C
:101B700001F0DEFC7F4803F0B7FAFFE6B8F9003069
:101B80009A4518D0BAF1640F31DCBAF1090F03DCC1
:101B90009A452FDB4FF00A0A51467448FEF724FE9F
:101BA0000AEB8A024FF080415200A5F806A0A8F87F
:101BB00000A053468A634FFA83FA6848FEF712FE84
:101BC000697B0FFA80FB002900F00081012900F0F9
:101BD000D7802046A4F800A0A4F802B06761FEF701
:101BE00063FFB4F900B0B4F902A06769B0E64FF042
:101BF000640AD1E75D480021FEF7F6FD4FF0804210
:101C00000023EB80A8F800309363D4E7002211464C
:101C100012234CA804F0ACFDBDF83431BDF830B14E
:101C2000BDF832A15BBA3B80BDF836315BBA7B8030
:101C3000BDF838315BBABB80BDF83A315BBAFB8086
:101C4000BDF83C315BBA3B81BDF83E315BBA7B816C
:101C50009DF840313B739DF841317B732846FFF777
:101C60003BFA9AFA9AFA3E4BA4F802A020464FF0AB
:101C7000000A9BFA9BFBC3F800A06761A4F800B0C0
:101C8000FEF712FF50215046676901F0DFFD4FF665
:101C9000FF7001F04DFC384803F026FA40F2DC50AA
:101CA00005F01CF95021504601F0D0FD4FF4FC60C6
:101CB00001F03EFC2F4803F017FAFF2302936BE676
:101CC000002004F04FFB9BFA9BFB0F209AFA9AFA34
:101CD00005F004F9ADF830B1ADF832A197F9013053
:101CE0008DF834313B888DF8353197F903308DF814
:101CF00036317B888DF8373197F905308DF83831DA
:101D0000BB888DF8393197F907308DF83A31FB8867
:101D10008DF83B3197F909308DF83C313B898DF8CE
:101D20003D3197F90B308DF83E317B898DF83F318D
:101D30003B7B8DF8403100227B7B8DF84131114691
:101D400012234CA804F04AFC5021002001F07EFD33
:101D50004FF6FF7001F0ECFB0848FDE68001002023
:101D600074010020F4D5000814D60008E401002016
:101D7000B4D50008A0D50008D4D5000880D5000847
:101D8000974BB3F900309B451AD0BBF1640F1ADCB6
:101D9000BBF1090F03DC9B453ADB4FF00A0B5946B8
:101DA0009048FEF721FD8E4B8F4AA3F800B04FF00C
:101DB000FF310A231BFB0313A5F80AB013645B462B
:101DC0004FFA83FB05E74FF0640BE8E7844BB3F968
:101DD00000309B45F4D0BBF1640F16DCBBF1090F5A
:101DE00003DC9B451FDB4FF00A0B7E485946FEF78C
:101DF000FBFC7B4B7C4AA3F800B00BEB8B035B0036
:101E0000A5F808B0D3635B46DAE74FF0640BECE764
:101E100000217448FEF7E8FC734A714900236B8186
:101E20000B801364CCE76F480391FEF7DDFC6C4B2D
:101E3000039919806C4B2981D9630B46C0E7B8F927
:101E400000309A453FF4B7AEBAF1640F16DCBAF130
:101E5000090F03DC9A4514DB4FF00A0A5146634828
:101E6000FEF7C2FC0AEB8A024FF080415200A5F84F
:101E700004A0A8F800A053464A639CE64FF0640A09
:101E8000ECE75A480021FEF7AFFC4FF080420023F8
:101E9000AB80A8F8003053638DE6B8F900309A455E
:101EA0003FF489AEBAF1640F15DCBAF1090F03DC17
:101EB0009A4534DB4FF00A0A4C485146FEF794FC31
:101EC0004B4AA5F800A0CAF164039BB21380A8F89E
:101ED00000A053466FE64FF0640AEDE7B8F9003012
:101EE0009A453FF468AEBAF1640F15DCBAF1090FF8
:101EF00003DC9A451FDB4FF00A0A3C485146FEF7C7
:101F000073FC394AA5F802A00AEB8A035B00A8F823
:101F100000A0936353464EE64FF0640AEDE70021BC
:101F20003248FEF761FC3249002365222B80A8F875
:101F300000300A803FE62D480021FEF755FC2A4A72
:101F400000236B80A8F80030936334E604F0C0FFF0
:101F50000221064616A803F095FE0221A08023A8C0
:101F600003F090FEE080052003F096FF40F6FB02B0
:101F700003B29342E38121DD0121484603F082FE52
:101F80000123608106F5FA762374E6E412234CAA55
:101F900009A8FEF761FB00287FF4C2AC01F048FEFF
:101FA0004FF4FC6001F0C4FA12482022282103F00B
:101FB000A9F84FF4FA7004F091FFC0E4012004F096
:101FC0008DFF012130A803F05DFE208130A803F0D1
:101FD000EBFDA081D0E74FF0000A2F46D34697E4EF
:101FE0007A0100208001002000040040E40100206C
:101FF0007801002074D5000872B6FEE710B40A4CD0
:10200000BDF804C02281C4E9000163810749084A80
:10201000084BA4F80CC0C1E901234FF6FF705DF82E
:10202000044B0860704700BF1804002028040020FB
:1020300044DB0008081020A02DE9F04FC44C85B007
:102040000B460022218901938046606805F0CEFB93
:10205000A189002941F01A8161896068BC4E002283
:10206000012505F0C3FB21896068002205F0BEFB55
:102070000A2320688DF80F502A460DF10F0107F052
:10208000DBFF218960682A4605F0B0FB822004F05E
:1020900025FF61896068002205F0A8FB218960683E
:1020A000002205F0A3FB112320688DF80F302A468B
:1020B0000A230DF10F0107F0BFFF218960682A464E
:1020C00005F094FB822004F009FF6189606800221A
:1020D00005F08CFB21896068002205F087FBB123A5
:1020E00020688DF80F302A460A230DF10F0107F002
:1020F000A3FF218960682A4605F078FB6189606842
:102100002A4605F073FB21896068002205F06EFB0A
:102110000A2320688DF80F502A460DF10F0107F0B1
:102120008BFF218960682A4605F060FB6189606841
:102130002A4605F05BFB21896068002205F056FB0A
:102140004FF02C090A2320688DF80F902A460DF1D4
:102150000F0107F071FF218960682A4605F046FBF0
:10216000618960682A4605F041FB21896068002288
:1021700005F03CFB2D270A2320688DF80F702A46B6
:102180000DF10F0107F058FF218960682A4605F01C
:102190002DFB61896068002205F028FB21896068B9
:1021A000002205F023FBB22320688DF80F302A4669
:1021B0000A230DF10F0107F03FFF218960682A46CD
:1021C00005F014FB618960682A4605F00FFB218940
:1021D0006068002205F00AFB0A2320688DF80F5082
:1021E0002A460DF10F0107F027FF218960682A4672
:1021F00005F0FCFA618960682A4605F0F7FA218942
:102200006068002205F0F2FA0A2320688DF80F902A
:102210002A460DF10F0107F00FFF218960682A4659
:1022200005F0E4FA618960682A4605F0DFFA218941
:102230006068002205F0DAFA0A2320688DF80F7032
:102240002A460DF10F0107F0F7FE218960682A4642
:1022500005F0CCFA61896068002205F0C7FA21898F
:102260006068002205F0C2FAB32320688DF80F30B1
:102270002A460A230DF10F0107F0DEFE218960686E
:102280002A4605F0B3FA618960682A4605F0AEFA7D
:1022900021896068002205F0A9FA0A2320688DF8D8
:1022A0000F502A460DF10F0107F0C6FE2189606824
:1022B0002A4605F09BFA618960682A4605F096FA7D
:1022C00021896068002205F091FA0A2320688DF8C0
:1022D0000F902A460DF10F0107F0AEFE21896068CC
:1022E0002A4605F083FA618960682A4605F07EFA7D
:1022F00021896068002205F079FA0A2320688DF8A8
:102300000F702A460DF10F0107F096FE21896068D3
:102310002A4605F06BFA618960682A4605F066FA7C
:1023200021896068002205F061FA0A2320688DF88F
:102330000F502A460DF10F0107F07EFE21896068DB
:102340002A4605F053FA618960682A4602E000BF18
:102350001804002005F04AFA21896068002205F07F
:1023600045FA0A2320688DF80F902A460DF10F01D7
:1023700007F062FE218960682A4605F037FA618914
:1023800060682A4605F032FA21896068002205F06B
:102390002DFA0A2320688DF80F702A460DF10F01DF
:1023A00007F04AFE218960682A4605F01FFA618914
:1023B0006068002205F01AFA21896068002205F0A1
:1023C00015FAB42320688DF80F302A460A230DF140
:1023D0000F0107F031FE218960682A4605F006FAF0
:1023E000618960682A4605F001FA21896068002247
:1023F00005F0FCF9072320688DF80F302A460A23E0
:102400000DF10F0107F018FE218960682A4605F0DA
:10241000EDF961896068002205F0E8F921896068BA
:10242000002205F0E3F9C02320688DF80F302A461A
:102430000A230DF10F0107F0FFFD218960682A468C
:1024400005F0D4F9618960682A4605F0CFF9218941
:102450006068002205F0CAF9A22320688DF80F30C9
:102460002A460A230DF10F0107F0E6FD2189606875
:102470002A4605F0BBF9618960682A4605F0B6F97D
:1024800021896068002205F0B1F9022320688DF8E7
:102490000F302A460A230DF10F0107F0CDFD2189E7
:1024A00060682A4605F0A2F9618960682A4605F04D
:1024B0009DF921896068002205F098F9842320683D
:1024C0008DF80F302A460A230DF10F0107F0B4FDF5
:1024D000218960682A4605F089F9618960680022CF
:1024E00005F084F921896068002205F07FF9C12395
:1024F00020688DF80F302A460A230DF10F0107F0EE
:102500009BFD218960682A4605F070F96189606841
:102510002A4605F06BF921896068002205F066F90A
:102520004FF0C50A0A2320688DF80FA02A460DF146
:102530000F0107F081FD218960682A4605F056F9F0
:1025400061896068002205F051F9218960680022E4
:1025500005F04CF9C22320688DF80F302A460A2373
:102560000DF10F0107F068FD218960682A4605F02A
:102570003DF9618960682A464FF00A0905F036F98D
:1025800021896068002205F031F94B4620688DF8FA
:102590000F902A460DF10F0107F04EFD218960686A
:1025A0002A4605F023F9618960682A4605F01EF97C
:1025B000218960680022002705F018F94B46206841
:1025C0008DF80F702A460DF10F0107F035FD2189B6
:1025D00060682A4605F00AF9618960683A4605F0A4
:1025E00005F9218960683A4605F000F9C32330688F
:1025F0008DF80F302A464B460DF10F0107F01CFDF8
:10260000318970682A4605F0F1F8718970682A46A8
:1026100005F0ECF8318970683A4605F0E7F84FF0BC
:102620008A0B4B4630688DF80FB02A460DF10F012A
:1026300007F002FD318970682A46344605F0D6F865
:10264000718970682A4605F0D1F8318970683A4678
:1026500005F0CCF82A264B462A460DF10F012068DA
:102660008DF80F6007F0E8FC218960682A4605F0C4
:10267000BDF8618960683A4605F0B8F8218960685C
:102680003A4605F0B3F8C4238DF80F302A464B467E
:102690000DF10F01206807F0CFFC218960682A4600
:1026A00005F0A4F8618960682A4605F09FF8218941
:1026B00060683A4605F09AF84B462A460DF10F013C
:1026C00020688DF80FB007F0B7FC218960682A46B2
:1026D00005F08CF8618960682A4605F087F8218941
:1026E00060683A4605F082F8EE238DF80F302A46EE
:1026F0004B460DF10F01206807F09EFC21896068B0
:102700002A4605F073F8618960683A4605F06EF86C
:10271000218960683A4605F069F84B462A460DF172
:102720000F0120688DF80FA007F086FC21896068F2
:102730002A4605F05BF8618960682A4605F056F87C
:10274000218960683A4605F051F80E238DF80F3064
:102750002A464B460DF10F01206807F06DFC2189D8
:1027600060682A4605F042F8618960683A4605F0DB
:102770003DF8218960683A4605F038F820238DF845
:102780000F302A464B460DF10F01206807F054FC2C
:10279000218960682A4605F029F8618960683A460F
:1027A00005F024F8218960683A4605F01FF83623C1
:1027B0008DF80F302A464B460DF10F01206807F0C7
:1027C0003BFC218960682A4605F010F86189606841
:1027D0002A4605F00BF8218960683A4605F006F8AC
:1027E000C8214B462A468DF80F1020680DF10F01C5
:1027F00007F022FC218960682A4604F0F7FF61890E
:1028000060683A4604F0F2FF218960683A4604F0B5
:10281000EDFF3A238DF80F302A464B460DF10F019C
:10282000206807F009FC218960682A4604F0DEFF71
:10283000618960682A4604F0D9FF218960683A46B8
:1028400004F0D4FF05238DF80F302A464B460DF1D6
:102850000F01206807F0F0FB218960682A4604F028
:10286000C5FF618960683A4604F0C0FF218960684D
:102870003A4604F0BBFF4B462A460DF10F01206893
:102880008DF80F6007F0D8FB218960682A4604F0B4
:10289000ADFF618960682A4604F0A8FF218960685D
:1028A0003A4604F0A3FF4B462A460DF10F0120687B
:1028B0008DF80F7007F0C0FB218960682A4604F08C
:1028C00095FF618960682A4604F090FF218960685D
:1028D0003A4604F08BFF4B462A460DF10F01206863
:1028E0008DF80F7007F0A8FB218960682A4604F074
:1028F0007DFF618960682A4604F078FF218960685D
:102900003A4604F073FF4B462A460DF10F0120684A
:102910008DF80F7007F090FB218960682A4604F05B
:1029200065FF60686189B8F1000F00F01C842A46D9
:1029300004F05CFF218960683A4604F057FF7F236A
:102940008DF80F302A460DF10F0120684B4607F035
:1029500073FB218960682A4604F048FF618960683A
:10296000002204F043FF21896068002204F03EFF4A
:102970004FF0E00B0A2301220DF10F0120688DF8C2
:102980000FB007F059FB21896068012204F02EFF87
:1029900061896068012204F029FF218960680022B2
:1029A00004F024FF4FF002038DF80F3001220A23B8
:1029B0000DF10F01206807F03FFB218960680122BB
:1029C00004F014FF61896068012204F00FFF21897F
:1029D0006068002204F00AFF1C238DF80F300122EA
:1029E0000A230DF10F01206807F026FB218960689A
:1029F000012204F0FBFE61896068012204F0F6FE0A
:102A000021896068002204F0F1FE4FF007090A23D3
:102A100001220DF10F0120688DF80F9007F00CFBDB
:102A200021896068012204F0E1FE61896068012269
:102A300004F0DCFE21896068002204F0D7FE122336
:102A40008DF80F3001220A230DF10F01206807F0E5
:102A5000F3FA21896068012204F0C8FE6189606888
:102A6000012204F0C3FE21896068002204F0BEFE4A
:102A70004FF037020A238DF80F200DF10F010122CC
:102A8000206807F0D9FA21896068012204F0AEFEBF
:102A900061896068012204F0A9FE21896068002232
:102AA00004F0A4FE32238DF80F3001220A230DF129
:102AB0000F01206807F0C0FA21896068012204F044
:102AC00095FE61896068012204F090FE21896068AA
:102AD000002204F08BFE29270A2301220DF10F01A9
:102AE00020688DF80F7007F0A7FA2189606801222D
:102AF00004F07CFE61896068012204F077FE218980
:102B00006068002204F072FE0DF10F054FF02D01F8
:102B10000A238DF80F1001222946206807F08CFA4D
:102B200021896068012204F061FE618960680122E8
:102B300004F05CFE21896068002204F057FE0A233D
:102B40002946012220688DF80F7007F075FA218957
:102B50006068012204F04AFE61896068012204F085
:102B600045FE21896068002204F040FE25232946A5
:102B70008DF80F3001220A23206807F05DFA2189C1
:102B80006068012204F032FE61896068012204F06D
:102B90002DFE21896068002204F028FE2B2329469F
:102BA0008DF80F3001220A23206807F045FA2189A9
:102BB0006068012204F01AFE61896068012204F055
:102BC00015FE21896068002204F010FE3923294691
:102BD0008DF80F3001220A23206807F02DFA218991
:102BE0006068012204F002FE61896068012204F03D
:102BF000FDFD218960680022002604F0F7FD0A230C
:102C00002946012220688DF80F6007F015FA218906
:102C10006068012204F0EAFD61896068012204F025
:102C2000E5FD324621896068012504F0DFFD0DF1E4
:102C30000F0C61460A232A4620688DF80F5007F0D2
:102C4000FBF9218960682A4604F0D0FD618960683B
:102C50002A4604F0CBFD32462189606804F0C6FDA7
:102C60000DF10F0C61460A234FF0030A2A46206833
:102C70008DF80FA007F0E0F9218960682A4604F07A
:102C8000B5FD618960682A4604F0B0FD32462189AD
:102C9000606804F0ABFD0DF10F0C4FF010006146C1
:102CA0000A238DF80F002A46206807F0C5F921890C
:102CB00060682A4604F09AFD32466189606804F033
:102CC00095FD32462189606804F090FD0DF10F0CEE
:102CD00061460A232A4620688DF80FB007F0ACF948
:102CE000218960682A4604F081FD618960682A466E
:102CF00004F07CFD32462189606804F077FD0DF117
:102D00000F0C61460A232A4620688DF80FA007F0B1
:102D100093F9218960682A4604F068FD618960683A
:102D20002A4604F063FD32462189606804F05EFDA6
:102D30000DF10F0C1D2361468DF80F302A460A2332
:102D4000206807F079F9218960682A4604F04EFD71
:102D5000618960682A4604F049FD3246218960682D
:102D600004F044FD0DF10F0C61460A232A46206849
:102D70008DF80F9007F060F9218960682A4604F009
:102D800035FD618960682A4604F030FD32462189AC
:102D9000606804F02BFD0DF10F0C062361468DF8E1
:102DA0000F302A460A23206807F046F92189606817
:102DB0002A4604F01BFD618960682A4604F016FD6E
:102DC00032462189606804F011FD0DF10F0C614657
:102DD0000A234FF02E092A4620688DF80F9007F03D
:102DE0002BF9218960682A4604F000FD618960683A
:102DF0002A4604F0FBFC32462189606804F0F6FCA8
:102E00000DF10F0C2C2361468DF80F302A460A2352
:102E1000206807F011F9218960682A4604F0E6FC71
:102E2000618960682A4604F0E1FC324621896068C5
:102E300004F0DCFC0DF10F0C61460A232A462068E1
:102E40008DF80F7007F0F8F8218960682A4604F0C1
:102E5000CDFC618960682A4604F0C8FC32462189AD
:102E6000606804F0C3FC4FF02D010A238DF80F10A9
:102E70002A460DF10F01206807F0DEF8218960680D
:102E80002A4604F0B3FC618960682A4604F0AEFC6F
:102E900032462189606804F0A9FC0A232A460DF114
:102EA0000F0120688DF80F9007F0C6F8218960683F
:102EB0002A4604F09BFC618960682A4604F096FC6F
:102EC00032462189606804F091FC0A232A460DF1FC
:102ED0000F0120688DF80F9007F0AEF82189606827
:102EE000DFF8DC932A4604F081FC618960682A4699
:102EF00004F07CFC32462189606804F077FC4FF0D6
:102F000037020A238DF80F200DF10F012A462068A1
:102F100007F092F8218960682A4604F067FC61890D
:102F200060682A4604F062FC32462189606804F039
:102F30005DFC3F238DF80F302A460A230DF10F0167
:102F4000206807F079F8218960682A4604F04EFC71
:102F5000618960682A4604F049FC3246218960682C
:102F600004F044FC0A232A460DF10F0120688DF875
:102F70000F6007F061F8218960682A4604F036FC8A
:102F8000618960682A4604F031FC32462189606814
:102F900004F02CFC0A232A460DF10F0120688DF85D
:102FA0000F6007F049F8218960682A4604F01EFC8A
:102FB000618960682A4604F019FC324621896068FC
:102FC00004F014FC4FF002038DF80F302A460A2358
:102FD0000DF10F01206807F02FF8218960682A465B
:102FE00004F004FC618960682A4604F0FFFB324665
:102FF0002189606804F0FAFB4FF010000A238DF875
:103000000F002A460DF10F01206807F015F82189FD
:1030100060682A4604F0EAFB32466189606804F081
:10302000E5FB32462189606804F0E0FB13238DF84C
:103030000F302A460A230DF10F01206806F0FCFF2D
:10304000218960682A4604F0D1FB0A2003F046FF7C
:1030500032466189606804F0C9FB324621896068A4
:103060008D4E04F0C3FB0A232A460DF10F012068A0
:103070008DF80F7006F0E0FF21896068874F2A46BF
:1030800004F0B4FB822003F029FF7F2333603B80F0
:10309000B8F1000F5FD0DFF82CA2C9F80050CAF8D1
:1030A00000307F4DDFF820822B80019BC8F8003074
:1030B0007C4B618960684FF0010B002283F800B0FF
:1030C00004F094FB21896068002204F08FFB362312
:1030D0008DF80F305A460A230DF10F01206806F0D3
:1030E000ABFF5A462189606804F080FB7F23CAF851
:1030F0000030D9F800203B8002B99F233360D8F814
:103100000060618960682B80012204F06FFB2189D7
:103110006068002204F06AFB66F03F060A230DF1A6
:103120000F0120688DF80F60012206F085FF2189CC
:1031300060685D4C012204F059FB5C4A5C485D4BC1
:1031400012781B785C49227002705C4A0B70137015
:1031500005B0BDE8F08FDFF86CA1C9F800809F23AF
:10316000CAF800309DE7012204F040FB2189606825
:10317000424604F03BFB9F238DF80F300DF10F0109
:103180000A232068012206F057FF21896068012286
:1031900004F02CFB61896068424604F027FB21891A
:1031A0006068424604F022FB2B238DF80F300DF1AE
:1031B0000F010A232068012206F03EFF2189606882
:1031C000012204F013FB61896068012204F00EFB08
:1031D00021896068424604F009FB0A230DF10F01C2
:1031E00020688DF80F80012206F026FF2189606893
:1031F000012204F0FBFA61896068012204F0F6FA0A
:1032000021896068424604F0F1FA0A230DF10F01AA
:1032100020688DF80F80012206F00EFF218960687A
:10322000012204F0E3FA61896068012204F0DEFA09
:1032300021896068424604F0D9FA0A230DF10F0192
:1032400020688DF80F80012206F0F6FE2189606863
:10325000012204F0CBFA61896068012204F0C6FA09
:1032600021896068424604F0C1FA7F238DF80F304F
:103270000DF10F0120680A23012206F0DDFE2189ED
:103280006068012204F0B2FAFFF768BB60680122AF
:1032900004F0ACFAFEF7E0BE500400203604002033
:1032A00034040020000000203A0400200400002024
:1032B00038040020030000203B04002039040020D3
:1032C0004C0400205404002048040020064B1B78C6
:1032D000012B99BF054A064B064A074BC0B2C9B23B
:1032E00010701970704700BF00000020040000201B
:1032F00003000020020000200100002030B57C4CBB
:103300007C4B618983B00546002260681D7004F023
:103310006DFA21896068002204F068FA36228DF87F
:1033200007200DF1070120680A23012206F084FE20
:1033300021896068012204F059FA032D3AD8DFE8A8
:1033400005F002976A3B6C496C4A7F230B60126858
:103350006B490B80002A40F0BA806A4B9F221A60AA
:10336000694B6A491D680A8060686189012204F01E
:103370003DFA21896068002204F038FA65F05F05A3
:103380000A2301220DF1070120688DF8075006F08D
:1033900053FE01222189606804F028FA5C4A5D4BE3
:1033A0005D4C5E485E4912781B78227002705D4A5F
:1033B0000B70137003B030BD5249504A7F230B602D
:1033C000126852490B80002A40F08D804A4B9F22A0
:1033D0001A604B494C4B60680A8061891D68012264
:1033E00004F004FA21896068002204F0FFF90A233E
:1033F00020688DF8075001220DF1070106F01CFE30
:1034000021896068464C012204F0F0F9464A474B96
:1034100042484149C7E73849384A7F230B60126860
:1034200037490B80002A5AD1364B9F221A60364BFF
:1034300036491D680A8060686189012204F0D6F966
:1034400021896068002204F0D1F945F060050A2363
:1034500001220DF1070120688DF8075006F0ECFD00
:1034600001222189606804F0C1F9304A2E4B97E7A8
:103470002449224A7F230B60126824490B8052BBE7
:103480001D4B9F221A60204B1D491D6860680A80F1
:103490006189012204F0AAF921896068002204F000
:1034A000A5F965F03F050A2320688DF80750012231
:1034B0000DF1070106F0C0FD21896068184C01225A
:1034C00004F094F9134A124B144813496BE70D4961
:1034D0001A460B6044E708491A460B60D3E70949CE
:1034E0001A460B60A3E704491A460B6071E700BF58
:1034F0001804002000000020500400204C0400208C
:103500003404002054040020480400203604002025
:1035100003000020040000203B04002038040020A9
:103520003A0400203904002002000020010000209D
:10353000014B1880704700BF2804002010B4084CCD
:103540002370084B59805A6018801178197251788D
:10355000597291789972D278DA725DF8044B70479B
:103560003C040020280400202DE9F04F944CDFF8A3
:1035700054A283B0834689466068618990460022E0
:103580001F4604F033F921896068002204F02EF907
:103590002A238DF807300DF107010A232068012244
:1035A00006F04AFD21896068012204F01FF9618953
:1035B0006068012204F01AF9218960680022002560
:1035C00004F014F90A230DF1070120688DF8075063
:1035D000012206F031FD21896068012204F006F91C
:1035E0009AF8006061896068012204F0FFF85E4487
:1035F000218960682A4604F0F9F8F6B20A230DF131
:10360000070120688DF80760012206F015FD218969
:103610006068012204F0EAF861896068012204F020
:10362000E5F8218960682A4604F0E0F80A230DF1E4
:10363000070120688DF80750012206F0FDFC218962
:103640006068012204F0D2F89AF80060618960682D
:10365000012204F0CBF84E4421896068DFF86891BC
:103660002A4604F0C3F8F6B20A230DF107012068D8
:103670008DF80760012206F0DFFC218960680122D5
:1036800004F0B4F8618960682A4604F0AFF8218933
:1036900060682A4604F0AAF82B238DF807300DF154
:1036A00007010A232068012206F0C6FC2189606810
:1036B000012204F09BF861896068012204F096F809
:1036C000218960682A4604F091F80A230DF1070168
:1036D00020688DF80750012206F0AEFC2189606851
:1036E000012204F083F899F8006061896068012282
:1036F00004F07CF84644218960682A4604F076F894
:10370000F6B20A230DF1070120688DF80760012247
:1037100006F092FC21896068012204F067F8618953
:103720006068012204F062F8218960682A4604F08A
:103730005DF80A230DF1070120688DF8075001227A
:1037400006F07AFC21896068012204F04FF899F8AC
:10375000006061896068012204F048F83E442189D4
:1037600060682A4604F042F8F6B20A230DF1070118
:1037700020688DF80760012206F05EFC21896068F0
:10378000012204F033F8618960682A4604F02EF8BB
:10379000218960682A4604F029F82C200DF10701E0
:1037A0008DF807000A232068012206F045FC2189D4
:1037B0006068012203B0BDE8F04F04F017B800BF05
:1037C00018040020380400203904002030B51A4DB8
:1037D0001A4C0B4683B01A492860236015461A46D6
:1037E000184B194C09681B68FFF7BEFE61896068B9
:1037F000012203F0FBFF21896068002203F0F6FF3D
:10380000C5F307218DF8071020680DF107010A2381
:10381000012206F011FC0DF1070120688DF8075018
:103820000A23012206F008FC21896068012203B006
:10383000BDE8304003F0DABF44040020400400201B
:103840005404002050040020180400202DE9F04FFB
:10385000974A984B984CDFF86CA283B01060974A57
:103860001960974BD2F800901F68834688466068BD
:103870006189002203F0BAFF21896068002203F009
:10388000B5FF2A238DF807300DF107010A232068C0
:10389000012206F0D1FB21896068012203F0A6FF16
:1038A00061896068012203F0A1FF2189606800221C
:1038B000002503F09BFF0A230DF1070120688DF816
:1038C0000750012206F0B8FB21896068012203F04D
:1038D0008DFF9AF8006061896068012203F086FF1D
:1038E0005E44218960682A4603F080FFF6B20A230D
:1038F0000DF1070120688DF80760012206F09CFB9E
:1039000021896068012203F071FF618960680122EA
:1039100003F06CFF218960682A4603F067FF0A23E1
:103920000DF1070120688DF80750012206F084FB95
:1039300021896068012203F059FF9AF800606189CB
:103940006068012203F052FF4E4421896068DFF86D
:1039500078912A4603F04AFFF6B20A230DF10701D7
:1039600020688DF80760012206F066FB21896068F7
:10397000012203F03BFF618960682A4603F036FFAD
:10398000218960682A4603F031FF2B238DF8073028
:103990000DF107010A232068012206F04DFB218961
:1039A0006068012203F022FF61896068012203F050
:1039B0001DFF218960682A4603F018FF0A230DF1D4
:1039C000070120688DF80750012206F035FB218998
:1039D0006068012203F00AFF99F80060618960685D
:1039E000012203F003FF4644218960682A4603F060
:1039F000FDFEF6B20A230DF1070120688DF807607D
:103A0000012206F019FB21896068012203F0EEFE15
:103A100061896068012203F0E9FE218960682A4615
:103A200003F0E4FE0A230DF1070120688DF807502A
:103A3000012206F001FB21896068012203F0D6FE15
:103A400099F8006061896068012203F0CFFE3E446E
:103A5000218960682A4603F0C9FEF6B20A230DF1F7
:103A6000070120688DF80760012206F0E5FA218938
:103A70006068012203F0BAFE618960682A4603F09B
:103A8000B5FE218960682A4603F0B0FE2C200DF1B6
:103A900007018DF807000A232068012206F0CCFAFE
:103AA00021896068012203B0BDE8F04F03F09EBE9B
:103AB0004404002040040020180400205404002086
:103AC00050040020380400203904002030B5184C80
:103AD000184B24681B6815460A462146164C83B0CD
:103AE000FFF742FD61896068012203F07FFE2189B2
:103AF0006068002203F07AFEC5F307218DF80710F5
:103B000020680DF107010A23012206F095FA0DF154
:103B1000070120688DF807500A23012206F08CFA6D
:103B200021896068012203B0BDE8304003F05EBE29
:103B3000540400205004002018040020F0B5394F30
:103B4000394E39683368394C002283B00546104637
:103B5000FFF70AFD3B6836686189606801221644F8
:103B600003FB0666B60803F041FE21896068002267
:103B700003F03CFE002E4DD0771EC5F30726EDB2B4
:103B80000A2301220DF1070120688DF8076006F075
:103B900053FA0A2301220DF1070120688DF807501E
:103BA00006F04AFA0A2301220DF1070120688DF878
:103BB000076006F041FA0A2301220DF1070120688F
:103BC0008DF8075006F038FA0A2301220DF107019B
:103BD00020688DF8076006F02FFA0A2301220DF104
:103BE000070120688DF8075006F026FA0A23012203
:103BF0000DF1070120688DF8076006F01DFA2068B6
:103C00008DF807500A2301220DF1070106F014FA7E
:103C1000013FB5D221896068012203B0BDE8F040C0
:103C200003F0E4BD540400205004002018040020D8
:103C3000014B5888FFF782BF280400202DE9F04788
:103C40002C4C248882B084420A9F50D92A4D2D885A
:103C500095424CD98C428CBF4E1C661C9D4298BF2D
:103C600005F1010A254D5FFA80FC88BF03F1010AC6
:103C7000D4B2A6EB0C06AAEB040AFFF775FC69891F
:103C80006868012203F0B2FD5FFA8AFA2989686840
:103C90000022F6B203F0AAFDBAF1000F1FD0F6B170
:103CA000C7F307284FF00009FFB200240A230122BE
:103CB0000DF1070128688DF80780013406F0BCF982
:103CC00028688DF807700A2301220DF1070106F01C
:103CD000B3F9A642EAD109F10109CA45E5D129891A
:103CE0006868012202B0BDE8F04703F07FBD02B072
:103CF000BDE8F087360400203404002018040020BA
:103D00002DE9F04F274B284E284D347A1B888946E1
:103D100029681B1B8B420246254B707A89B00AD258
:103D2000002129601968234E014419601E49496821
:103D3000B14200F01E8220491E680988091AB1426A
:103D400002D200211960296029681E68164B039170
:103D50009B7AD21AE30813FB00F313FB02F304333C
:103D6000E1089DB2002800F008820027C9B25FFA7E
:103D700086F8DFF848A0DFF848B03E463C46002908
:103D800000F0E581CDE9044528460022064B5B683A
:103D90001F5C039B03EBC204CDE90120E4B20725BD
:103DA00016E000BF36040020280400204404002050
:103DB0004004002070D600083404002018040020BD
:103DC00038040020013D01346B1CE4B200F0A081F6
:103DD00047FA05F3DA07F5D5BAF80A10DAF804005D
:103DE000002203F003FDBAF80810DAF804000022FC
:103DF00003F0FCFC2A238DF81F3001220A230DF169
:103E00001F01DAF8000006F017F9BAF80810DAF81E
:103E10000400012203F0EAFCBAF80A10DAF8040000
:103E2000012203F0E3FCBAF80810DAF804000022DB
:103E300003F0DCFC0A2301220DF11F01DAF8000077
:103E40008DF81F6006F0F8F8BAF80810DAF80400E8
:103E5000012203F0CBFC9BF80030BAF80A10DAF824
:103E600004002344DBB20122009303F0BFFCBAF844
:103E70000810DAF80400002203F0B8FC009B8DF86B
:103E80001F3001220A230DF11F01DAF8000006F0AD
:103E9000D3F8BAF80810DAF80400012203F0A6FCFF
:103EA000BAF80A10DAF80400012203F09FFCBAF80D
:103EB0000810DAF80400002203F098FC0A2301221B
:103EC0000DF11F01DAF800008DF81F6006F0B4F85C
:103ED000BAF80810DAF80400012203F087FC9BF816
:103EE0000030BAF80A10DAF8040001342344DBB2D7
:103EF0000122009303F07AFCBAF80810DAF8040003
:103F0000002203F073FC009B8DF81F3001220A236E
:103F10000DF11F01DAF8000006F08EF8BAF808106B
:103F2000DAF80400012203F061FCBAF80A10DAF8AA
:103F30000400002203F05AFCBAF80810DAF8040072
:103F4000002203F053FC2B238DF81F3001220A239B
:103F50000DF11F01DAF8000006F06EF8BAF808104B
:103F6000DAF80400012203F041FCBAF80A10DAF88A
:103F70000400012203F03AFCBAF80810DAF8040051
:103F8000002203F033FC0A2301220DF11F01DAF8AD
:103F900000008DF81F6006F04FF8BAF80810DAF844
:103FA0000400012203F022FC754BBAF80A101B78BA
:103FB000DAF804004344DBB20122009303F016FC5C
:103FC000BAF80810DAF80400002203F00FFC009B96
:103FD0008DF81F3001220A230DF11F01DAF80000CD
:103FE00006F02AF8BAF80810DAF80400012203F003
:103FF000FDFBBAF80A10DAF80400012203F0F6FB20
:10400000BAF80810DAF80400002203F0EFFB0A23E4
:1040100001220DF11F01DAF800008DF81F6006F093
:104020000BF8BAF80810DAF80400012203F0DEFBFE
:10403000534BDAF804001B78012208EB02010B4411
:10404000DBB2BAF80A10009303F0D0FBBAF80810FC
:10405000DAF80400002203F0C9FB009B8DF81F3042
:1040600001220A230DF11F01DAF8000005F0E4FF38
:10407000BAF80810DAF80400012203F0B7FBBAF826
:104080000A10DAF80400002203F0B0FBBAF80810B6
:10409000DAF80400002203F0A9FB2C238DF81F306E
:1040A00001220A230DF11F01DAF8000005F0C4FF18
:1040B000BAF80810DAF80400012203F097FBBAF806
:1040C0000810DAF80400002203F090FBBAF80A1096
:1040D000DAF80400012203F089FBC9F307210A235F
:1040E00001228DF81F10DAF800000DF11F0105F014
:1040F000A3FF013D0A23DAF800008DF81F900DF1AF
:104100001F01012205F098FF6B1CE4B27FF460AE42
:10411000DDE901201B4B1B7A0132D908B2EBD30F2A
:1041200000F101000F46FFF631AEDDE90445154B05
:10413000621C5B7A94B22F44A342BDB207D908F146
:104140000108C9B25FFA88F800297FF41BAEBAF8FB
:104150000810DAF80400012203F048FB0A4A0B4B6E
:1041600011681B680022104609B0BDE8F04FFFF748
:10417000FBB9196802311960DDE5DFF814A0E6E744
:10418000390400202804002054040020500400209A
:10419000180400202DE9F04F534BDFF86CA1534D6C
:1041A0009AF808709046524A0E4619889AF80930D3
:1041B00004461068C91B814285B00AD200211160F3
:1041C00029684C4819442960DAF80410814200F04B
:1041D0008680494928680988C91A814202D200218B
:1041E0002960116010681268013AD1192A682D6897
:1041F000013D2B44414DFFF7B7F9698968680122F9
:1042000003F0F4FA00222989686803F0EFFA9AF8BB
:1042100008309AF80920DB0813FB02F39AF80A2009
:10422000A21A13FB02F2043292B2002B47D04FF0D5
:10423000000BC8F307290192019BDAF804105B44D4
:104240009BB20724CF5C0EE08DF80FE005F0F4FE82
:1042500028688DF80F600A2301220DF10F0105F087
:10426000EBFE013C20D347FA04FC1CF0010F286848
:10427000C6F3072E4FF00A034FF001020DF10F01B4
:10428000E2D10A2301220DF10F018DF80F9005F004
:10429000D3FE28688DF80F800A2301220DF10F014B
:1042A00005F0CAFE013CDED29AF808309AF80910EF
:1042B000DB080BF1010B13FB01F35B45BCDC298927
:1042C0006868012203F092FA0D4A0E4B11681B68D0
:1042D0000022104605B0BDE8F04FFFF745B9296848
:1042E0000231296075E700BF360400204004002039
:1042F0004404002070D60008340400201804002074
:104300005404002050040020280400202DE9F04F20
:1043100091B01FFA82F984B29BB20C941FFA81FA11
:10432000A9EB0404A3EB0A0B0FFA84FE0FFA8BFC33
:10433000BEF1000F1A9D07460A461FFA8BF8664623
:1043400040F0A081BCF1000F00F09983AAEB0303B9
:10435000C0F29E8313FA83F41EB2A3B20B93C5F38B
:1043600007230493EBB205930123714600B217B201
:1043700008930B4B02930B4B03930B4B00934FF0A3
:1043800000090A4B0A4C01930DF13F05C846CDF8D0
:1043900034A0CDF824C00C91CDF828E0079017E0A8
:1043A0005404002050040020380400203904002068
:1043B000180400200B9A0C991344079A0A441EB261
:1043C00013B20793099B09F101094B4500F04F8196
:1043D000029B6189D3F800B0039B60681B68069359
:1043E000002203F003FA21896068002203F0FEF93D
:1043F0002A238DF83F3001220A232946206805F040
:104400001BFE21896068012203F0F0F96189606870
:10441000012203F0EBF921896068002203F0E6F93C
:104420000A230122294620688DF83F8005F004FE0A
:1044300021896068012203F0D9F9009B07981B7855
:1044400061890344012260685FFA83FA03F0CEF9C0
:1044500021896068002203F0C9F90A230122294654
:1044600020688DF83FA005F0E7FD218960680122F2
:1044700003F0BCF961896068012203F0B7F9218972
:104480006068002203F0B2F90A230122294620685D
:104490008DF83F8005F0D0FD21896068012203F08E
:1044A000A5F9009B61891B78606801229B4403F099
:1044B0009DF921896068002203F098F95FFA8BFB6F
:1044C0000A230122294620688DF83FB005F0B4FD8B
:1044D00021896068012203F089F9618960680022FE
:1044E00003F084F921896068002203F07FF92B230F
:1044F0008DF83F3001220A232946206805F09CFDF3
:1045000021896068012203F071F9618960680122E4
:1045100003F06CF921896068002203F067F90A232F
:104520000122294620688DF83F8005F085FD21890C
:104530006068012203F05AF9019B618993F800B089
:104540006068012203F052F9BB44218960680022AF
:1045500003F04CF95FFA8BFB0A23012229462068FD
:104560008DF83FB005F068FD21896068012203F0F5
:104570003DF961896068012203F038F9218960689A
:10458000002203F033F90A230122294620688DF81E
:104590003F8005F051FD21896068012203F026F972
:1045A000019B06991B78606803EB010A012261896F
:1045B00003F01CF921896068002203F017F95FFA03
:1045C0008AFA0A230122294620688DF83FA005F0C7
:1045D00033FD21896068012203F008F96189606870
:1045E000002203F003F921896068002203F0FEF83D
:1045F0002C238DF83F3001220A232946206805F03C
:104600001BFD21896068012203F0F0F86189606870
:10461000012203F0EBF821896068002203F0E6F83C
:10462000049B8DF83F3001220A232946206805F0BB
:1046300003FD059B8DF83F3001220A23294620689F
:1046400005F0FAFC21896068012203F0CFF8089B8D
:10465000002E1F443FB2B3B2BFF6ACAE0A9A134469
:104660001EB2099B09F101094B457FF4B1AE0899CF
:10467000DDF834A007985A1E0AEB010312FB013241
:1046800017B2AEE180F201820C99A1EB09091FFA81
:1046900089F40FFA89FE4FF0FF31002EC0F2CC8171
:1046A0000123E6450893C0F2D3814FEA48081FFA78
:1046B00088FCACEB0406341BA3B20D93C5F30723AF
:1046C0000493BEF1000FEBB238B236B217B20593C5
:1046D00040F3EA810B4B02930B4B03930B4B00937C
:1046E00089B20B4B07974FF000090A4C01930DF16B
:1046F0003F05C846CDF824E0CDF82CC007460A9106
:1047000018E000BF540400205004002038040020AA
:104710003904002018040020DDE907210D980A441F
:1047200003441EB213B20793099B09F101094B45DB
:1047300000F04F81029B6189D3F800B0039B606851
:104740001B680693002203F051F82189606800225B
:1047500003F04CF82A238DF83F3001220A23294622
:10476000206805F069FC21896068012203F03EF8A9
:1047700061896068012203F039F8218960680022AC
:1047800003F034F80A230122294620688DF83F807F
:1047900005F052FC21896068012203F027F8009B94
:1047A00061891B7860683B4401225FFA83FA03F059
:1047B0001DF821896068002203F018F80A230122FD
:1047C000294620688DF83FA005F036FC21896068F5
:1047D000012203F00BF861896068012203F006F8FA
:1047E00021896068002203F001F80A23012229468A
:1047F00020688DF83F8005F01FFC21896068012248
:1048000002F0F4FF009B61891B78606801229B44E1
:1048100002F0ECFF21896068002202F0E7FF5FFAF6
:104820008BFB0A230122294620688DF83FB005F052
:1048300003FC21896068012202F0D8FF6189606869
:10484000002202F0D3FF21896068002202F0CEFF2F
:104850002B238DF83F3001220A232946206805F0DA
:10486000EBFB21896068012202F0C0FF618960686A
:10487000012202F0BBFF21896068002202F0B6FF2E
:104880000A230122294620688DF83F8005F0D4FBD9
:1048900021896068012202F0A9FF019B079993F822
:1048A00000B0606801228B44618902F09FFF21897A
:1048B0006068002202F09AFF5FFA8BFB0A23012254
:1048C000294620688DF83FB005F0B6FB2189606865
:1048D000012202F08BFF61896068012202F086FFED
:1048E00021896068002202F081FF0A230122294603
:1048F00020688DF83F8005F09FFB218960680122C8
:1049000002F074FF019B06981B78618903EB000A93
:104910000122606802F06AFF21896068002202F0CB
:1049200065FF5FFA8AFA0A230122294620688DF87A
:104930003FA005F081FB21896068012202F056FF4B
:1049400061896068002202F051FF218960680022BD
:1049500002F04CFF2C238DF83F3001220A23294618
:10496000206805F069FB21896068012202F03EFFA2
:1049700061896068012202F039FF218960680022A4
:1049800002F034FF049B8DF83F3001220A232946B0
:10499000206805F051FB059B8DF83F3001220A236A
:1049A0002946206805F048FB21896068012202F051
:1049B0001DFF0A9B002E1F443FB2B3B2BFF6ACAE40
:1049C0000B9A13441EB2099B09F101094B457FF470
:1049D000B1AE0A99079F581E0C9B0B4410FB013087
:1049E00000B2029B1968039B3A461B68FEF7BCFDA8
:1049F00061896068012202F0F9FE21896068002265
:104A000002F0F4FE049A8DF83F20294620680A231C
:104A1000012205F011FB05988DF83F00294620681A
:104A20000A23012205F008FB21896068012211B0E8
:104A3000BDE8F04F02F0DABEAAEB03030FFA83FCE5
:104A40001FFA83F8E6454FF6FF730893BFF62DAEC5
:104A500064001FFA84FEAEEB0806A6EB08081FFAF6
:104A600088F30B93C5F307230493BCF1000FEBB25B
:104A700038B236B217B205933FF77BAC14E02A4642
:104A800011B0BDE8F04FFFF721B8A4B2012104E650
:104A90000FFA83FCBCF1000F0EDCC5F3072304936F
:104AA000EBB200B20FB205930B4B02930B4B0C4CC5
:104AB00003930DF13F0594E7D8441FFA88F30B9355
:104AC000C5F307230493EBB205934FF6FF737146CA
:104AD00000B217B208934CE45404002050040020A4
:104AE000180400202DE9F04F87B05500DFF838A1F9
:104AF0004C4F0293164680468946C5F103050024B3
:104B000009E0A31B013E013405EB8303A64203F138
:104B10000A05C0F2848009EB06030493A9EB06039F
:104B2000039308EB06030093A8EB06030193BAF87E
:104B3000002004EB080B5A4515D93B88049999428B
:104B400008D2029A5846FEF741FEBAF800205A45AC
:104B500009D93B8803998B4205D9029A5846FEF73A
:104B600035FEBAF80020A8EB040B934515D23B881C
:104B70000499994208D2029A5846FEF727FEBAF8DD
:104B800000205A4509D93B8803998B4205D9029ADE
:104B90005846FEF71BFEBAF800200098904209EB39
:104BA0000403A9EB040B19D2398899420BD9029A54
:104BB00005931946FEF70AFEBAF800200098059BF7
:104BC00090420BD23988594508D9029A009805932A
:104BD0005946FEF7FBFDBAF80020059B019890426C
:104BE00013D23A889A4209D91946029AFEF7EEFD85
:104BF000BAF800300198984207D23A885A4504D949
:104C0000DDE901025946FEF7E1FD002DBFF679AF5F
:104C100005EB84050134B44205F1060587DD07B0D4
:104C2000BDE8F08F34040020360400202DE9F04F59
:104C3000154687B0804689461E46C2F1010700240A
:104C400004E0A24203F105073BDB154605EB09032F
:104C5000059305EB0803A9EB050BA8EB050A0293E6
:104C6000059B0096A8EB040008EB04021946049289
:104C70000390FFF74BFB049A039800965B46594656
:104C8000FFF744FB04EB09031946029A00965046CD
:104C9000FFF73CFBA9EB04031946029A0096504625
:104CA000FFF734FB631B002F04F1010405F1FF3211
:104CB00007EB430307EB4401C3DAA54201F1010707
:104CC000CEDA07B0BDE8F08F2DE9F04F83B004468F
:104CD0008B46FBF785FA002836D0DFF8D081704F7D
:104CE000DFF8CC91064600252078D02833D0D12893
:104CF00057D0C22809BF6078013406F1FF3602346C
:104D00000A2824D00D2834D0F82802D0B02840F04A
:104D1000A580D8F80030D7F800A0D8F8000039688E
:104D2000019302225B4603300531FFF7DBFE1FFAD9
:104D30008AF33B60019A99F8083013FA82F3C8F8B5
:104D400000300135B542CFDB03B0BDE8F08F002362
:104D5000C8F80030F5E76078842804F1020406F111
:104D6000FF3653D087283ED0812828D01138C0B2D2
:104D7000C6E73A6899F8093099F808101344494A87
:104D80003B6013883A685B1A93423CBF00233B6048
:104D9000D9F80420444B9A42D3D13B6802333B609C
:104DA000CFE76078942804F1020406F1FF364BD077
:104DB00097283FD0912833D02F30C0B2A0E7DFF83A
:104DC000F0A0394BDAF804209A424FF0C30013D018
:104DD0005946FEF795FFD8F800209AF8083013449A
:104DE000C8F80030ADE7DFF8C8A02F4BDAF8042090
:104DF0009A424FF0C200EBD15946FEF781FF2B4A91
:104E00009AF8083011680B4413609AE7DFF8A0A005
:104E1000254BDAF804209A424FF0C100D8D1EBE7D5
:104E2000DFF88CA0204BDAF804209A424FF0C4003F
:104E3000CED1E1E7DFF878A01B4BDAF804209A42E4
:104E40004FF0C000C4D1D7E7DFF864A0164BDAF802
:104E500004209A424FF0BF00BAD1CDE7DFF850A04E
:104E6000114BDAF804209A42B2D12E2815D1DFF87E
:104E70003CA00B4ADAF800300233CAF80030DAF806
:104E8000000011685B4627310222FFF7CFFEDAF8F7
:104E900000300433CAF8003053E72C28E7D0ABE7E2
:104EA000400400203404002070D600084404002090
:104EB000280400202DE9F04F85B090F800A0019261
:104EC000BAF1000F2ED0044601308846FBF788F96E
:104ED000804FDFF810B2461C00255046D02824D061
:104EE000D12853D0C22860D001340A282ED00D28F2
:104EF00034D0F82860D0DFF8EC91774BD9F8042053
:104F00009A4200F0CB80A246019A4146FFF742F94F
:104F1000724999F808300A6801351344B54254467D
:104F20000B6019DB05B0BDE8F08F6078842804F1D0
:104F3000020A06F1FF3600F08580872877D08128A5
:104F40005FD01138C0B20A285446D0D1634A00233A
:104F500013600135B542E5DA2078BFE73A689BF87F
:104F600009309BF8081013443B605D4B3A681B887E
:104F70005B1A93423CBF00233B60DBF80420564B96
:104F80009A42E6D13B6802333B60E2E760789428BE
:104F900004F1020A06F1FF3675D0972868D09128EF
:104FA0005BD02F30C0B254469FE76078B02806F13E
:104FB000FF3604F1020498D1DFF82091DFF814A144
:104FC000D9F80030019A02934146DAF80030039391
:104FD0002020FFF7DFF8D9F80000DAF800100222ED
:104FE000434603300531FFF77DFDBDF80C30CAF8AC
:104FF00000303C4B029A1B7A13FA82F3C9F8003056
:10500000A7E7DFF8E090344BD9F804209A424FF03C
:10501000C3007FF479AF019A4146FFF7BBF82F4AEE
:1050200099F8083011680B445446136091E7DFF893
:10503000B490294BD9F804209A424FF0C2007FF473
:1050400063AFE8E7DFF89C90234BD9F804209A423D
:105050004FF0C1007FF458AFDDE7DFF888901E4BBA
:10506000D9F804209A424FF0C4007FF44DAFD2E744
:10507000DFF87090184BD9F804209A424FF0C00026
:105080007FF442AFC7E7DFF85C90134BD9F80420F8
:105090009A424FF0BF007FF437AFBCE700F0FD034A
:1050A0002C2B15D1DFF834900A4AD9F8003002339E
:1050B000C9F80030D9F800001168434627310222B0
:1050C000FFF7B4FDD9F800300433C9F8003040E7E9
:1050D000A246A0E74004002070D600084404002047
:1050E0003404002028040020044A054B1278198853
:1050F0000AB1FFF7E9BD5A88FFF7DCBE3C04002087
:10510000280400202DE9F04FA04BA14CDFF898B205
:1051100083B0924621609F4C1A609F4A9F4BD2F801
:105120000090D3F800800E4600226189074660682F
:1051300002F05CFB21896068002202F057FB2A2301
:105140008DF8073001220A230DF10701206804F0D1
:1051500073FF21896068012202F048FB6189606861
:10516000012202F043FB218960680022002502F041
:105170003DFB0A2301220DF1070120688DF807503D
:1051800004F05AFF21896068012202F02FFB9BF88E
:1051900000306189606801221E4402F027FB2189EA
:1051A00060682A4602F022FBF6B20A2301220DF1C2
:1051B000070120688DF8076004F03EFF21896068D0
:1051C000012202F013FB61896068012202F00EFBEC
:1051D000218960682A4602F009FB0A2301220DF1A9
:1051E000070120688DF8075004F026FF21896068C8
:1051F000012202F0FBFA9BF80060618960680122DD
:1052000002F0F4FA4E4421896068DFF8A0912A4642
:1052100002F0ECFAF6B20A2301220DF10701206830
:105220008DF8076004F008FF21896068012202F010
:10523000DDFA618960682A4602F0D8FA218960683F
:105240002A4602F0D3FA2B238DF8073001220A23D5
:105250000DF10701206804F0EFFE2189606801224A
:1052600002F0C4FA61896068012202F0BFFA218964
:1052700060682A4602F0BAFA0A2301220DF10701FA
:1052800020688DF8075004F0D7FE2189606801225C
:1052900002F0ACFA99F8006061896068012202F0BE
:1052A000A5FA5644218960682A4602F09FFAF6B2B0
:1052B0000A2301220DF1070120688DF8076004F030
:1052C000BBFE21896068012202F090FA6189606862
:1052D000012202F08BFA218960682A4602F086FAE0
:1052E0000A2301220DF1070120688DF8075004F010
:1052F000A3FE21896068012202F078FA99F8006023
:1053000061896068012202F071FA4644218960686F
:105310002A4602F06BFAF6B20A2301220DF10701C8
:1053200020688DF8076004F087FE218960680122FB
:1053300002F05CFA618960682A4602F057FA218916
:1053400060682A4602F052FA2C220A230DF1070166
:105350008DF807202068012204F06EFE2189606824
:10536000012202F043FA0E4A0E4B127819882AB134
:10537000384603B0BDE8F04FFFF7A6BC5A88384660
:1053800003B0BDE8F04FFFF795BD00BF400400201B
:10539000440400201804002054040020500400207D
:1053A0003C04002028040020380400203904002098
:1053B0002DE9F041002886B046DB00240121224679
:1053C0000928C8BF4FF00A0C25DD0CEB8C03B0EBAD
:1053D000430F4FEA430CF8D21F4FBCF1130FA7FB4A
:1053E0000C534FEAD30316D9B0FBF3FE0DEB0205C5
:1053F0009C4611460EF130060132A7FB0384BCF136
:10540000130F03FB1E002E71D2B24FEAD403EBD868
:1054100002311446C9B2114D114A2D780DEB01032A
:105420006C4430300026207111881E712DB101A806
:10543000FFF74AFC06B0BDE8F081528801A8FFF7EB
:1054400039FD06B0BDE8F0812D23012440428DF8DE
:10545000043002212246B3E7CDCCCCCC3C04002062
:10546000280400202DE9F04F9A4B9B4CDFF878B2CE
:1054700083B092462160994C1A60994A994BD2F8B0
:105480000090D3F8008007460E46606861890022CC
:1054900002F0ACF921896068002202F0A7F92A2302
:1054A0008DF807300DF107010A232068012204F06E
:1054B000C3FD21896068012202F098F96189606862
:1054C000012202F093F9218960680022002502F090
:1054D0008DF90A230DF1070120688DF8075001228C
:1054E00004F0AAFD21896068012202F07FF99BF88F
:1054F00000306189606801221E4402F077F9218939
:1055000060682A4602F072F9F6B20A230DF107012B
:1055100020688DF80760012204F08EFD2189606803
:10552000012202F063F961896068012202F05EF9EC
:10553000218960682A4602F059F90A230DF1070112
:1055400020688DF80750012204F076FD21896068FB
:10555000012202F04BF99BF800606189606801222A
:1055600002F044F94E4421896068DFF880912A46B0
:1055700002F03CF9F6B20A230DF1070120688DF81C
:105580000760012204F058FD21896068012202F0C1
:105590002DF9618960682A4602F028F9218960683E
:1055A0002A4602F023F92B238DF807300DF107016D
:1055B0000A232068012204F03FFD2189606801224E
:1055C00002F014F961896068012202F00FF9218963
:1055D00060682A4602F00AF90A230DF107012068E3
:1055E0008DF80750012204F027FD2189606801220F
:1055F00002F0FCF899F8006061896068012202F00D
:10560000F5F85644218960682A4602F0EFF8F6B2B0
:105610000A230DF1070120688DF80760012204F0CC
:105620000BFD21896068012202F0E0F86189606861
:10563000012202F0DBF8218960682A4602F0D6F8E0
:105640000A230DF1070120688DF80750012204F0AC
:10565000F3FC21896068012202F0C8F899F8006023
:1056600061896068012202F0C1F8464421896068BE
:105670002A4602F0BBF8F6B20A230DF107012068B2
:105680008DF80760012204F0D7FC218960680122AF
:1056900002F0ACF8618960682A4602F0A7F8218917
:1056A00060682A4602F0A2F82C220A230DF10701B5
:1056B0008DF807202068012204F0BEFC6068218973
:1056C000012202F093F8384603B0BDE8F04FFFF72F
:1056D0006FBE00BF400400204404002018040020D6
:1056E0005404002050040020380400203904002015
:1056F00082B00C4B002100915A6C42F480425A64F3
:105700005A6C02F480420092009A01911A6C42F0A5
:1057100080521A641B6C03F080530193019B02B00A
:10572000704700BF0038024000B5194A016889B0CF
:1057300000239142CDE90233CDE90433069301D031
:1057400009B000BD02F58C320093506C40F48070BB
:105750005064506C00F48070009000980193136BBB
:105760000C4843F001031363136B9FED077B03F0B9
:105770000103019302A98DED027B019B01F074FEF0
:1057800009B000BDAFF300801E0000000300000060
:10579000002001400000024030B5184B026889B07B
:1057A00000249A42CDE90244CDE90444069401D094
:1057B00009B030BD124D00942B6B43F002032B63F4
:1057C0002B6B03F0020300934FF440721223CDE9D8
:1057D000022300980B480322042302A9CDE90523E4
:1057E00001F042FE01942B6C43F400132B642B6CEC
:1057F00003F400130193019B09B030BD0054004035
:10580000003802400004024010B51B4A016888B00D
:1058100000239142CDE90233CDE90433069301D050
:1058200008B010BD02F500320093106C40F48040C7
:105830001064106C00F48040009000980193136B8A
:105840000E4843F002031363136B9FED097B03F0D3
:10585000020301930322052302A98DED027BCDE90A
:105860000523019C01F000FE08B010BDAFF30080DD
:1058700000E0000002000000003800400004024088
:1058800000B50368B3F1804F85B015D01D4A93422F
:1058900004D01D4A93421ED005B000BD1B4B002210
:1058A00002921A6C42F002021A641B6C03F00203AB
:1058B0000293029B05B000BD03F50E330022019256
:1058C0001A6C42F001021A641B6C03F0010301938D
:1058D000019B05B000BD0D4B00220392196C41F0F5
:1058E000040119641B6C03F00403039301211E20BF
:1058F000039B01F057FD1E2005B05DF804EB01F09D
:105900008BBD00BF0004004000080040003802408A
:1059100030B503688BB00024B3F1804FCDE9044467
:10592000CDE90644089404D0244A93422FD00BB00A
:1059300030BD03F50E3301941A6B214842F0010289
:105940001A631A6B02F001020192019A02941A6B17
:1059500042F002021A631B6B03F0020302934FF43E
:105960000042012504A90223CDE904230895029BE6
:1059700001F07AFD082202231248089504A9CDE916
:105980000423CDE9064401F06FFD0BB030BD0E4B92
:1059900003941A6B0B4842F002021A631B6B03F06C
:1059A0000203039323240223022504A9CDE904451D
:1059B000039A089301F058FD0BB030BD000400407D
:1059C000000002400004024000380240FEE700BF31
:1059D000FEE700BFFEE700BFFEE700BFFEE700BF37
:1059E000704700BF704700BF704700BF08B505484B
:1059F000FAF7D0FF0448FAF7CDFFBDE8084001F000
:105A00005BBA00BFE40100208001002008B5124A03
:105A100013780133DBB2642B13700DD90F490023C7
:105A2000098813700E480022102101F0DFFEBDE846
:105A300008400C4805F0B0B9084A128892B2934267
:105A4000F0D907480122102101F0D0FEBDE808403E
:105A5000044805F0A1B900BF5804002078010020D7
:105A60000004024048020020014802F0AFBF00BF1E
:105A70002C1400200C490D4A0B6810B50C4C121B5D
:105A80002BB11844904207D80860184610BD094B46
:105A90000B6018449042F7D906F0C2FF0C23036054
:105AA0004FF0FF33184610BD5C04002000000120B9
:105AB00000040000601A002038B5154C0D4648223D
:105AC000014604F1580006F0D7FF9FED0F7B00233D
:105AD0004FF48032C4E9165284F87030012284F801
